{
  "contractName": "ItemToken",
  "abi": [
    {
      "inputs": [],
      "payable": false,
      "stateMutability": "nonpayable",
      "type": "constructor"
    },
    {
      "anonymous": false,
      "inputs": [
        {
          "indexed": true,
          "internalType": "address",
          "name": "owner",
          "type": "address"
        },
        {
          "indexed": true,
          "internalType": "address",
          "name": "approved",
          "type": "address"
        },
        {
          "indexed": true,
          "internalType": "uint256",
          "name": "tokenId",
          "type": "uint256"
        }
      ],
      "name": "Approval",
      "type": "event"
    },
    {
      "anonymous": false,
      "inputs": [
        {
          "indexed": true,
          "internalType": "address",
          "name": "owner",
          "type": "address"
        },
        {
          "indexed": true,
          "internalType": "address",
          "name": "operator",
          "type": "address"
        },
        {
          "indexed": false,
          "internalType": "bool",
          "name": "approved",
          "type": "bool"
        }
      ],
      "name": "ApprovalForAll",
      "type": "event"
    },
    {
      "anonymous": false,
      "inputs": [
        {
          "indexed": true,
          "internalType": "address",
          "name": "previousOwner",
          "type": "address"
        },
        {
          "indexed": true,
          "internalType": "address",
          "name": "newOwner",
          "type": "address"
        }
      ],
      "name": "OwnershipTransferred",
      "type": "event"
    },
    {
      "anonymous": false,
      "inputs": [
        {
          "indexed": true,
          "internalType": "address",
          "name": "from",
          "type": "address"
        },
        {
          "indexed": true,
          "internalType": "address",
          "name": "to",
          "type": "address"
        },
        {
          "indexed": true,
          "internalType": "uint256",
          "name": "tokenId",
          "type": "uint256"
        }
      ],
      "name": "Transfer",
      "type": "event"
    },
    {
      "constant": false,
      "inputs": [
        {
          "internalType": "address",
          "name": "to",
          "type": "address"
        },
        {
          "internalType": "uint256",
          "name": "tokenId",
          "type": "uint256"
        }
      ],
      "name": "approve",
      "outputs": [],
      "payable": false,
      "stateMutability": "nonpayable",
      "type": "function"
    },
    {
      "constant": true,
      "inputs": [
        {
          "internalType": "address",
          "name": "owner",
          "type": "address"
        }
      ],
      "name": "balanceOf",
      "outputs": [
        {
          "internalType": "uint256",
          "name": "",
          "type": "uint256"
        }
      ],
      "payable": false,
      "stateMutability": "view",
      "type": "function"
    },
    {
      "constant": true,
      "inputs": [
        {
          "internalType": "uint256",
          "name": "tokenId",
          "type": "uint256"
        }
      ],
      "name": "getApproved",
      "outputs": [
        {
          "internalType": "address",
          "name": "",
          "type": "address"
        }
      ],
      "payable": false,
      "stateMutability": "view",
      "type": "function"
    },
    {
      "constant": true,
      "inputs": [
        {
          "internalType": "address",
          "name": "owner",
          "type": "address"
        },
        {
          "internalType": "address",
          "name": "operator",
          "type": "address"
        }
      ],
      "name": "isApprovedForAll",
      "outputs": [
        {
          "internalType": "bool",
          "name": "",
          "type": "bool"
        }
      ],
      "payable": false,
      "stateMutability": "view",
      "type": "function"
    },
    {
      "constant": true,
      "inputs": [],
      "name": "isOwner",
      "outputs": [
        {
          "internalType": "bool",
          "name": "",
          "type": "bool"
        }
      ],
      "payable": false,
      "stateMutability": "view",
      "type": "function"
    },
    {
      "constant": true,
      "inputs": [
        {
          "internalType": "uint256",
          "name": "",
          "type": "uint256"
        }
      ],
      "name": "items",
      "outputs": [
        {
          "internalType": "uint256",
          "name": "price",
          "type": "uint256"
        },
        {
          "internalType": "bool",
          "name": "sold",
          "type": "bool"
        }
      ],
      "payable": false,
      "stateMutability": "view",
      "type": "function"
    },
    {
      "constant": true,
      "inputs": [],
      "name": "owner",
      "outputs": [
        {
          "internalType": "address",
          "name": "",
          "type": "address"
        }
      ],
      "payable": false,
      "stateMutability": "view",
      "type": "function"
    },
    {
      "constant": true,
      "inputs": [
        {
          "internalType": "uint256",
          "name": "tokenId",
          "type": "uint256"
        }
      ],
      "name": "ownerOf",
      "outputs": [
        {
          "internalType": "address",
          "name": "",
          "type": "address"
        }
      ],
      "payable": false,
      "stateMutability": "view",
      "type": "function"
    },
    {
      "constant": false,
      "inputs": [],
      "name": "renounceOwnership",
      "outputs": [],
      "payable": false,
      "stateMutability": "nonpayable",
      "type": "function"
    },
    {
      "constant": false,
      "inputs": [
        {
          "internalType": "address",
          "name": "from",
          "type": "address"
        },
        {
          "internalType": "address",
          "name": "to",
          "type": "address"
        },
        {
          "internalType": "uint256",
          "name": "tokenId",
          "type": "uint256"
        }
      ],
      "name": "safeTransferFrom",
      "outputs": [],
      "payable": false,
      "stateMutability": "nonpayable",
      "type": "function"
    },
    {
      "constant": false,
      "inputs": [
        {
          "internalType": "address",
          "name": "from",
          "type": "address"
        },
        {
          "internalType": "address",
          "name": "to",
          "type": "address"
        },
        {
          "internalType": "uint256",
          "name": "tokenId",
          "type": "uint256"
        },
        {
          "internalType": "bytes",
          "name": "_data",
          "type": "bytes"
        }
      ],
      "name": "safeTransferFrom",
      "outputs": [],
      "payable": false,
      "stateMutability": "nonpayable",
      "type": "function"
    },
    {
      "constant": false,
      "inputs": [
        {
          "internalType": "address",
          "name": "to",
          "type": "address"
        },
        {
          "internalType": "bool",
          "name": "approved",
          "type": "bool"
        }
      ],
      "name": "setApprovalForAll",
      "outputs": [],
      "payable": false,
      "stateMutability": "nonpayable",
      "type": "function"
    },
    {
      "constant": true,
      "inputs": [
        {
          "internalType": "bytes4",
          "name": "interfaceId",
          "type": "bytes4"
        }
      ],
      "name": "supportsInterface",
      "outputs": [
        {
          "internalType": "bool",
          "name": "",
          "type": "bool"
        }
      ],
      "payable": false,
      "stateMutability": "view",
      "type": "function"
    },
    {
      "constant": false,
      "inputs": [
        {
          "internalType": "address",
          "name": "from",
          "type": "address"
        },
        {
          "internalType": "address",
          "name": "to",
          "type": "address"
        },
        {
          "internalType": "uint256",
          "name": "tokenId",
          "type": "uint256"
        }
      ],
      "name": "transferFrom",
      "outputs": [],
      "payable": false,
      "stateMutability": "nonpayable",
      "type": "function"
    },
    {
      "constant": false,
      "inputs": [
        {
          "internalType": "address",
          "name": "newOwner",
          "type": "address"
        }
      ],
      "name": "transferOwnership",
      "outputs": [],
      "payable": false,
      "stateMutability": "nonpayable",
      "type": "function"
    },
    {
      "constant": false,
      "inputs": [
        {
          "internalType": "uint256",
          "name": "_price",
          "type": "uint256"
        }
      ],
      "name": "mintItem",
      "outputs": [
        {
          "internalType": "uint256",
          "name": "",
          "type": "uint256"
        }
      ],
      "payable": false,
      "stateMutability": "nonpayable",
      "type": "function"
    },
    {
      "constant": true,
      "inputs": [
        {
          "internalType": "uint256",
          "name": "_id",
          "type": "uint256"
        }
      ],
      "name": "getItem",
      "outputs": [
        {
          "internalType": "uint256",
          "name": "",
          "type": "uint256"
        },
        {
          "internalType": "bool",
          "name": "",
          "type": "bool"
        },
        {
          "internalType": "address",
          "name": "",
          "type": "address"
        }
      ],
      "payable": false,
      "stateMutability": "view",
      "type": "function"
    },
    {
      "constant": true,
      "inputs": [],
      "name": "getItemCount",
      "outputs": [
        {
          "internalType": "uint256",
          "name": "",
          "type": "uint256"
        }
      ],
      "payable": false,
      "stateMutability": "view",
      "type": "function"
    },
    {
      "constant": false,
      "inputs": [
        {
          "internalType": "uint256",
          "name": "_id",
          "type": "uint256"
        }
      ],
      "name": "buy",
      "outputs": [],
      "payable": true,
      "stateMutability": "payable",
      "type": "function"
    }
  ],
  "bytecode": "0x608060405234801561001057600080fd5b5060006100246001600160e01b036100d716565b600080546001600160a01b0319166001600160a01b0383169081178255604051929350917f8be0079c531659141344cd1fd0a4f28419497f9722a3daafe3b4186f6b6457e0908290a3506100a07f01ffc9a7000000000000000000000000000000000000000000000000000000006001600160e01b036100db16565b6100d27f80ac58cd000000000000000000000000000000000000000000000000000000006001600160e01b036100db16565b6101ac565b3390565b7fffffffff00000000000000000000000000000000000000000000000000000000808216141561016c57604080517f08c379a000000000000000000000000000000000000000000000000000000000815260206004820152601c60248201527f4552433136353a20696e76616c696420696e7465726661636520696400000000604482015290519081900360640190fd5b7fffffffff00000000000000000000000000000000000000000000000000000000166000908152600160208190526040909120805460ff19169091179055565b61178c806101bb6000396000f3fe6080604052600436106101145760003560e01c8063715018a6116100a0578063b88d4fde11610064578063b88d4fde146103e1578063bfb231d2146104b4578063d96a094a146104f7578063e985e9c514610514578063f2fde38b1461054f57610114565b8063715018a6146103525780637749cf23146103675780638da5cb5b1461037c5780638f32d59b14610391578063a22cb465146103a657610114565b806323b872dd116100e757806323b872dd1461021e5780633129e7731461026157806342842e0e146102b25780636352211e146102f557806370a082311461031f57610114565b806301ffc9a714610119578063081812fc14610161578063095ea7b3146101a757806317fb8594146101e2575b600080fd5b34801561012557600080fd5b5061014d6004803603602081101561013c57600080fd5b50356001600160e01b031916610582565b604080519115158252519081900360200190f35b34801561016d57600080fd5b5061018b6004803603602081101561018457600080fd5b50356105a1565b604080516001600160a01b039092168252519081900360200190f35b3480156101b357600080fd5b506101e0600480360360408110156101ca57600080fd5b506001600160a01b038135169060200135610603565b005b3480156101ee57600080fd5b5061020c6004803603602081101561020557600080fd5b503561072b565b60408051918252519081900360200190f35b34801561022a57600080fd5b506101e06004803603606081101561024157600080fd5b506001600160a01b0381358116916020810135909116906040013561081f565b34801561026d57600080fd5b5061028b6004803603602081101561028457600080fd5b503561087b565b6040805193845291151560208401526001600160a01b031682820152519081900360600190f35b3480156102be57600080fd5b506101e0600480360360608110156102d557600080fd5b506001600160a01b03813581169160208101359091169060400135610930565b34801561030157600080fd5b5061018b6004803603602081101561031857600080fd5b503561094b565b34801561032b57600080fd5b5061020c6004803603602081101561034257600080fd5b50356001600160a01b031661099f565b34801561035e57600080fd5b506101e0610a07565b34801561037357600080fd5b5061020c610aaa565b34801561038857600080fd5b5061018b610ab0565b34801561039d57600080fd5b5061014d610abf565b3480156103b257600080fd5b506101e0600480360360408110156103c957600080fd5b506001600160a01b0381351690602001351515610ae3565b3480156103ed57600080fd5b506101e06004803603608081101561040457600080fd5b6001600160a01b0382358116926020810135909116916040820135919081019060808101606082013564010000000081111561043f57600080fd5b82018360208201111561045157600080fd5b8035906020019184600183028401116401000000008311171561047357600080fd5b91908080601f016020809104026020016040519081016040528093929190818152602001838380828437600092019190915250929550610be8945050505050565b3480156104c057600080fd5b506104de600480360360208110156104d757600080fd5b5035610c46565b6040805192835290151560208301528051918290030190f35b6101e06004803603602081101561050d57600080fd5b5035610c74565b34801561052057600080fd5b5061014d6004803603604081101561053757600080fd5b506001600160a01b0381358116916020013516610d0b565b34801561055b57600080fd5b506101e06004803603602081101561057257600080fd5b50356001600160a01b0316610d39565b6001600160e01b03191660009081526001602052604090205460ff1690565b60006105ac82610d9e565b6105e75760405162461bcd60e51b815260040180806020018281038252602c8152602001806116b1602c913960400191505060405180910390fd5b506000908152600360205260409020546001600160a01b031690565b600061060e8261094b565b9050806001600160a01b0316836001600160a01b031614156106615760405162461bcd60e51b81526004018080602001828103825260218152602001806117066021913960400191505060405180910390fd5b806001600160a01b0316610673610dbb565b6001600160a01b0316148061069457506106948161068f610dbb565b610d0b565b6106cf5760405162461bcd60e51b81526004018080602001828103825260388152602001806116266038913960400191505060405180910390fd5b60008281526003602052604080822080546001600160a01b0319166001600160a01b0387811691821790925591518593918516917f8c5be1e5ebec7d5bd14f71427d1e84f3dd0314c0f7b2291e5b200ac8c7c3b92591a4505050565b6000610735610abf565b610786576040805162461bcd60e51b815260206004820181905260248201527f4f776e61626c653a2063616c6c6572206973206e6f7420746865206f776e6572604482015290519081900360640190fd5b60408051808201909152828152600060208201818152600680546001810182559281905292517ff652222313e28459528d920b65115c16c04f3efc82aaedc97be59f3f377c0d3f600290930292830155517ff652222313e28459528d920b65115c16c04f3efc82aaedc97be59f3f377c0d40909101805460ff191691151591909117905554600019016108193382610dbf565b92915050565b61083061082a610dbb565b82610ef0565b61086b5760405162461bcd60e51b81526004018080602001828103825260318152602001806117276031913960400191505060405180910390fd5b610876838383610f94565b505050565b60008060008360068054905081108015610893575060015b6108d6576040805162461bcd60e51b815260206004820152600f60248201526e125b9d985b1a59081a5d195b481a59608a1b604482015290519081900360640190fd5b600685815481106108e357fe5b9060005260206000209060020201600001546006868154811061090257fe5b600091825260209091206001600290920201015460ff166109228761094b565b935093509350509193909250565b61087683838360405180602001604052806000815250610be8565b6000818152600260205260408120546001600160a01b0316806108195760405162461bcd60e51b81526004018080602001828103825260298152602001806116886029913960400191505060405180910390fd5b60006001600160a01b0382166109e65760405162461bcd60e51b815260040180806020018281038252602a81526020018061165e602a913960400191505060405180910390fd5b6001600160a01b0382166000908152600460205260409020610819906110d8565b610a0f610abf565b610a60576040805162461bcd60e51b815260206004820181905260248201527f4f776e61626c653a2063616c6c6572206973206e6f7420746865206f776e6572604482015290519081900360640190fd5b600080546040516001600160a01b03909116907f8be0079c531659141344cd1fd0a4f28419497f9722a3daafe3b4186f6b6457e0908390a3600080546001600160a01b0319169055565b60065490565b6000546001600160a01b031690565b600080546001600160a01b0316610ad4610dbb565b6001600160a01b031614905090565b610aeb610dbb565b6001600160a01b0316826001600160a01b03161415610b51576040805162461bcd60e51b815260206004820152601960248201527f4552433732313a20617070726f766520746f2063616c6c657200000000000000604482015290519081900360640190fd5b8060056000610b5e610dbb565b6001600160a01b03908116825260208083019390935260409182016000908120918716808252919093529120805460ff191692151592909217909155610ba2610dbb565b60408051841515815290516001600160a01b0392909216917f17307eab39ab6107e8899845ad3d59bd9653f200f220920489ca2b5937696c319181900360200190a35050565b610bf9610bf3610dbb565b83610ef0565b610c345760405162461bcd60e51b81526004018080602001828103825260318152602001806117276031913960400191505060405180910390fd5b610c40848484846110dc565b50505050565b60068181548110610c5357fe5b60009182526020909120600290910201805460019091015490915060ff1682565b8060068181548110610c8257fe5b600091825260209091206001600290920201015460ff1615610cd6576040805162461bcd60e51b81526020600482015260086024820152671cdbdb19081bdd5d60c21b604482015290519081900360640190fd5b600160068381548110610ce557fe5b60009182526020909120600290910201600101805460ff19169115159190911790555050565b6001600160a01b03918216600090815260056020908152604080832093909416825291909152205460ff1690565b610d41610abf565b610d92576040805162461bcd60e51b815260206004820181905260248201527f4f776e61626c653a2063616c6c6572206973206e6f7420746865206f776e6572604482015290519081900360640190fd5b610d9b8161112e565b50565b6000908152600260205260409020546001600160a01b0316151590565b3390565b6001600160a01b038216610e1a576040805162461bcd60e51b815260206004820181905260248201527f4552433732313a206d696e7420746f20746865207a65726f2061646472657373604482015290519081900360640190fd5b610e2381610d9e565b15610e75576040805162461bcd60e51b815260206004820152601c60248201527f4552433732313a20746f6b656e20616c7265616479206d696e74656400000000604482015290519081900360640190fd5b600081815260026020908152604080832080546001600160a01b0319166001600160a01b038716908117909155835260049091529020610eb4906111ce565b60405181906001600160a01b038416906000907fddf252ad1be2c89b69c2b068fc378daa952ba7f163c4a11628f55a4df523b3ef908290a45050565b6000610efb82610d9e565b610f365760405162461bcd60e51b815260040180806020018281038252602c8152602001806115fa602c913960400191505060405180910390fd5b6000610f418361094b565b9050806001600160a01b0316846001600160a01b03161480610f7c5750836001600160a01b0316610f71846105a1565b6001600160a01b0316145b80610f8c5750610f8c8185610d0b565b949350505050565b826001600160a01b0316610fa78261094b565b6001600160a01b031614610fec5760405162461bcd60e51b81526004018080602001828103825260298152602001806116dd6029913960400191505060405180910390fd5b6001600160a01b0382166110315760405162461bcd60e51b81526004018080602001828103825260248152602001806115d66024913960400191505060405180910390fd5b61103a816111d7565b6001600160a01b038316600090815260046020526040902061105b90611212565b6001600160a01b038216600090815260046020526040902061107c906111ce565b60008181526002602052604080822080546001600160a01b0319166001600160a01b0386811691821790925591518493918716917fddf252ad1be2c89b69c2b068fc378daa952ba7f163c4a11628f55a4df523b3ef91a4505050565b5490565b6110e7848484610f94565b6110f384848484611229565b610c405760405162461bcd60e51b815260040180806020018281038252603281526020018061157e6032913960400191505060405180910390fd5b6001600160a01b0381166111735760405162461bcd60e51b81526004018080602001828103825260268152602001806115b06026913960400191505060405180910390fd5b600080546040516001600160a01b03808516939216917f8be0079c531659141344cd1fd0a4f28419497f9722a3daafe3b4186f6b6457e091a3600080546001600160a01b0319166001600160a01b0392909216919091179055565b80546001019055565b6000818152600360205260409020546001600160a01b031615610d9b57600090815260036020526040902080546001600160a01b0319169055565b805461122590600163ffffffff61146416565b9055565b600061123d846001600160a01b03166114ad565b61124957506001610f8c565b600060606001600160a01b038616630a85bd0160e11b611267610dbb565b89888860405160240180856001600160a01b03166001600160a01b03168152602001846001600160a01b03166001600160a01b0316815260200183815260200180602001828103825283818151815260200191508051906020019080838360005b838110156112e05781810151838201526020016112c8565b50505050905090810190601f16801561130d5780820380516001836020036101000a031916815260200191505b5060408051601f198184030181529181526020820180516001600160e01b03166001600160e01b0319909a16999099178952518151919890975087965094509250829150849050835b602083106113755780518252601f199092019160209182019101611356565b6001836020036101000a0380198251168184511680821785525050505050509050019150506000604051808303816000865af19150503d80600081146113d7576040519150601f19603f3d011682016040523d82523d6000602084013e6113dc565b606091505b50915091508161142d578051156113f65780518082602001fd5b60405162461bcd60e51b815260040180806020018281038252603281526020018061157e6032913960400191505060405180910390fd5b600081806020019051602081101561144457600080fd5b50516001600160e01b031916630a85bd0160e11b149350610f8c92505050565b60006114a683836040518060400160405280601e81526020017f536166654d6174683a207375627472616374696f6e206f766572666c6f7700008152506114e6565b9392505050565b6000813f7fc5d2460186f7233c927e7db2dcc703c0e500b653ca82273b7bfad8045d85a470818114801590610f8c575050151592915050565b600081848411156115755760405162461bcd60e51b81526004018080602001828103825283818151815260200191508051906020019080838360005b8381101561153a578181015183820152602001611522565b50505050905090810190601f1680156115675780820380516001836020036101000a031916815260200191505b509250505060405180910390fd5b50505090039056fe4552433732313a207472616e7366657220746f206e6f6e20455243373231526563656976657220696d706c656d656e7465724f776e61626c653a206e6577206f776e657220697320746865207a65726f20616464726573734552433732313a207472616e7366657220746f20746865207a65726f20616464726573734552433732313a206f70657261746f7220717565727920666f72206e6f6e6578697374656e7420746f6b656e4552433732313a20617070726f76652063616c6c6572206973206e6f74206f776e6572206e6f7220617070726f76656420666f7220616c6c4552433732313a2062616c616e636520717565727920666f7220746865207a65726f20616464726573734552433732313a206f776e657220717565727920666f72206e6f6e6578697374656e7420746f6b656e4552433732313a20617070726f76656420717565727920666f72206e6f6e6578697374656e7420746f6b656e4552433732313a207472616e73666572206f6620746f6b656e2074686174206973206e6f74206f776e4552433732313a20617070726f76616c20746f2063757272656e74206f776e65724552433732313a207472616e736665722063616c6c6572206973206e6f74206f776e6572206e6f7220617070726f766564a265627a7a723158204cdceeb15dccaf16a82f1bc1d226676dde0371649ae0e7349132e38d55030f9764736f6c63430005110032",
  "source": "pragma solidity ^0.5.0;\n\nimport \"../node_modules/@openzeppelin/contracts/ownership/Ownable.sol\";\nimport \"../node_modules/@openzeppelin/contracts/token/ERC721/ERC721.sol\";\n\n\ncontract ItemToken is Ownable, ERC721 {\n    struct Item {\n        uint256 price;\n        bool sold;\n    }\n\n    Item[] public items;\n\n    constructor() public {}\n\n    function mintItem(uint256 _price) public onlyOwner returns (uint256) {\n        items.push(Item(_price, false));\n        uint256 newTokenId = items.length - 1;\n        _mint(msg.sender, newTokenId);\n        return newTokenId;\n    }\n\n    modifier validItemId(uint256 itemId) {\n        require(itemId < items.length && itemId >= 0, \"Invalid item id\");\n        _;\n    }\n\n    modifier unsold(uint256 _id) {\n        require(!items[_id].sold, \"sold out\");\n        _;\n    }\n\n    function getItem(uint256 _id) public view validItemId(_id) returns (uint256, bool, address) {\n        return (items[_id].price, items[_id].sold, ownerOf(_id));\n    }\n\n    function getItemCount() public view returns (uint256) {\n        return items.length;\n    }\n\n    function buy(uint256 _id) public payable unsold(_id) {\n        items[_id].sold = true;\n    }\n}\n",
  "sourcePath": "/Users/tomoki/axelmark_kadai/item-shop/contracts/ItemToken.sol",
  "compiler": {
    "name": "solc",
    "version": "0.5.17+commit.d19bba13.Emscripten.clang"
  },
  "schemaVersion": "3.0.23",
  "updatedAt": "2020-04-21T08:58:13.275Z",
  "networkType": "ethereum",
  "devdoc": {
    "methods": {
      "approve(address,uint256)": {
        "details": "Approves another address to transfer the given token ID The zero address indicates there is no approved address. There can only be one approved address per token at a given time. Can only be called by the token owner or an approved operator.",
        "params": {
          "to": "address to be approved for the given token ID",
          "tokenId": "uint256 ID of the token to be approved"
        }
      },
      "balanceOf(address)": {
        "details": "Gets the balance of the specified address.",
        "params": {
          "owner": "address to query the balance of"
        },
        "return": "uint256 representing the amount owned by the passed address"
      },
      "getApproved(uint256)": {
        "details": "Gets the approved address for a token ID, or zero if no address set Reverts if the token ID does not exist.",
        "params": {
          "tokenId": "uint256 ID of the token to query the approval of"
        },
        "return": "address currently approved for the given token ID"
      },
      "isApprovedForAll(address,address)": {
        "details": "Tells whether an operator is approved by a given owner.",
        "params": {
          "operator": "operator address which you want to query the approval of",
          "owner": "owner address which you want to query the approval of"
        },
        "return": "bool whether the given operator is approved by the given owner"
      },
      "isOwner()": {
        "details": "Returns true if the caller is the current owner."
      },
      "owner()": {
        "details": "Returns the address of the current owner."
      },
      "ownerOf(uint256)": {
        "details": "Gets the owner of the specified token ID.",
        "params": {
          "tokenId": "uint256 ID of the token to query the owner of"
        },
        "return": "address currently marked as the owner of the given token ID"
      },
      "renounceOwnership()": {
        "details": "Leaves the contract without owner. It will not be possible to call `onlyOwner` functions anymore. Can only be called by the current owner.     * NOTE: Renouncing ownership will leave the contract without an owner, thereby removing any functionality that is only available to the owner."
      },
      "safeTransferFrom(address,address,uint256)": {
        "details": "Safely transfers the ownership of a given token ID to another address If the target address is a contract, it must implement {IERC721Receiver-onERC721Received}, which is called upon a safe transfer, and return the magic value `bytes4(keccak256(\"onERC721Received(address,address,uint256,bytes)\"))`; otherwise, the transfer is reverted. Requires the msg.sender to be the owner, approved, or operator",
        "params": {
          "from": "current owner of the token",
          "to": "address to receive the ownership of the given token ID",
          "tokenId": "uint256 ID of the token to be transferred"
        }
      },
      "safeTransferFrom(address,address,uint256,bytes)": {
        "details": "Safely transfers the ownership of a given token ID to another address If the target address is a contract, it must implement {IERC721Receiver-onERC721Received}, which is called upon a safe transfer, and return the magic value `bytes4(keccak256(\"onERC721Received(address,address,uint256,bytes)\"))`; otherwise, the transfer is reverted. Requires the _msgSender() to be the owner, approved, or operator",
        "params": {
          "_data": "bytes data to send along with a safe transfer check",
          "from": "current owner of the token",
          "to": "address to receive the ownership of the given token ID",
          "tokenId": "uint256 ID of the token to be transferred"
        }
      },
      "setApprovalForAll(address,bool)": {
        "details": "Sets or unsets the approval of a given operator An operator is allowed to transfer all tokens of the sender on their behalf.",
        "params": {
          "approved": "representing the status of the approval to be set",
          "to": "operator address to set the approval"
        }
      },
      "supportsInterface(bytes4)": {
        "details": "See {IERC165-supportsInterface}.     * Time complexity O(1), guaranteed to always use less than 30 000 gas."
      },
      "transferFrom(address,address,uint256)": {
        "details": "Transfers the ownership of a given token ID to another address. Usage of this method is discouraged, use {safeTransferFrom} whenever possible. Requires the msg.sender to be the owner, approved, or operator.",
        "params": {
          "from": "current owner of the token",
          "to": "address to receive the ownership of the given token ID",
          "tokenId": "uint256 ID of the token to be transferred"
        }
      },
      "transferOwnership(address)": {
        "details": "Transfers ownership of the contract to a new account (`newOwner`). Can only be called by the current owner."
      }
    }
  },
  "userdoc": {
    "methods": {}
  }
}