{
  "contractName": "ItemShop",
  "abi": [
    {
      "inputs": [
        {
          "internalType": "contract ItemToken",
          "name": "_itemToken",
          "type": "address"
        }
      ],
      "payable": false,
      "stateMutability": "nonpayable",
      "type": "constructor"
    },
    {
      "anonymous": false,
      "inputs": [
        {
          "indexed": true,
          "internalType": "address",
          "name": "previousOwner",
          "type": "address"
        },
        {
          "indexed": true,
          "internalType": "address",
          "name": "newOwner",
          "type": "address"
        }
      ],
      "name": "OwnershipTransferred",
      "type": "event"
    },
    {
      "payable": true,
      "stateMutability": "payable",
      "type": "fallback"
    },
    {
      "constant": true,
      "inputs": [],
      "name": "isOwner",
      "outputs": [
        {
          "internalType": "bool",
          "name": "",
          "type": "bool"
        }
      ],
      "payable": false,
      "stateMutability": "view",
      "type": "function"
    },
    {
      "constant": true,
      "inputs": [],
      "name": "itemToken",
      "outputs": [
        {
          "internalType": "contract ItemToken",
          "name": "",
          "type": "address"
        }
      ],
      "payable": false,
      "stateMutability": "view",
      "type": "function"
    },
    {
      "constant": true,
      "inputs": [],
      "name": "owner",
      "outputs": [
        {
          "internalType": "address",
          "name": "",
          "type": "address"
        }
      ],
      "payable": false,
      "stateMutability": "view",
      "type": "function"
    },
    {
      "constant": false,
      "inputs": [],
      "name": "renounceOwnership",
      "outputs": [],
      "payable": false,
      "stateMutability": "nonpayable",
      "type": "function"
    },
    {
      "constant": false,
      "inputs": [
        {
          "internalType": "address",
          "name": "newOwner",
          "type": "address"
        }
      ],
      "name": "transferOwnership",
      "outputs": [],
      "payable": false,
      "stateMutability": "nonpayable",
      "type": "function"
    },
    {
      "constant": false,
      "inputs": [
        {
          "internalType": "uint256",
          "name": "_price",
          "type": "uint256"
        }
      ],
      "name": "mintItem",
      "outputs": [],
      "payable": false,
      "stateMutability": "nonpayable",
      "type": "function"
    },
    {
      "constant": false,
      "inputs": [
        {
          "internalType": "uint256",
          "name": "_id",
          "type": "uint256"
        }
      ],
      "name": "buy",
      "outputs": [],
      "payable": true,
      "stateMutability": "payable",
      "type": "function"
    },
    {
      "constant": false,
      "inputs": [],
      "name": "withdrawPayments",
      "outputs": [],
      "payable": false,
      "stateMutability": "nonpayable",
      "type": "function"
    },
    {
      "constant": true,
      "inputs": [
        {
          "internalType": "uint256",
          "name": "_id",
          "type": "uint256"
        }
      ],
      "name": "getItem",
      "outputs": [
        {
          "internalType": "uint256",
          "name": "",
          "type": "uint256"
        },
        {
          "internalType": "bool",
          "name": "",
          "type": "bool"
        }
      ],
      "payable": false,
      "stateMutability": "view",
      "type": "function"
    },
    {
      "constant": true,
      "inputs": [],
      "name": "getItemCount",
      "outputs": [
        {
          "internalType": "uint256",
          "name": "",
          "type": "uint256"
        }
      ],
      "payable": false,
      "stateMutability": "view",
      "type": "function"
    }
  ],
  "bytecode": "0x608060405234801561001057600080fd5b506040516109ea3803806109ea8339818101604052602081101561003357600080fd5b505160006100486001600160e01b036100b716565b600080546001600160a01b0319166001600160a01b0383169081178255604051929350917f8be0079c531659141344cd1fd0a4f28419497f9722a3daafe3b4186f6b6457e0908290a350600180546001600160a01b0319166001600160a01b03929092169190911790556100bb565b3390565b610920806100ca6000396000f3fe6080604052600436106100915760003560e01c8063777f544011610059578063777f5440146101515780638da5cb5b146101825780638f32d59b14610197578063d96a094a146101c0578063f2fde38b146101dd57610091565b806317fb8594146100935780633129e773146100bd5780636103d70b14610100578063715018a6146101155780637749cf231461012a575b005b34801561009f57600080fd5b50610091600480360360208110156100b657600080fd5b5035610210565b3480156100c957600080fd5b506100e7600480360360208110156100e057600080fd5b50356102bf565b6040805192835290151560208301528051918290030190f35b34801561010c57600080fd5b50610091610348565b34801561012157600080fd5b506100916103a2565b34801561013657600080fd5b5061013f610433565b60408051918252519081900360200190f35b34801561015d57600080fd5b506101666104a9565b604080516001600160a01b039092168252519081900360200190f35b34801561018e57600080fd5b506101666104b8565b3480156101a357600080fd5b506101ac6104c7565b604080519115158252519081900360200190f35b610091600480360360208110156101d657600080fd5b50356104eb565b3480156101e957600080fd5b506100916004803603602081101561020057600080fd5b50356001600160a01b0316610689565b6102186104c7565b610257576040805162461bcd60e51b815260206004820181905260248201526000805160206108cc833981519152604482015290519081900360640190fd5b600154604080516305fee16560e21b81526004810184905290516001600160a01b03909216916317fb85949160248082019260009290919082900301818387803b1580156102a457600080fd5b505af11580156102b8573d6000803e3d6000fd5b5050505050565b60015460408051633129e77360e01b815260048101849052815160009384936001600160a01b0390911692633129e7739260248083019392829003018186803b15801561030b57600080fd5b505afa15801561031f573d6000803e3d6000fd5b505050506040513d604081101561033557600080fd5b5080516020909101519092509050915091565b6103506104c7565b61038f576040805162461bcd60e51b815260206004820181905260248201526000805160206108cc833981519152604482015290519081900360640190fd5b6103a033303163ffffffff6106dc16565b565b6103aa6104c7565b6103e9576040805162461bcd60e51b815260206004820181905260248201526000805160206108cc833981519152604482015290519081900360640190fd5b600080546040516001600160a01b03909116907f8be0079c531659141344cd1fd0a4f28419497f9722a3daafe3b4186f6b6457e0908390a3600080546001600160a01b0319169055565b60015460408051637749cf2360e01b815290516000926001600160a01b031691637749cf23916004808301926020929190829003018186803b15801561047857600080fd5b505afa15801561048c573d6000803e3d6000fd5b505050506040513d60208110156104a257600080fd5b5051905090565b6001546001600160a01b031681565b6000546001600160a01b031690565b600080546001600160a01b03166104dc6107c7565b6001600160a01b031614905090565b60015460408051633129e77360e01b81526004810184905281516000936001600160a01b031692633129e7739260248082019391829003018186803b15801561053357600080fd5b505afa158015610547573d6000803e3d6000fd5b505050506040513d604081101561055d57600080fd5b5051905034670de0b6b3a76400008202146105af576040805162461bcd60e51b815260206004820152600d60248201526c496e76616c696420707269636560981b604482015290519081900360640190fd5b60015460408051636cb504a560e11b81526004810185905290516001600160a01b039092169163d96a094a9160248082019260009290919082900301818387803b1580156105fc57600080fd5b505af1158015610610573d6000803e3d6000fd5b505060015460408051632142170760e11b81523060048201523360248201526044810187905290516001600160a01b0390921693506342842e0e925060648082019260009290919082900301818387803b15801561066d57600080fd5b505af1158015610681573d6000803e3d6000fd5b505050505050565b6106916104c7565b6106d0576040805162461bcd60e51b815260206004820181905260248201526000805160206108cc833981519152604482015290519081900360640190fd5b6106d9816107cb565b50565b3031811115610732576040805162461bcd60e51b815260206004820152601d60248201527f416464726573733a20696e73756666696369656e742062616c616e6365000000604482015290519081900360640190fd5b6040516000906001600160a01b0384169083908381818185875af1925050503d806000811461077d576040519150601f19603f3d011682016040523d82523d6000602084013e610782565b606091505b50509050806107c25760405162461bcd60e51b815260040180806020018281038252603a815260200180610892603a913960400191505060405180910390fd5b505050565b3390565b6001600160a01b0381166108105760405162461bcd60e51b815260040180806020018281038252602681526020018061086c6026913960400191505060405180910390fd5b600080546040516001600160a01b03808516939216917f8be0079c531659141344cd1fd0a4f28419497f9722a3daafe3b4186f6b6457e091a3600080546001600160a01b0319166001600160a01b039290921691909117905556fe4f776e61626c653a206e6577206f776e657220697320746865207a65726f2061646472657373416464726573733a20756e61626c6520746f2073656e642076616c75652c20726563697069656e74206d617920686176652072657665727465644f776e61626c653a2063616c6c6572206973206e6f7420746865206f776e6572a265627a7a723158206494debc642edd53447bc4489e534734817436c045b7d35b63d4ea704e29d8d664736f6c63430005110032",
  "source": "pragma solidity ^0.5.0;\n\nimport \"./ItemToken.sol\";\nimport \"../node_modules/@openzeppelin/contracts/ownership/Ownable.sol\";\nimport \"../node_modules/@openzeppelin/contracts/utils/Address.sol\";\n\n\ncontract ItemShop is Ownable {\n    using Address for address payable;\n\n    ItemToken public itemToken;\n\n    constructor(ItemToken _itemToken) public {\n        itemToken = _itemToken;\n    }\n\n    function mintItem(uint256 _price) public onlyOwner {\n        itemToken.mintItem(_price);\n    }\n\n    function buy(uint256 _id) public payable {\n        uint256 price;\n        (price, ) = itemToken.getItem(_id);\n        require(msg.value == price * 1 ether, \"Invalid price\");\n        itemToken.buy(_id);\n        itemToken.safeTransferFrom(address(this), msg.sender, _id);\n    }\n\n    function withdrawPayments() public onlyOwner {\n        msg.sender.sendValue(address(this).balance);\n    }\n\n    function getItem(uint256 _id) public view returns (uint256, bool) {\n        return itemToken.getItem(_id);\n    }\n\n    function getItemCount() public view returns (uint256) {\n        return itemToken.getItemCount();\n    }\n\n    function() external payable {} // sendValue's tests require the contract to hold Ether\n}\n",
  "sourcePath": "/Users/tomoki/axelmark_kadai/item-shop/contracts/ItemShop.sol",
  "compiler": {
    "name": "solc",
    "version": "0.5.17+commit.d19bba13.Emscripten.clang"
  },
  "schemaVersion": "3.0.23",
  "updatedAt": "2020-04-15T07:55:57.195Z",
  "networkType": "ethereum",
  "devdoc": {
    "methods": {
      "isOwner()": {
        "details": "Returns true if the caller is the current owner."
      },
      "owner()": {
        "details": "Returns the address of the current owner."
      },
      "renounceOwnership()": {
        "details": "Leaves the contract without owner. It will not be possible to call `onlyOwner` functions anymore. Can only be called by the current owner.     * NOTE: Renouncing ownership will leave the contract without an owner, thereby removing any functionality that is only available to the owner."
      },
      "transferOwnership(address)": {
        "details": "Transfers ownership of the contract to a new account (`newOwner`). Can only be called by the current owner."
      }
    }
  },
  "userdoc": {
    "methods": {}
  }
}