{
  "contractName": "ItemShop",
  "abi": [
    {
      "inputs": [
        {
          "internalType": "contract ItemToken",
          "name": "_itemToken",
          "type": "address"
        },
        {
          "internalType": "uint256",
          "name": "_secondsPerBlock",
          "type": "uint256"
        }
      ],
      "payable": false,
      "stateMutability": "nonpayable",
      "type": "constructor"
    },
    {
      "anonymous": false,
      "inputs": [
        {
          "indexed": true,
          "internalType": "address",
          "name": "previousOwner",
          "type": "address"
        },
        {
          "indexed": true,
          "internalType": "address",
          "name": "newOwner",
          "type": "address"
        }
      ],
      "name": "OwnershipTransferred",
      "type": "event"
    },
    {
      "payable": true,
      "stateMutability": "payable",
      "type": "fallback"
    },
    {
      "constant": true,
      "inputs": [],
      "name": "isOwner",
      "outputs": [
        {
          "internalType": "bool",
          "name": "",
          "type": "bool"
        }
      ],
      "payable": false,
      "stateMutability": "view",
      "type": "function"
    },
    {
      "constant": true,
      "inputs": [],
      "name": "itemToken",
      "outputs": [
        {
          "internalType": "contract ItemToken",
          "name": "",
          "type": "address"
        }
      ],
      "payable": false,
      "stateMutability": "view",
      "type": "function"
    },
    {
      "constant": true,
      "inputs": [],
      "name": "owner",
      "outputs": [
        {
          "internalType": "address",
          "name": "",
          "type": "address"
        }
      ],
      "payable": false,
      "stateMutability": "view",
      "type": "function"
    },
    {
      "constant": false,
      "inputs": [],
      "name": "renounceOwnership",
      "outputs": [],
      "payable": false,
      "stateMutability": "nonpayable",
      "type": "function"
    },
    {
      "constant": false,
      "inputs": [
        {
          "internalType": "address",
          "name": "newOwner",
          "type": "address"
        }
      ],
      "name": "transferOwnership",
      "outputs": [],
      "payable": false,
      "stateMutability": "nonpayable",
      "type": "function"
    },
    {
      "constant": true,
      "inputs": [
        {
          "internalType": "uint256",
          "name": "",
          "type": "uint256"
        }
      ],
      "name": "valid",
      "outputs": [
        {
          "internalType": "bool",
          "name": "",
          "type": "bool"
        }
      ],
      "payable": false,
      "stateMutability": "view",
      "type": "function"
    },
    {
      "constant": false,
      "inputs": [
        {
          "internalType": "uint256",
          "name": "tokenId",
          "type": "uint256"
        },
        {
          "internalType": "uint256",
          "name": "startPrice",
          "type": "uint256"
        },
        {
          "internalType": "uint256",
          "name": "endPrice",
          "type": "uint256"
        },
        {
          "internalType": "uint256",
          "name": "duration",
          "type": "uint256"
        }
      ],
      "name": "exhibit",
      "outputs": [],
      "payable": false,
      "stateMutability": "nonpayable",
      "type": "function"
    },
    {
      "constant": true,
      "inputs": [
        {
          "internalType": "uint256",
          "name": "_id",
          "type": "uint256"
        }
      ],
      "name": "getAuction",
      "outputs": [
        {
          "internalType": "uint256",
          "name": "",
          "type": "uint256"
        },
        {
          "internalType": "uint256",
          "name": "",
          "type": "uint256"
        },
        {
          "internalType": "uint256",
          "name": "",
          "type": "uint256"
        },
        {
          "internalType": "uint256",
          "name": "",
          "type": "uint256"
        },
        {
          "internalType": "address",
          "name": "",
          "type": "address"
        },
        {
          "internalType": "uint256",
          "name": "",
          "type": "uint256"
        }
      ],
      "payable": false,
      "stateMutability": "view",
      "type": "function"
    },
    {
      "constant": true,
      "inputs": [
        {
          "internalType": "uint256",
          "name": "startPrice",
          "type": "uint256"
        },
        {
          "internalType": "uint256",
          "name": "endPrice",
          "type": "uint256"
        },
        {
          "internalType": "uint256",
          "name": "duration",
          "type": "uint256"
        },
        {
          "internalType": "uint256",
          "name": "createdAt",
          "type": "uint256"
        },
        {
          "internalType": "uint256",
          "name": "nowSecond",
          "type": "uint256"
        }
      ],
      "name": "getCurrentPrice",
      "outputs": [
        {
          "internalType": "uint256",
          "name": "",
          "type": "uint256"
        }
      ],
      "payable": false,
      "stateMutability": "pure",
      "type": "function"
    },
    {
      "constant": true,
      "inputs": [
        {
          "internalType": "uint256",
          "name": "_id",
          "type": "uint256"
        }
      ],
      "name": "getCurrentPriceById",
      "outputs": [
        {
          "internalType": "uint256",
          "name": "",
          "type": "uint256"
        }
      ],
      "payable": false,
      "stateMutability": "view",
      "type": "function"
    },
    {
      "constant": false,
      "inputs": [
        {
          "internalType": "uint256",
          "name": "_price",
          "type": "uint256"
        }
      ],
      "name": "mintItem",
      "outputs": [],
      "payable": false,
      "stateMutability": "nonpayable",
      "type": "function"
    },
    {
      "constant": false,
      "inputs": [
        {
          "internalType": "uint256",
          "name": "_id",
          "type": "uint256"
        }
      ],
      "name": "buy",
      "outputs": [],
      "payable": true,
      "stateMutability": "payable",
      "type": "function"
    },
    {
      "constant": false,
      "inputs": [],
      "name": "withdrawPayments",
      "outputs": [],
      "payable": false,
      "stateMutability": "nonpayable",
      "type": "function"
    },
    {
      "constant": true,
      "inputs": [
        {
          "internalType": "uint256",
          "name": "_id",
          "type": "uint256"
        }
      ],
      "name": "getItem",
      "outputs": [
        {
          "internalType": "uint256",
          "name": "",
          "type": "uint256"
        },
        {
          "internalType": "bool",
          "name": "",
          "type": "bool"
        },
        {
          "internalType": "address",
          "name": "",
          "type": "address"
        }
      ],
      "payable": false,
      "stateMutability": "view",
      "type": "function"
    },
    {
      "constant": true,
      "inputs": [],
      "name": "getItemCount",
      "outputs": [
        {
          "internalType": "uint256",
          "name": "",
          "type": "uint256"
        }
      ],
      "payable": false,
      "stateMutability": "view",
      "type": "function"
    },
    {
      "constant": true,
      "inputs": [],
      "name": "getAuctionCount",
      "outputs": [
        {
          "internalType": "uint256",
          "name": "",
          "type": "uint256"
        }
      ],
      "payable": false,
      "stateMutability": "view",
      "type": "function"
    }
  ],
  "bytecode": "0x608060405234801561001057600080fd5b506040516112543803806112548339818101604052604081101561003357600080fd5b508051602090910151600061004f6001600160e01b036100c216565b600080546001600160a01b0319166001600160a01b0383169081178255604051929350917f8be0079c531659141344cd1fd0a4f28419497f9722a3daafe3b4186f6b6457e0908290a350600180546001600160a01b0319166001600160a01b0393909316929092179091556002556100c6565b3390565b61117f806100d56000396000f3fe6080604052600436106100f35760003560e01c80638da5cb5b1161008a578063bf8712c511610059578063bf8712c51461033e578063c44e664014610368578063d96a094a1461037d578063f2fde38b1461039a576100f3565b80638da5cb5b146102825780638f32d59b14610297578063a792100e146102c0578063b4a8d584146102fc576100f3565b8063715018a6116100c6578063715018a6146101c15780637749cf23146101d6578063777f5440146101eb57806378bd79351461021c576100f3565b806317fb8594146100f55780633129e7731461011f5780636103d70b14610170578063707dc60f14610185575b005b34801561010157600080fd5b506100f36004803603602081101561011857600080fd5b50356103cd565b34801561012b57600080fd5b506101496004803603602081101561014257600080fd5b503561052f565b6040805193845291151560208401526001600160a01b031682820152519081900360600190f35b34801561017c57600080fd5b506100f36105c6565b34801561019157600080fd5b506101af600480360360208110156101a857600080fd5b5035610620565b60408051918252519081900360200190f35b3480156101cd57600080fd5b506100f3610687565b3480156101e257600080fd5b506101af610718565b3480156101f757600080fd5b5061020061078e565b604080516001600160a01b039092168252519081900360200190f35b34801561022857600080fd5b506102466004803603602081101561023f57600080fd5b503561079d565b6040805196875260208701959095528585019390935260608501919091526001600160a01b0316608084015260a0830152519081900360c00190f35b34801561028e57600080fd5b50610200610859565b3480156102a357600080fd5b506102ac610868565b604080519115158252519081900360200190f35b3480156102cc57600080fd5b506100f3600480360360808110156102e357600080fd5b508035906020810135906040810135906060013561088c565b34801561030857600080fd5b506101af600480360360a081101561031f57600080fd5b5080359060208101359060408101359060608101359060800135610c7e565b34801561034a57600080fd5b506102ac6004803603602081101561036157600080fd5b5035610cb5565b34801561037457600080fd5b506101af610cca565b6100f36004803603602081101561039357600080fd5b5035610cd0565b3480156103a657600080fd5b506100f3600480360360208110156103bd57600080fd5b50356001600160a01b0316610e56565b6103d5610868565b610414576040805162461bcd60e51b815260206004820181905260248201526000805160206110fe833981519152604482015290519081900360640190fd5b600154604080516305fee16560e21b81526004810184905290516000926001600160a01b0316916317fb859491602480830192602092919082900301818787803b15801561046157600080fd5b505af1158015610475573d6000803e3d6000fd5b505050506040513d602081101561048b57600080fd5b50516001549091506001600160a01b03166342842e0e306104aa610859565b846040518463ffffffff1660e01b815260040180846001600160a01b03166001600160a01b03168152602001836001600160a01b03166001600160a01b031681526020018281526020019350505050600060405180830381600087803b15801561051357600080fd5b505af1158015610527573d6000803e3d6000fd5b505050505050565b60015460408051633129e77360e01b8152600481018490529051600092839283926001600160a01b0390921691633129e77391602480820192606092909190829003018186803b15801561058257600080fd5b505afa158015610596573d6000803e3d6000fd5b505050506040513d60608110156105ac57600080fd5b508051602082015160409092015190969195509350915050565b6105ce610868565b61060d576040805162461bcd60e51b815260206004820181905260248201526000805160206110fe833981519152604482015290519081900360640190fd5b61061e33303163ffffffff610ea916565b565b60008181526004602052604081205460ff1661063e57506000610682565b60006003838154811061064d57fe5b9060005260206000209060060201905061067e81600101548260020154836003015484600501546002544302610c7e565b9150505b919050565b61068f610868565b6106ce576040805162461bcd60e51b815260206004820181905260248201526000805160206110fe833981519152604482015290519081900360640190fd5b600080546040516001600160a01b03909116907f8be0079c531659141344cd1fd0a4f28419497f9722a3daafe3b4186f6b6457e0908390a3600080546001600160a01b0319169055565b60015460408051637749cf2360e01b815290516000926001600160a01b031691637749cf23916004808301926020929190829003018186803b15801561075d57600080fd5b505afa158015610771573d6000803e3d6000fd5b505050506040513d602081101561078757600080fd5b5051905090565b6001546001600160a01b031681565b60008060008060008060038054905087106107ff576040805162461bcd60e51b815260206004820152601d60248201527f4974656d53686f703a206e6f6e65786973742061756374696f6e206964000000604482015290519081900360640190fd5b60006003888154811061080e57fe5b6000918252602090912060069091020180546001820154600283015460038401546004850154600590950154939d929c50909a5098506001600160a01b039092169650945092505050565b6000546001600160a01b031690565b600080546001600160a01b031661087d610f94565b6001600160a01b031614905090565b610894610718565b84106108e7576040805162461bcd60e51b815260206004820152601a60248201527f4974656d53686f703a206e6f6e6578697374206974656d206964000000000000604482015290519081900360640190fd5b600154604080516331a9108f60e11b815260048101879052905133926001600160a01b031691636352211e916024808301926020929190829003018186803b15801561093257600080fd5b505afa158015610946573d6000803e3d6000fd5b505050506040513d602081101561095c57600080fd5b50516001600160a01b0316146109a35760405162461bcd60e51b81526004018080602001828103825260268152602001806110d86026913960400191505060405180910390fd5b6000831180156109b35750600082115b6109fb576040805162461bcd60e51b81526020600482015260146024820152734974656d53686f703a207a65726f20707269636560601b604482015290519081900360640190fd5b81831015610a3a5760405162461bcd60e51b815260040180806020018281038252602d81526020018061111e602d913960400191505060405180910390fd5b60008111610a8f576040805162461bcd60e51b815260206004820152601760248201527f4974656d53686f703a207a65726f206475726174696f6e000000000000000000604482015290519081900360640190fd5b600254600154604080516331a9108f60e11b815260048101889052905143909302926000926001600160a01b031691636352211e916024808301926020929190829003018186803b158015610ae357600080fd5b505afa158015610af7573d6000803e3d6000fd5b505050506040513d6020811015610b0d57600080fd5b50519050610b19611038565b506040805160c0810182529687526020808801968752878201958652606088019485526001600160a01b039283166080890190815260a08901948552600380546001808201835560009283529a517fc2575a0e9e593c00f959f8c92f12db2869c3395a3b0502d05e2516446f71f85b600683029081019190915599517fc2575a0e9e593c00f959f8c92f12db2869c3395a3b0502d05e2516446f71f85c8b015597517fc2575a0e9e593c00f959f8c92f12db2869c3395a3b0502d05e2516446f71f85d8a015595517fc2575a0e9e593c00f959f8c92f12db2869c3395a3b0502d05e2516446f71f85e890155517fc2575a0e9e593c00f959f8c92f12db2869c3395a3b0502d05e2516446f71f85f880180546001600160a01b031916919094161790925591517fc2575a0e9e593c00f959f8c92f12db2869c3395a3b0502d05e2516446f71f8609095019490945591815260049092529020805460ff19169091179055565b6000828203848110610c935785915050610cac565b85870360008683830281610ca357fe5b04890393505050505b95945050505050565b60046020526000908152604090205460ff1681565b60035490565b60015460408051633129e77360e01b81526004810184905290516000926001600160a01b031691633129e773916024808301926060929190829003018186803b158015610d1c57600080fd5b505afa158015610d30573d6000803e3d6000fd5b505050506040513d6060811015610d4657600080fd5b5051905034670de0b6b3a7640000820214610d98576040805162461bcd60e51b815260206004820152600d60248201526c496e76616c696420707269636560981b604482015290519081900360640190fd5b60015460408051636cb504a560e11b81526004810185905290516001600160a01b039092169163d96a094a9160248082019260009290919082900301818387803b158015610de557600080fd5b505af1158015610df9573d6000803e3d6000fd5b505060015460408051632142170760e11b81523060048201523360248201526044810187905290516001600160a01b0390921693506342842e0e925060648082019260009290919082900301818387803b15801561051357600080fd5b610e5e610868565b610e9d576040805162461bcd60e51b815260206004820181905260248201526000805160206110fe833981519152604482015290519081900360640190fd5b610ea681610f98565b50565b3031811115610eff576040805162461bcd60e51b815260206004820152601d60248201527f416464726573733a20696e73756666696369656e742062616c616e6365000000604482015290519081900360640190fd5b6040516000906001600160a01b0384169083908381818185875af1925050503d8060008114610f4a576040519150601f19603f3d011682016040523d82523d6000602084013e610f4f565b606091505b5050905080610f8f5760405162461bcd60e51b815260040180806020018281038252603a81526020018061109e603a913960400191505060405180910390fd5b505050565b3390565b6001600160a01b038116610fdd5760405162461bcd60e51b81526004018080602001828103825260268152602001806110786026913960400191505060405180910390fd5b600080546040516001600160a01b03808516939216917f8be0079c531659141344cd1fd0a4f28419497f9722a3daafe3b4186f6b6457e091a3600080546001600160a01b0319166001600160a01b0392909216919091179055565b6040518060c001604052806000815260200160008152602001600081526020016000815260200160006001600160a01b0316815260200160008152509056fe4f776e61626c653a206e6577206f776e657220697320746865207a65726f2061646472657373416464726573733a20756e61626c6520746f2073656e642076616c75652c20726563697069656e74206d617920686176652072657665727465644974656d53686f703a2065786968696269742063616c6c6572206973206e6f74206f776e65724f776e61626c653a2063616c6c6572206973206e6f7420746865206f776e65724974656d53686f703a207374617274207072696365206973206c6f776572207468616e20656e64207072696365a265627a7a723158204d1f91224fadf94a57eaf9413a9d3c273ecaccca3a872cf0b6b2dd76f9fd8a2464736f6c63430005110032",
  "source": "pragma solidity ^0.5.0;\n\nimport \"./ItemToken.sol\";\nimport \"../node_modules/@openzeppelin/contracts/ownership/Ownable.sol\";\nimport \"../node_modules/@openzeppelin/contracts/utils/Address.sol\";\n\n\ncontract ItemShop is Ownable {\n    using Address for address payable;\n\n    ItemToken public itemToken;\n\n    uint256 secondsPerBlock;\n\n    struct Auction {\n        uint256 tokenId;\n        uint256 startPrice;\n        uint256 endPrice;\n        uint256 duration;\n        address owner;\n        uint256 createdAt;\n    }\n\n    Auction[] auctions;\n\n    mapping(uint256 => bool) public valid;\n\n    constructor(ItemToken _itemToken, uint256 _secondsPerBlock) public {\n        itemToken = _itemToken;\n        secondsPerBlock = _secondsPerBlock;\n    }\n\n    function exhibit(uint256 tokenId, uint256 startPrice, uint256 endPrice, uint256 duration) public {\n        require(tokenId < getItemCount(), \"ItemShop: nonexist item id\");\n        require(itemToken.ownerOf(tokenId) == msg.sender, \"ItemShop: exihibit caller is not owner\");\n        require(startPrice > 0 && endPrice > 0, \"ItemShop: zero price\");\n        require(startPrice >= endPrice, \"ItemShop: start price is lower than end price\");\n        require(duration > 0, \"ItemShop: zero duration\");\n        uint256 createdAt = block.number * secondsPerBlock;\n        address owner = itemToken.ownerOf(tokenId);\n        Auction memory newAuction = Auction(tokenId, startPrice, endPrice, duration, owner, createdAt);\n        uint256 newId = auctions.push(newAuction) - 1;\n        valid[newId] = true;\n    }\n\n    function getAuction(uint256 _id) public view returns (uint256, uint256, uint256, uint256, address, uint256) {\n        require(_id < auctions.length, \"ItemShop: nonexist auction id\");\n        Auction storage auction = auctions[_id];\n        return (\n            auction.tokenId,\n            auction.startPrice,\n            auction.endPrice,\n            auction.duration,\n            auction.owner,\n            auction.createdAt\n        );\n    }\n\n    function getCurrentPrice(\n        uint256 startPrice,\n        uint256 endPrice,\n        uint256 duration,\n        uint256 createdAt,\n        uint256 nowSecond\n    ) public pure returns (uint256) {\n        uint256 secondsPassed = nowSecond - createdAt;\n        if (secondsPassed >= duration) {\n            return endPrice;\n        }\n        uint256 totalPriceChange = startPrice - endPrice;\n        uint256 currentPriceChange = (totalPriceChange * secondsPassed) / duration;\n        uint256 currentPrice = startPrice - currentPriceChange;\n\n        return currentPrice;\n    }\n\n    function getCurrentPriceById(uint256 _id) public view returns (uint256) {\n        // revertで書き換え\n        if (!valid[_id]) return 0;\n        Auction storage auction = auctions[_id];\n        return\n            getCurrentPrice(\n                auction.startPrice,\n                auction.endPrice,\n                auction.duration,\n                auction.createdAt,\n                block.number * secondsPerBlock\n            );\n    }\n\n    function mintItem(uint256 _price) public onlyOwner {\n        uint256 itemId = itemToken.mintItem(_price);\n        itemToken.safeTransferFrom(address(this), owner(), itemId);\n    }\n\n    function buy(uint256 _id) public payable {\n        uint256 price;\n        (price, , ) = itemToken.getItem(_id);\n        require(msg.value == price * 1 ether, \"Invalid price\");\n        itemToken.buy(_id);\n        itemToken.safeTransferFrom(address(this), msg.sender, _id);\n    }\n\n    function withdrawPayments() public onlyOwner {\n        msg.sender.sendValue(address(this).balance);\n    }\n\n    function getItem(uint256 _id) public view returns (uint256, bool, address) {\n        return itemToken.getItem(_id);\n    }\n\n    function getItemCount() public view returns (uint256) {\n        return itemToken.getItemCount();\n    }\n\n    function getAuctionCount() public view returns (uint256) {\n        return auctions.length;\n    }\n\n    function() external payable {} // sendValue's tests require the contract to hold Ether\n}\n",
  "sourcePath": "/Users/tomoki/axelmark_kadai/item-shop/contracts/ItemShop.sol",
  "compiler": {
    "name": "solc",
    "version": "0.5.17+commit.d19bba13.Emscripten.clang"
  },
  "schemaVersion": "3.0.23",
  "updatedAt": "2020-04-17T07:44:38.188Z",
  "networkType": "ethereum",
  "devdoc": {
    "methods": {
      "isOwner()": {
        "details": "Returns true if the caller is the current owner."
      },
      "owner()": {
        "details": "Returns the address of the current owner."
      },
      "renounceOwnership()": {
        "details": "Leaves the contract without owner. It will not be possible to call `onlyOwner` functions anymore. Can only be called by the current owner.     * NOTE: Renouncing ownership will leave the contract without an owner, thereby removing any functionality that is only available to the owner."
      },
      "transferOwnership(address)": {
        "details": "Transfers ownership of the contract to a new account (`newOwner`). Can only be called by the current owner."
      }
    }
  },
  "userdoc": {
    "methods": {}
  }
}