{
  "contractName": "ItemShop",
  "abi": [
    {
      "inputs": [
        {
          "internalType": "string",
          "name": "name",
          "type": "string"
        },
        {
          "internalType": "string",
          "name": "symbol",
          "type": "string"
        },
        {
          "internalType": "string",
          "name": "baseURI",
          "type": "string"
        },
        {
          "internalType": "uint256",
          "name": "_secondsPerBlock",
          "type": "uint256"
        }
      ],
      "payable": false,
      "stateMutability": "nonpayable",
      "type": "constructor"
    },
    {
      "anonymous": false,
      "inputs": [
        {
          "indexed": true,
          "internalType": "address",
          "name": "owner",
          "type": "address"
        },
        {
          "indexed": true,
          "internalType": "address",
          "name": "approved",
          "type": "address"
        },
        {
          "indexed": true,
          "internalType": "uint256",
          "name": "tokenId",
          "type": "uint256"
        }
      ],
      "name": "Approval",
      "type": "event"
    },
    {
      "anonymous": false,
      "inputs": [
        {
          "indexed": true,
          "internalType": "address",
          "name": "owner",
          "type": "address"
        },
        {
          "indexed": true,
          "internalType": "address",
          "name": "operator",
          "type": "address"
        },
        {
          "indexed": false,
          "internalType": "bool",
          "name": "approved",
          "type": "bool"
        }
      ],
      "name": "ApprovalForAll",
      "type": "event"
    },
    {
      "anonymous": false,
      "inputs": [
        {
          "indexed": true,
          "internalType": "address",
          "name": "previousOwner",
          "type": "address"
        },
        {
          "indexed": true,
          "internalType": "address",
          "name": "newOwner",
          "type": "address"
        }
      ],
      "name": "OwnershipTransferred",
      "type": "event"
    },
    {
      "anonymous": false,
      "inputs": [
        {
          "indexed": true,
          "internalType": "address",
          "name": "from",
          "type": "address"
        },
        {
          "indexed": true,
          "internalType": "address",
          "name": "to",
          "type": "address"
        },
        {
          "indexed": true,
          "internalType": "uint256",
          "name": "tokenId",
          "type": "uint256"
        }
      ],
      "name": "Transfer",
      "type": "event"
    },
    {
      "payable": true,
      "stateMutability": "payable",
      "type": "fallback"
    },
    {
      "constant": false,
      "inputs": [
        {
          "internalType": "address",
          "name": "to",
          "type": "address"
        },
        {
          "internalType": "uint256",
          "name": "tokenId",
          "type": "uint256"
        }
      ],
      "name": "approve",
      "outputs": [],
      "payable": false,
      "stateMutability": "nonpayable",
      "type": "function"
    },
    {
      "constant": true,
      "inputs": [
        {
          "internalType": "address",
          "name": "owner",
          "type": "address"
        }
      ],
      "name": "balanceOf",
      "outputs": [
        {
          "internalType": "uint256",
          "name": "",
          "type": "uint256"
        }
      ],
      "payable": false,
      "stateMutability": "view",
      "type": "function"
    },
    {
      "constant": true,
      "inputs": [],
      "name": "baseURI",
      "outputs": [
        {
          "internalType": "string",
          "name": "",
          "type": "string"
        }
      ],
      "payable": false,
      "stateMutability": "view",
      "type": "function"
    },
    {
      "constant": false,
      "inputs": [
        {
          "internalType": "uint256",
          "name": "_id",
          "type": "uint256"
        }
      ],
      "name": "buy",
      "outputs": [],
      "payable": true,
      "stateMutability": "payable",
      "type": "function"
    },
    {
      "constant": true,
      "inputs": [
        {
          "internalType": "uint256",
          "name": "tokenId",
          "type": "uint256"
        }
      ],
      "name": "getApproved",
      "outputs": [
        {
          "internalType": "address",
          "name": "",
          "type": "address"
        }
      ],
      "payable": false,
      "stateMutability": "view",
      "type": "function"
    },
    {
      "constant": true,
      "inputs": [
        {
          "internalType": "uint256",
          "name": "_id",
          "type": "uint256"
        }
      ],
      "name": "getItem",
      "outputs": [
        {
          "internalType": "bool",
          "name": "",
          "type": "bool"
        },
        {
          "internalType": "address",
          "name": "",
          "type": "address"
        }
      ],
      "payable": false,
      "stateMutability": "view",
      "type": "function"
    },
    {
      "constant": true,
      "inputs": [],
      "name": "getItemCount",
      "outputs": [
        {
          "internalType": "uint256",
          "name": "",
          "type": "uint256"
        }
      ],
      "payable": false,
      "stateMutability": "view",
      "type": "function"
    },
    {
      "constant": true,
      "inputs": [
        {
          "internalType": "address",
          "name": "owner",
          "type": "address"
        },
        {
          "internalType": "address",
          "name": "operator",
          "type": "address"
        }
      ],
      "name": "isApprovedForAll",
      "outputs": [
        {
          "internalType": "bool",
          "name": "",
          "type": "bool"
        }
      ],
      "payable": false,
      "stateMutability": "view",
      "type": "function"
    },
    {
      "constant": true,
      "inputs": [],
      "name": "isOwner",
      "outputs": [
        {
          "internalType": "bool",
          "name": "",
          "type": "bool"
        }
      ],
      "payable": false,
      "stateMutability": "view",
      "type": "function"
    },
    {
      "constant": true,
      "inputs": [
        {
          "internalType": "uint256",
          "name": "",
          "type": "uint256"
        }
      ],
      "name": "items",
      "outputs": [
        {
          "internalType": "bool",
          "name": "sold",
          "type": "bool"
        }
      ],
      "payable": false,
      "stateMutability": "view",
      "type": "function"
    },
    {
      "constant": false,
      "inputs": [
        {
          "internalType": "string",
          "name": "_tokenURI",
          "type": "string"
        }
      ],
      "name": "mintItem",
      "outputs": [
        {
          "internalType": "uint256",
          "name": "",
          "type": "uint256"
        }
      ],
      "payable": false,
      "stateMutability": "nonpayable",
      "type": "function"
    },
    {
      "constant": false,
      "inputs": [],
      "name": "mintItem",
      "outputs": [
        {
          "internalType": "uint256",
          "name": "",
          "type": "uint256"
        }
      ],
      "payable": false,
      "stateMutability": "nonpayable",
      "type": "function"
    },
    {
      "constant": true,
      "inputs": [],
      "name": "name",
      "outputs": [
        {
          "internalType": "string",
          "name": "",
          "type": "string"
        }
      ],
      "payable": false,
      "stateMutability": "view",
      "type": "function"
    },
    {
      "constant": true,
      "inputs": [],
      "name": "owner",
      "outputs": [
        {
          "internalType": "address",
          "name": "",
          "type": "address"
        }
      ],
      "payable": false,
      "stateMutability": "view",
      "type": "function"
    },
    {
      "constant": true,
      "inputs": [
        {
          "internalType": "uint256",
          "name": "tokenId",
          "type": "uint256"
        }
      ],
      "name": "ownerOf",
      "outputs": [
        {
          "internalType": "address",
          "name": "",
          "type": "address"
        }
      ],
      "payable": false,
      "stateMutability": "view",
      "type": "function"
    },
    {
      "constant": false,
      "inputs": [],
      "name": "renounceOwnership",
      "outputs": [],
      "payable": false,
      "stateMutability": "nonpayable",
      "type": "function"
    },
    {
      "constant": false,
      "inputs": [
        {
          "internalType": "address",
          "name": "from",
          "type": "address"
        },
        {
          "internalType": "address",
          "name": "to",
          "type": "address"
        },
        {
          "internalType": "uint256",
          "name": "tokenId",
          "type": "uint256"
        }
      ],
      "name": "safeTransferFrom",
      "outputs": [],
      "payable": false,
      "stateMutability": "nonpayable",
      "type": "function"
    },
    {
      "constant": false,
      "inputs": [
        {
          "internalType": "address",
          "name": "from",
          "type": "address"
        },
        {
          "internalType": "address",
          "name": "to",
          "type": "address"
        },
        {
          "internalType": "uint256",
          "name": "tokenId",
          "type": "uint256"
        },
        {
          "internalType": "bytes",
          "name": "_data",
          "type": "bytes"
        }
      ],
      "name": "safeTransferFrom",
      "outputs": [],
      "payable": false,
      "stateMutability": "nonpayable",
      "type": "function"
    },
    {
      "constant": false,
      "inputs": [
        {
          "internalType": "address",
          "name": "to",
          "type": "address"
        },
        {
          "internalType": "bool",
          "name": "approved",
          "type": "bool"
        }
      ],
      "name": "setApprovalForAll",
      "outputs": [],
      "payable": false,
      "stateMutability": "nonpayable",
      "type": "function"
    },
    {
      "constant": true,
      "inputs": [
        {
          "internalType": "bytes4",
          "name": "interfaceId",
          "type": "bytes4"
        }
      ],
      "name": "supportsInterface",
      "outputs": [
        {
          "internalType": "bool",
          "name": "",
          "type": "bool"
        }
      ],
      "payable": false,
      "stateMutability": "view",
      "type": "function"
    },
    {
      "constant": true,
      "inputs": [],
      "name": "symbol",
      "outputs": [
        {
          "internalType": "string",
          "name": "",
          "type": "string"
        }
      ],
      "payable": false,
      "stateMutability": "view",
      "type": "function"
    },
    {
      "constant": true,
      "inputs": [
        {
          "internalType": "uint256",
          "name": "index",
          "type": "uint256"
        }
      ],
      "name": "tokenByIndex",
      "outputs": [
        {
          "internalType": "uint256",
          "name": "",
          "type": "uint256"
        }
      ],
      "payable": false,
      "stateMutability": "view",
      "type": "function"
    },
    {
      "constant": true,
      "inputs": [
        {
          "internalType": "address",
          "name": "owner",
          "type": "address"
        },
        {
          "internalType": "uint256",
          "name": "index",
          "type": "uint256"
        }
      ],
      "name": "tokenOfOwnerByIndex",
      "outputs": [
        {
          "internalType": "uint256",
          "name": "",
          "type": "uint256"
        }
      ],
      "payable": false,
      "stateMutability": "view",
      "type": "function"
    },
    {
      "constant": true,
      "inputs": [
        {
          "internalType": "uint256",
          "name": "tokenId",
          "type": "uint256"
        }
      ],
      "name": "tokenURI",
      "outputs": [
        {
          "internalType": "string",
          "name": "",
          "type": "string"
        }
      ],
      "payable": false,
      "stateMutability": "view",
      "type": "function"
    },
    {
      "constant": true,
      "inputs": [],
      "name": "totalSupply",
      "outputs": [
        {
          "internalType": "uint256",
          "name": "",
          "type": "uint256"
        }
      ],
      "payable": false,
      "stateMutability": "view",
      "type": "function"
    },
    {
      "constant": false,
      "inputs": [
        {
          "internalType": "address",
          "name": "from",
          "type": "address"
        },
        {
          "internalType": "address",
          "name": "to",
          "type": "address"
        },
        {
          "internalType": "uint256",
          "name": "tokenId",
          "type": "uint256"
        }
      ],
      "name": "transferFrom",
      "outputs": [],
      "payable": false,
      "stateMutability": "nonpayable",
      "type": "function"
    },
    {
      "constant": false,
      "inputs": [
        {
          "internalType": "address",
          "name": "newOwner",
          "type": "address"
        }
      ],
      "name": "transferOwnership",
      "outputs": [],
      "payable": false,
      "stateMutability": "nonpayable",
      "type": "function"
    },
    {
      "constant": true,
      "inputs": [
        {
          "internalType": "uint256",
          "name": "",
          "type": "uint256"
        }
      ],
      "name": "valid",
      "outputs": [
        {
          "internalType": "bool",
          "name": "",
          "type": "bool"
        }
      ],
      "payable": false,
      "stateMutability": "view",
      "type": "function"
    },
    {
      "constant": false,
      "inputs": [
        {
          "internalType": "uint256",
          "name": "tokenId",
          "type": "uint256"
        },
        {
          "internalType": "uint256",
          "name": "startPrice",
          "type": "uint256"
        },
        {
          "internalType": "uint256",
          "name": "endPrice",
          "type": "uint256"
        },
        {
          "internalType": "uint256",
          "name": "duration",
          "type": "uint256"
        }
      ],
      "name": "exhibit",
      "outputs": [],
      "payable": false,
      "stateMutability": "nonpayable",
      "type": "function"
    },
    {
      "constant": true,
      "inputs": [
        {
          "internalType": "uint256",
          "name": "_id",
          "type": "uint256"
        }
      ],
      "name": "getAuction",
      "outputs": [
        {
          "internalType": "uint256",
          "name": "",
          "type": "uint256"
        },
        {
          "internalType": "uint256",
          "name": "",
          "type": "uint256"
        },
        {
          "internalType": "uint256",
          "name": "",
          "type": "uint256"
        },
        {
          "internalType": "uint256",
          "name": "",
          "type": "uint256"
        },
        {
          "internalType": "address",
          "name": "",
          "type": "address"
        },
        {
          "internalType": "uint256",
          "name": "",
          "type": "uint256"
        }
      ],
      "payable": false,
      "stateMutability": "view",
      "type": "function"
    },
    {
      "constant": true,
      "inputs": [
        {
          "internalType": "uint256",
          "name": "startPrice",
          "type": "uint256"
        },
        {
          "internalType": "uint256",
          "name": "endPrice",
          "type": "uint256"
        },
        {
          "internalType": "uint256",
          "name": "duration",
          "type": "uint256"
        },
        {
          "internalType": "uint256",
          "name": "createdAt",
          "type": "uint256"
        },
        {
          "internalType": "uint256",
          "name": "nowSecond",
          "type": "uint256"
        }
      ],
      "name": "getCurrentPrice",
      "outputs": [
        {
          "internalType": "uint256",
          "name": "",
          "type": "uint256"
        }
      ],
      "payable": false,
      "stateMutability": "pure",
      "type": "function"
    },
    {
      "constant": false,
      "inputs": [
        {
          "internalType": "uint256",
          "name": "_id",
          "type": "uint256"
        }
      ],
      "name": "bid",
      "outputs": [],
      "payable": true,
      "stateMutability": "payable",
      "type": "function"
    },
    {
      "constant": true,
      "inputs": [
        {
          "internalType": "uint256",
          "name": "_id",
          "type": "uint256"
        }
      ],
      "name": "getCurrentPriceById",
      "outputs": [
        {
          "internalType": "uint256",
          "name": "",
          "type": "uint256"
        }
      ],
      "payable": false,
      "stateMutability": "view",
      "type": "function"
    },
    {
      "constant": false,
      "inputs": [],
      "name": "withdrawPayments",
      "outputs": [],
      "payable": false,
      "stateMutability": "nonpayable",
      "type": "function"
    },
    {
      "constant": true,
      "inputs": [],
      "name": "getAuctionCount",
      "outputs": [
        {
          "internalType": "uint256",
          "name": "",
          "type": "uint256"
        }
      ],
      "payable": false,
      "stateMutability": "view",
      "type": "function"
    }
  ],
  "bytecode": "0x60806040523480156200001157600080fd5b50604051620030cf380380620030cf833981810160405260808110156200003757600080fd5b81019080805160405193929190846401000000008211156200005857600080fd5b9083019060208201858111156200006e57600080fd5b82516401000000008111828201881017156200008957600080fd5b82525081516020918201929091019080838360005b83811015620000b85781810151838201526020016200009e565b50505050905090810190601f168015620000e65780820380516001836020036101000a031916815260200191505b50604052602001805160405193929190846401000000008211156200010a57600080fd5b9083019060208201858111156200012057600080fd5b82516401000000008111828201881017156200013b57600080fd5b82525081516020918201929091019080838360005b838110156200016a57818101518382015260200162000150565b50505050905090810190601f168015620001985780820380516001836020036101000a031916815260200191505b5060405260200180516040519392919084640100000000821115620001bc57600080fd5b908301906020820185811115620001d257600080fd5b8251640100000000811182820188101715620001ed57600080fd5b82525081516020918201929091019080838360005b838110156200021c57818101518382015260200162000202565b50505050905090810190601f1680156200024a5780820380516001836020036101000a031916815260200191505b506040526020015191508490508383828281816000620002726001600160e01b03620003dd16565b600080546001600160a01b0319166001600160a01b0383169081178255604051929350917f8be0079c531659141344cd1fd0a4f28419497f9722a3daafe3b4186f6b6457e0908290a350620002f07f01ffc9a7000000000000000000000000000000000000000000000000000000006001600160e01b03620003e216565b620003247f80ac58cd000000000000000000000000000000000000000000000000000000006001600160e01b03620003e216565b620003587f780e9d63000000000000000000000000000000000000000000000000000000006001600160e01b03620003e216565b81516200036d90600a906020850190620004cd565b5080516200038390600b906020840190620004cd565b50620003b87f5b5e139f000000000000000000000000000000000000000000000000000000006001600160e01b03620003e216565b50505050620003cd81620004b460201b60201c565b505050600f55506200056f915050565b335b90565b7fffffffff0000000000000000000000000000000000000000000000000000000080821614156200047457604080517f08c379a000000000000000000000000000000000000000000000000000000000815260206004820152601c60248201527f4552433136353a20696e76616c696420696e7465726661636520696400000000604482015290519081900360640190fd5b7fffffffff00000000000000000000000000000000000000000000000000000000166000908152600160208190526040909120805460ff19169091179055565b8051620004c990600c906020840190620004cd565b5050565b828054600181600116156101000203166002900490600052602060002090601f016020900481019282601f106200051057805160ff191683800117855562000540565b8280016001018555821562000540579182015b828111156200054057825182559160200191906001019062000523565b506200054e92915062000552565b5090565b620003df91905b808211156200054e576000815560010162000559565b612b50806200057f6000396000f3fe6080604052600436106102045760003560e01c80637749cf2311610118578063bf8712c5116100a0578063c87b56dd1161006f578063c87b56dd146108f9578063d96a094a14610923578063e985e9c514610940578063eb93406b1461097b578063f2fde38b1461099057610204565b8063bf8712c5146107dd578063bfb231d214610807578063c44e664014610831578063c75458491461084657610204565b806395d89b41116100e757806395d89b411461063c578063a22cb46514610651578063a792100e1461068c578063b4a8d584146106c8578063b88d4fde1461070a57610204565b80637749cf231461059757806378bd7935146105ac5780638da5cb5b146106125780638f32d59b1461062757610204565b806342842e0e1161019b5780636352211e1161016a5780636352211e146104e65780636c0360eb14610510578063707dc60f1461052557806370a082311461054f578063715018a61461058257610204565b806342842e0e14610447578063454a2ab31461048a5780634f6ccce7146104a75780636103d70b146104d157610204565b806318160ddd116101d757806318160ddd1461035757806323b872dd1461037e5780632f745c59146103c15780633129e773146103fa57610204565b806301ffc9a71461020657806306fdde031461024e578063081812fc146102d8578063095ea7b31461031e575b005b34801561021257600080fd5b5061023a6004803603602081101561022957600080fd5b50356001600160e01b0319166109c3565b604080519115158252519081900360200190f35b34801561025a57600080fd5b506102636109e6565b6040805160208082528351818301528351919283929083019185019080838360005b8381101561029d578181015183820152602001610285565b50505050905090810190601f1680156102ca5780820380516001836020036101000a031916815260200191505b509250505060405180910390f35b3480156102e457600080fd5b50610302600480360360208110156102fb57600080fd5b5035610a7d565b604080516001600160a01b039092168252519081900360200190f35b34801561032a57600080fd5b506102046004803603604081101561034157600080fd5b506001600160a01b038135169060200135610adf565b34801561036357600080fd5b5061036c610c07565b60408051918252519081900360200190f35b34801561038a57600080fd5b50610204600480360360608110156103a157600080fd5b506001600160a01b03813581169160208101359091169060400135610c0d565b3480156103cd57600080fd5b5061036c600480360360408110156103e457600080fd5b506001600160a01b038135169060200135610c69565b34801561040657600080fd5b506104246004803603602081101561041d57600080fd5b5035610ce8565b6040805192151583526001600160a01b0390911660208301528051918290030190f35b34801561045357600080fd5b506102046004803603606081101561046a57600080fd5b506001600160a01b03813581169160208101359091169060400135610d70565b610204600480360360208110156104a057600080fd5b5035610d8b565b3480156104b357600080fd5b5061036c600480360360208110156104ca57600080fd5b5035610f00565b3480156104dd57600080fd5b50610204610f66565b3480156104f257600080fd5b506103026004803603602081101561050957600080fd5b5035610fc0565b34801561051c57600080fd5b5061026361101a565b34801561053157600080fd5b5061036c6004803603602081101561054857600080fd5b503561107b565b34801561055b57600080fd5b5061036c6004803603602081101561057257600080fd5b50356001600160a01b03166110e0565b34801561058e57600080fd5b50610204611148565b3480156105a357600080fd5b5061036c6111d9565b3480156105b857600080fd5b506105d6600480360360208110156105cf57600080fd5b50356111df565b6040805196875260208701959095528585019390935260608501919091526001600160a01b0316608084015260a0830152519081900360c00190f35b34801561061e57600080fd5b5061030261129b565b34801561063357600080fd5b5061023a6112aa565b34801561064857600080fd5b506102636112ce565b34801561065d57600080fd5b506102046004803603604081101561067457600080fd5b506001600160a01b038135169060200135151561132f565b34801561069857600080fd5b50610204600480360360808110156106af57600080fd5b5080359060208101359060408101359060600135611434565b3480156106d457600080fd5b5061036c600480360360a08110156106eb57600080fd5b508035906020810135906040810135906060810135906080013561175f565b34801561071657600080fd5b506102046004803603608081101561072d57600080fd5b6001600160a01b0382358116926020810135909116916040820135919081019060808101606082013564010000000081111561076857600080fd5b82018360208201111561077a57600080fd5b8035906020019184600183028401116401000000008311171561079c57600080fd5b91908080601f016020809104026020016040519081016040528093929190818152602001838380828437600092019190915250929550611796945050505050565b3480156107e957600080fd5b5061023a6004803603602081101561080057600080fd5b50356117f4565b34801561081357600080fd5b5061023a6004803603602081101561082a57600080fd5b5035611809565b34801561083d57600080fd5b5061036c61182a565b34801561085257600080fd5b5061036c6004803603602081101561086957600080fd5b81019060208101813564010000000081111561088457600080fd5b82018360208201111561089657600080fd5b803590602001918460018302840111640100000000831117156108b857600080fd5b91908080601f016020809104026020016040519081016040528093929190818152602001838380828437600092019190915250929550611830945050505050565b34801561090557600080fd5b506102636004803603602081101561091c57600080fd5b503561188f565b6102046004803603602081101561093957600080fd5b5035611a5b565b34801561094c57600080fd5b5061023a6004803603604081101561096357600080fd5b506001600160a01b0381358116916020013516611ae2565b34801561098757600080fd5b5061036c611b10565b34801561099c57600080fd5b50610204600480360360208110156109b357600080fd5b50356001600160a01b0316611bc0565b6001600160e01b0319811660009081526001602052604090205460ff165b919050565b600a8054604080516020601f6002600019610100600188161502019095169490940493840181900481028201810190925282815260609390929091830182828015610a725780601f10610a4757610100808354040283529160200191610a72565b820191906000526020600020905b815481529060010190602001808311610a5557829003601f168201915b505050505090505b90565b6000610a8882611c13565b610ac35760405162461bcd60e51b815260040180806020018281038252602c8152602001806129a1602c913960400191505060405180910390fd5b506000908152600360205260409020546001600160a01b031690565b6000610aea82610fc0565b9050806001600160a01b0316836001600160a01b03161415610b3d5760405162461bcd60e51b8152600401808060200182810382526021815260200180612a9e6021913960400191505060405180910390fd5b806001600160a01b0316610b4f611c30565b6001600160a01b03161480610b705750610b7081610b6b611c30565b611ae2565b610bab5760405162461bcd60e51b81526004018080602001828103825260388152602001806128f06038913960400191505060405180910390fd5b60008281526003602052604080822080546001600160a01b0319166001600160a01b0387811691821790925591518593918516917f8c5be1e5ebec7d5bd14f71427d1e84f3dd0314c0f7b2291e5b200ac8c7c3b92591a4505050565b60085490565b610c1e610c18611c30565b82611c34565b610c595760405162461bcd60e51b8152600401808060200182810382526031815260200180612abf6031913960400191505060405180910390fd5b610c64838383611cd8565b505050565b6000610c74836110e0565b8210610cb15760405162461bcd60e51b815260040180806020018281038252602b8152602001806127e3602b913960400191505060405180910390fd5b6001600160a01b0383166000908152600660205260409020805483908110610cd557fe5b9060005260206000200154905092915050565b60008082600e8054905081108015610cfe575060015b610d41576040805162461bcd60e51b815260206004820152600f60248201526e125b9d985b1a59081a5d195b481a59608a1b604482015290519081900360640190fd5b600e8481548110610d4e57fe5b60009182526020909120015460ff16610d6685610fc0565b9250925050915091565b610c6483838360405180602001604052806000815250611796565b60008181526011602052604090205460ff16610dee576040805162461bcd60e51b815260206004820152601960248201527f4974656d53686f703a20696e76616c69642061756374696f6e00000000000000604482015290519081900360640190fd5b6000610df98261107b565b905080341015610e50576040805162461bcd60e51b815260206004820152601760248201527f4974656d53686f703a20696e76616c6964207072696365000000000000000000604482015290519081900360640190fd5b600060108381548110610e5f57fe5b6000918252602080832060046006909302018281015487855260119092526040808520805460ff1916905581548151632142170760e11b81526001600160a01b03909416948401859052336024850152604484018190529051919550929330926342842e0e926064808301939282900301818387803b158015610ee157600080fd5b505af1158015610ef5573d6000803e3d6000fd5b505050505050505050565b6000610f0a610c07565b8210610f475760405162461bcd60e51b815260040180806020018281038252602c815260200180612af0602c913960400191505060405180910390fd5b60088281548110610f5457fe5b90600052602060002001549050919050565b610f6e6112aa565b610fad576040805162461bcd60e51b815260206004820181905260248201526000805160206129f9833981519152604482015290519081900360640190fd5b610fbe33303163ffffffff611cf716565b565b6000818152600260205260408120546001600160a01b0316806110145760405162461bcd60e51b81526004018080602001828103825260298152602001806129526029913960400191505060405180910390fd5b92915050565b600c8054604080516020601f6002600019610100600188161502019095169490940493840181900481028201810190925282815260609390929091830182828015610a725780601f10610a4757610100808354040283529160200191610a72565b60008181526011602052604081205460ff16611099575060006109e1565b6000601083815481106110a857fe5b906000526020600020906006020190506110d98160010154826002015483600301548460050154600f54430261175f565b9392505050565b60006001600160a01b0382166111275760405162461bcd60e51b815260040180806020018281038252602a815260200180612928602a913960400191505060405180910390fd5b6001600160a01b038216600090815260046020526040902061101490611ddd565b6111506112aa565b61118f576040805162461bcd60e51b815260206004820181905260248201526000805160206129f9833981519152604482015290519081900360640190fd5b600080546040516001600160a01b03909116907f8be0079c531659141344cd1fd0a4f28419497f9722a3daafe3b4186f6b6457e0908390a3600080546001600160a01b0319169055565b600e5490565b6000806000806000806010805490508710611241576040805162461bcd60e51b815260206004820152601d60248201527f4974656d53686f703a206e6f6e65786973742061756374696f6e206964000000604482015290519081900360640190fd5b60006010888154811061125057fe5b6000918252602090912060069091020180546001820154600283015460038401546004850154600590950154939d929c50909a5098506001600160a01b039092169650945092505050565b6000546001600160a01b031690565b600080546001600160a01b03166112bf611c30565b6001600160a01b031614905090565b600b8054604080516020601f6002600019610100600188161502019095169490940493840181900481028201810190925282815260609390929091830182828015610a725780601f10610a4757610100808354040283529160200191610a72565b611337611c30565b6001600160a01b0316826001600160a01b0316141561139d576040805162461bcd60e51b815260206004820152601960248201527f4552433732313a20617070726f766520746f2063616c6c657200000000000000604482015290519081900360640190fd5b80600560006113aa611c30565b6001600160a01b03908116825260208083019390935260409182016000908120918716808252919093529120805460ff1916921515929092179091556113ee611c30565b60408051841515815290516001600160a01b0392909216917f17307eab39ab6107e8899845ad3d59bd9653f200f220920489ca2b5937696c319181900360200190a35050565b61143c6111d9565b841061148f576040805162461bcd60e51b815260206004820152601a60248201527f4974656d53686f703a206e6f6e6578697374206974656d206964000000000000604482015290519081900360640190fd5b3361149985610fc0565b6001600160a01b0316146114de5760405162461bcd60e51b815260040180806020018281038252602681526020018061297b6026913960400191505060405180910390fd5b6000831180156114ee5750600082115b611536576040805162461bcd60e51b81526020600482015260146024820152734974656d53686f703a207a65726f20707269636560601b604482015290519081900360640190fd5b818310156115755760405162461bcd60e51b815260040180806020018281038252602d815260200180612a42602d913960400191505060405180910390fd5b600081116115ca576040805162461bcd60e51b815260206004820152601760248201527f4974656d53686f703a207a65726f206475726174696f6e000000000000000000604482015290519081900360640190fd5b600f54430260006115da86610fc0565b90506115e46126eb565b506040805160c0810182528781526020808201888152828401888152606084018881526001600160a01b038781166080870190815260a087018a8152601080546001808201835560009283528a517f1b6847dc741a1b0cd08d278845f9d819d87b734759afb55fe2de5cb82a9ae672600684029081019190915598517f1b6847dc741a1b0cd08d278845f9d819d87b734759afb55fe2de5cb82a9ae6738a015596517f1b6847dc741a1b0cd08d278845f9d819d87b734759afb55fe2de5cb82a9ae67489015594517f1b6847dc741a1b0cd08d278845f9d819d87b734759afb55fe2de5cb82a9ae67588015591517f1b6847dc741a1b0cd08d278845f9d819d87b734759afb55fe2de5cb82a9ae676870180546001600160a01b031916919094161790925590517f1b6847dc741a1b0cd08d278845f9d819d87b734759afb55fe2de5cb82a9ae677909401939093558083526011909352939020805460ff1916909317909255906117553089610adf565b5050505050505050565b6000828203848110611774578591505061178d565b8587036000868383028161178457fe5b04890393505050505b95945050505050565b6117a76117a1611c30565b83611c34565b6117e25760405162461bcd60e51b8152600401808060200182810382526031815260200180612abf6031913960400191505060405180910390fd5b6117ee84848484611de1565b50505050565b60116020526000908152604090205460ff1681565b600e818154811061181657fe5b60009182526020909120015460ff16905081565b60105490565b600061183a6112aa565b611879576040805162461bcd60e51b815260206004820181905260248201526000805160206129f9833981519152604482015290519081900360640190fd5b6000611883611b10565b90506110148184611e33565b606061189a82611c13565b6118d55760405162461bcd60e51b815260040180806020018281038252602f815260200180612a6f602f913960400191505060405180910390fd5b6000828152600d602090815260409182902080548351601f600260001961010060018616150201909316929092049182018490048402810184019094528084526060939283018282801561196a5780601f1061193f5761010080835404028352916020019161196a565b820191906000526020600020905b81548152906001019060200180831161194d57829003601f168201915b505050505090508051600014156119915750506040805160208101909152600081526109e1565b600c8160405160200180838054600181600116156101000203166002900480156119f25780601f106119d05761010080835404028352918201916119f2565b820191906000526020600020905b8154815290600101906020018083116119de575b5050825160208401908083835b60208310611a1e5780518252601f1990920191602091820191016119ff565b6001836020036101000a038019825116818451168082178552505050505050905001925050506040516020818303038152906040529150506109e1565b80600e8181548110611a6957fe5b60009182526020909120015460ff1615611ab5576040805162461bcd60e51b81526020600482015260086024820152671cdbdb19081bdd5d60c21b604482015290519081900360640190fd5b6001600e8381548110611ac457fe5b6000918252602090912001805460ff19169115159190911790555050565b6001600160a01b03918216600090815260056020908152604080832093909416825291909152205460ff1690565b6000611b1a6112aa565b611b59576040805162461bcd60e51b815260206004820181905260248201526000805160206129f9833981519152604482015290519081900360640190fd5b60408051602081019091526000808252600e80546001810182559181905291517fbb7b4a454dc3493923482f07822329ed19e8244eff582cc204f8554c3620c3fd909101805460ff19169115159190911790555460001901611bbb3382611e96565b905090565b611bc86112aa565b611c07576040805162461bcd60e51b815260206004820181905260248201526000805160206129f9833981519152604482015290519081900360640190fd5b611c1081611eb7565b50565b6000908152600260205260409020546001600160a01b0316151590565b3390565b6000611c3f82611c13565b611c7a5760405162461bcd60e51b815260040180806020018281038252602c8152602001806128c4602c913960400191505060405180910390fd5b6000611c8583610fc0565b9050806001600160a01b0316846001600160a01b03161480611cc05750836001600160a01b0316611cb584610a7d565b6001600160a01b0316145b80611cd05750611cd08185611ae2565b949350505050565b611ce3838383611f57565b611ced838261209b565b610c648282612190565b3031811115611d4d576040805162461bcd60e51b815260206004820152601d60248201527f416464726573733a20696e73756666696369656e742062616c616e6365000000604482015290519081900360640190fd5b6040516000906001600160a01b0384169083908381818185875af1925050503d8060008114611d98576040519150601f19603f3d011682016040523d82523d6000602084013e611d9d565b606091505b5050905080610c645760405162461bcd60e51b815260040180806020018281038252603a81526020018061288a603a913960400191505060405180910390fd5b5490565b611dec848484611cd8565b611df8848484846121ce565b6117ee5760405162461bcd60e51b815260040180806020018281038252603281526020018061280e6032913960400191505060405180910390fd5b611e3c82611c13565b611e775760405162461bcd60e51b815260040180806020018281038252602c8152602001806129cd602c913960400191505060405180910390fd5b6000828152600d602090815260409091208251610c649284019061272a565b611ea08282612409565b611eaa8282612190565b611eb38161253a565b5050565b6001600160a01b038116611efc5760405162461bcd60e51b81526004018080602001828103825260268152602001806128406026913960400191505060405180910390fd5b600080546040516001600160a01b03808516939216917f8be0079c531659141344cd1fd0a4f28419497f9722a3daafe3b4186f6b6457e091a3600080546001600160a01b0319166001600160a01b0392909216919091179055565b826001600160a01b0316611f6a82610fc0565b6001600160a01b031614611faf5760405162461bcd60e51b8152600401808060200182810382526029815260200180612a196029913960400191505060405180910390fd5b6001600160a01b038216611ff45760405162461bcd60e51b81526004018080602001828103825260248152602001806128666024913960400191505060405180910390fd5b611ffd8161257e565b6001600160a01b038316600090815260046020526040902061201e906125b9565b6001600160a01b038216600090815260046020526040902061203f906125d0565b60008181526002602052604080822080546001600160a01b0319166001600160a01b0386811691821790925591518493918716917fddf252ad1be2c89b69c2b068fc378daa952ba7f163c4a11628f55a4df523b3ef91a4505050565b6001600160a01b0382166000908152600660205260408120546120c590600163ffffffff6125d916565b600083815260076020526040902054909150808214612160576001600160a01b038416600090815260066020526040812080548490811061210257fe5b906000526020600020015490508060066000876001600160a01b03166001600160a01b03168152602001908152602001600020838154811061214057fe5b600091825260208083209091019290925591825260079052604090208190555b6001600160a01b03841660009081526006602052604090208054906121899060001983016127a8565b5050505050565b6001600160a01b0390911660009081526006602081815260408084208054868652600784529185208290559282526001810183559183529091200155565b60006121e2846001600160a01b031661261b565b6121ee57506001611cd0565b600060606001600160a01b038616630a85bd0160e11b61220c611c30565b89888860405160240180856001600160a01b03166001600160a01b03168152602001846001600160a01b03166001600160a01b0316815260200183815260200180602001828103825283818151815260200191508051906020019080838360005b8381101561228557818101518382015260200161226d565b50505050905090810190601f1680156122b25780820380516001836020036101000a031916815260200191505b5060408051601f198184030181529181526020820180516001600160e01b03166001600160e01b0319909a16999099178952518151919890975087965094509250829150849050835b6020831061231a5780518252601f1990920191602091820191016122fb565b6001836020036101000a0380198251168184511680821785525050505050509050019150506000604051808303816000865af19150503d806000811461237c576040519150601f19603f3d011682016040523d82523d6000602084013e612381565b606091505b5091509150816123d25780511561239b5780518082602001fd5b60405162461bcd60e51b815260040180806020018281038252603281526020018061280e6032913960400191505060405180910390fd5b60008180602001905160208110156123e957600080fd5b50516001600160e01b031916630a85bd0160e11b149350611cd092505050565b6001600160a01b038216612464576040805162461bcd60e51b815260206004820181905260248201527f4552433732313a206d696e7420746f20746865207a65726f2061646472657373604482015290519081900360640190fd5b61246d81611c13565b156124bf576040805162461bcd60e51b815260206004820152601c60248201527f4552433732313a20746f6b656e20616c7265616479206d696e74656400000000604482015290519081900360640190fd5b600081815260026020908152604080832080546001600160a01b0319166001600160a01b0387169081179091558352600490915290206124fe906125d0565b60405181906001600160a01b038416906000907fddf252ad1be2c89b69c2b068fc378daa952ba7f163c4a11628f55a4df523b3ef908290a45050565b600880546000838152600960205260408120829055600182018355919091527ff3f7a9fe364faab93b216da50a3214154f22a0a2b415b23a84c8169e8b636ee30155565b6000818152600360205260409020546001600160a01b031615611c1057600090815260036020526040902080546001600160a01b0319169055565b80546125cc90600163ffffffff6125d916565b9055565b80546001019055565b60006110d983836040518060400160405280601e81526020017f536166654d6174683a207375627472616374696f6e206f766572666c6f770000815250612654565b6000813f7fc5d2460186f7233c927e7db2dcc703c0e500b653ca82273b7bfad8045d85a470818114801590611cd0575050151592915050565b600081848411156126e35760405162461bcd60e51b81526004018080602001828103825283818151815260200191508051906020019080838360005b838110156126a8578181015183820152602001612690565b50505050905090810190601f1680156126d55780820380516001836020036101000a031916815260200191505b509250505060405180910390fd5b505050900390565b6040518060c001604052806000815260200160008152602001600081526020016000815260200160006001600160a01b03168152602001600081525090565b828054600181600116156101000203166002900490600052602060002090601f016020900481019282601f1061276b57805160ff1916838001178555612798565b82800160010185558215612798579182015b8281111561279857825182559160200191906001019061277d565b506127a49291506127c8565b5090565b815481835581811115610c6457600083815260209020610c649181019083015b610a7a91905b808211156127a457600081556001016127ce56fe455243373231456e756d657261626c653a206f776e657220696e646578206f7574206f6620626f756e64734552433732313a207472616e7366657220746f206e6f6e20455243373231526563656976657220696d706c656d656e7465724f776e61626c653a206e6577206f776e657220697320746865207a65726f20616464726573734552433732313a207472616e7366657220746f20746865207a65726f2061646472657373416464726573733a20756e61626c6520746f2073656e642076616c75652c20726563697069656e74206d617920686176652072657665727465644552433732313a206f70657261746f7220717565727920666f72206e6f6e6578697374656e7420746f6b656e4552433732313a20617070726f76652063616c6c6572206973206e6f74206f776e6572206e6f7220617070726f76656420666f7220616c6c4552433732313a2062616c616e636520717565727920666f7220746865207a65726f20616464726573734552433732313a206f776e657220717565727920666f72206e6f6e6578697374656e7420746f6b656e4974656d53686f703a2065786968696269742063616c6c6572206973206e6f74206f776e65724552433732313a20617070726f76656420717565727920666f72206e6f6e6578697374656e7420746f6b656e4552433732314d657461646174613a2055524920736574206f66206e6f6e6578697374656e7420746f6b656e4f776e61626c653a2063616c6c6572206973206e6f7420746865206f776e65724552433732313a207472616e73666572206f6620746f6b656e2074686174206973206e6f74206f776e4974656d53686f703a207374617274207072696365206973206c6f776572207468616e20656e642070726963654552433732314d657461646174613a2055524920717565727920666f72206e6f6e6578697374656e7420746f6b656e4552433732313a20617070726f76616c20746f2063757272656e74206f776e65724552433732313a207472616e736665722063616c6c6572206973206e6f74206f776e6572206e6f7220617070726f766564455243373231456e756d657261626c653a20676c6f62616c20696e646578206f7574206f6620626f756e6473a265627a7a72315820957867d7a6c7d25bbfa34260afcd7457559ba8daad046f1877e85f12474b119f64736f6c63430005110032",
  "source": "pragma solidity ^0.5.0;\n\nimport \"./ItemToken.sol\";\nimport \"../node_modules/@openzeppelin/contracts/ownership/Ownable.sol\";\nimport \"../node_modules/@openzeppelin/contracts/utils/Address.sol\";\n\n\ncontract ItemShop is ItemToken {\n    using Address for address payable;\n\n    uint256 secondsPerBlock;\n\n    struct Auction {\n        uint256 tokenId;\n        uint256 startPrice;\n        uint256 endPrice;\n        uint256 duration;\n        address owner;\n        uint256 createdAt;\n    }\n\n    Auction[] auctions;\n\n    mapping(uint256 => bool) public valid;\n\n    constructor(string memory name, string memory symbol, string memory baseURI, uint256 _secondsPerBlock)\n        public\n        ItemToken(name, symbol, baseURI)\n    {\n        secondsPerBlock = _secondsPerBlock;\n    }\n\n    function exhibit(uint256 tokenId, uint256 startPrice, uint256 endPrice, uint256 duration) public {\n        require(tokenId < getItemCount(), \"ItemShop: nonexist item id\");\n        require(ownerOf(tokenId) == msg.sender, \"ItemShop: exihibit caller is not owner\");\n        require(startPrice > 0 && endPrice > 0, \"ItemShop: zero price\");\n        require(startPrice >= endPrice, \"ItemShop: start price is lower than end price\");\n        require(duration > 0, \"ItemShop: zero duration\");\n        uint256 createdAt = block.number * secondsPerBlock;\n        address owner = ownerOf(tokenId);\n        Auction memory newAuction = Auction(tokenId, startPrice, endPrice, duration, owner, createdAt);\n        uint256 newId = auctions.push(newAuction) - 1;\n        valid[newId] = true;\n        approve(address(this), tokenId);\n    }\n\n    function getAuction(uint256 _id) public view returns (uint256, uint256, uint256, uint256, address, uint256) {\n        require(_id < auctions.length, \"ItemShop: nonexist auction id\");\n        Auction storage auction = auctions[_id];\n        return (\n            auction.tokenId,\n            auction.startPrice,\n            auction.endPrice,\n            auction.duration,\n            auction.owner,\n            auction.createdAt\n        );\n    }\n\n    function getCurrentPrice(\n        uint256 startPrice,\n        uint256 endPrice,\n        uint256 duration,\n        uint256 createdAt,\n        uint256 nowSecond\n    ) public pure returns (uint256) {\n        uint256 secondsPassed = nowSecond - createdAt;\n        if (secondsPassed >= duration) {\n            return endPrice;\n        }\n        uint256 totalPriceChange = startPrice - endPrice;\n        uint256 currentPriceChange = (totalPriceChange * secondsPassed) / duration;\n        uint256 currentPrice = startPrice - currentPriceChange;\n\n        return currentPrice;\n    }\n\n    function bid(uint256 _id) public payable {\n        require(valid[_id], \"ItemShop: invalid auction\");\n        uint256 price = getCurrentPriceById(_id);\n        require(msg.value >= price, \"ItemShop: invalid price\");\n        Auction storage auction = auctions[_id];\n        address payable owner = address(uint160(auction.owner));\n        delete valid[_id];\n        uint256 tokenId = auction.tokenId;\n        this.safeTransferFrom(owner, msg.sender, tokenId);\n    }\n\n    function getCurrentPriceById(uint256 _id) public view returns (uint256) {\n        // revert\n        if (!valid[_id]) return 0;\n        Auction storage auction = auctions[_id];\n        return\n            getCurrentPrice(\n                auction.startPrice,\n                auction.endPrice,\n                auction.duration,\n                auction.createdAt,\n                block.number * secondsPerBlock\n            );\n    }\n\n    function withdrawPayments() public onlyOwner {\n        msg.sender.sendValue(address(this).balance);\n    }\n\n    function getAuctionCount() public view returns (uint256) {\n        return auctions.length;\n    }\n\n    function() external payable {} // sendValue's tests require the contract to hold Ether\n}\n",
  "sourcePath": "/Users/tomoki/axelmark_kadai/item-shop/contracts/ItemShop.sol",
  "compiler": {
    "name": "solc",
    "version": "0.5.17+commit.d19bba13.Emscripten.clang"
  },
  "schemaVersion": "3.0.23",
  "updatedAt": "2020-04-23T01:36:10.461Z",
  "networkType": "ethereum",
  "devdoc": {
    "methods": {
      "approve(address,uint256)": {
        "details": "Approves another address to transfer the given token ID The zero address indicates there is no approved address. There can only be one approved address per token at a given time. Can only be called by the token owner or an approved operator.",
        "params": {
          "to": "address to be approved for the given token ID",
          "tokenId": "uint256 ID of the token to be approved"
        }
      },
      "balanceOf(address)": {
        "details": "Gets the balance of the specified address.",
        "params": {
          "owner": "address to query the balance of"
        },
        "return": "uint256 representing the amount owned by the passed address"
      },
      "baseURI()": {
        "details": "Returns the base URI set via {_setBaseURI}. This will be automatically added as a preffix in {tokenURI} to each token's URI, when they are non-empty.    * _Available since v2.5.0._"
      },
      "getApproved(uint256)": {
        "details": "Gets the approved address for a token ID, or zero if no address set Reverts if the token ID does not exist.",
        "params": {
          "tokenId": "uint256 ID of the token to query the approval of"
        },
        "return": "address currently approved for the given token ID"
      },
      "isApprovedForAll(address,address)": {
        "details": "Tells whether an operator is approved by a given owner.",
        "params": {
          "operator": "operator address which you want to query the approval of",
          "owner": "owner address which you want to query the approval of"
        },
        "return": "bool whether the given operator is approved by the given owner"
      },
      "isOwner()": {
        "details": "Returns true if the caller is the current owner."
      },
      "name()": {
        "details": "Gets the token name.",
        "return": "string representing the token name"
      },
      "owner()": {
        "details": "Returns the address of the current owner."
      },
      "ownerOf(uint256)": {
        "details": "Gets the owner of the specified token ID.",
        "params": {
          "tokenId": "uint256 ID of the token to query the owner of"
        },
        "return": "address currently marked as the owner of the given token ID"
      },
      "renounceOwnership()": {
        "details": "Leaves the contract without owner. It will not be possible to call `onlyOwner` functions anymore. Can only be called by the current owner.     * NOTE: Renouncing ownership will leave the contract without an owner, thereby removing any functionality that is only available to the owner."
      },
      "safeTransferFrom(address,address,uint256)": {
        "details": "Safely transfers the ownership of a given token ID to another address If the target address is a contract, it must implement {IERC721Receiver-onERC721Received}, which is called upon a safe transfer, and return the magic value `bytes4(keccak256(\"onERC721Received(address,address,uint256,bytes)\"))`; otherwise, the transfer is reverted. Requires the msg.sender to be the owner, approved, or operator",
        "params": {
          "from": "current owner of the token",
          "to": "address to receive the ownership of the given token ID",
          "tokenId": "uint256 ID of the token to be transferred"
        }
      },
      "safeTransferFrom(address,address,uint256,bytes)": {
        "details": "Safely transfers the ownership of a given token ID to another address If the target address is a contract, it must implement {IERC721Receiver-onERC721Received}, which is called upon a safe transfer, and return the magic value `bytes4(keccak256(\"onERC721Received(address,address,uint256,bytes)\"))`; otherwise, the transfer is reverted. Requires the _msgSender() to be the owner, approved, or operator",
        "params": {
          "_data": "bytes data to send along with a safe transfer check",
          "from": "current owner of the token",
          "to": "address to receive the ownership of the given token ID",
          "tokenId": "uint256 ID of the token to be transferred"
        }
      },
      "setApprovalForAll(address,bool)": {
        "details": "Sets or unsets the approval of a given operator An operator is allowed to transfer all tokens of the sender on their behalf.",
        "params": {
          "approved": "representing the status of the approval to be set",
          "to": "operator address to set the approval"
        }
      },
      "supportsInterface(bytes4)": {
        "details": "See {IERC165-supportsInterface}.     * Time complexity O(1), guaranteed to always use less than 30 000 gas."
      },
      "symbol()": {
        "details": "Gets the token symbol.",
        "return": "string representing the token symbol"
      },
      "tokenByIndex(uint256)": {
        "details": "Gets the token ID at a given index of all the tokens in this contract Reverts if the index is greater or equal to the total number of tokens.",
        "params": {
          "index": "uint256 representing the index to be accessed of the tokens list"
        },
        "return": "uint256 token ID at the given index of the tokens list"
      },
      "tokenOfOwnerByIndex(address,uint256)": {
        "details": "Gets the token ID at a given index of the tokens list of the requested owner.",
        "params": {
          "index": "uint256 representing the index to be accessed of the requested tokens list",
          "owner": "address owning the tokens list to be accessed"
        },
        "return": "uint256 token ID at the given index of the tokens list owned by the requested address"
      },
      "tokenURI(uint256)": {
        "details": "Returns the URI for a given token ID. May return an empty string.     * If the token's URI is non-empty and a base URI was set (via {_setBaseURI}), it will be added to the token ID's URI as a prefix.     * Reverts if the token ID does not exist."
      },
      "totalSupply()": {
        "details": "Gets the total amount of tokens stored by the contract.",
        "return": "uint256 representing the total amount of tokens"
      },
      "transferFrom(address,address,uint256)": {
        "details": "Transfers the ownership of a given token ID to another address. Usage of this method is discouraged, use {safeTransferFrom} whenever possible. Requires the msg.sender to be the owner, approved, or operator.",
        "params": {
          "from": "current owner of the token",
          "to": "address to receive the ownership of the given token ID",
          "tokenId": "uint256 ID of the token to be transferred"
        }
      },
      "transferOwnership(address)": {
        "details": "Transfers ownership of the contract to a new account (`newOwner`). Can only be called by the current owner."
      }
    }
  },
  "userdoc": {
    "methods": {}
  }
}