{
  "contractName": "ItemShop",
  "abi": [
    {
      "inputs": [
        {
          "internalType": "string",
          "name": "name",
          "type": "string"
        },
        {
          "internalType": "string",
          "name": "symbol",
          "type": "string"
        },
        {
          "internalType": "string",
          "name": "baseURI",
          "type": "string"
        },
        {
          "internalType": "uint256",
          "name": "_secondsPerBlock",
          "type": "uint256"
        }
      ],
      "payable": false,
      "stateMutability": "nonpayable",
      "type": "constructor"
    },
    {
      "anonymous": false,
      "inputs": [
        {
          "indexed": true,
          "internalType": "address",
          "name": "owner",
          "type": "address"
        },
        {
          "indexed": true,
          "internalType": "address",
          "name": "approved",
          "type": "address"
        },
        {
          "indexed": true,
          "internalType": "uint256",
          "name": "tokenId",
          "type": "uint256"
        }
      ],
      "name": "Approval",
      "type": "event"
    },
    {
      "anonymous": false,
      "inputs": [
        {
          "indexed": true,
          "internalType": "address",
          "name": "owner",
          "type": "address"
        },
        {
          "indexed": true,
          "internalType": "address",
          "name": "operator",
          "type": "address"
        },
        {
          "indexed": false,
          "internalType": "bool",
          "name": "approved",
          "type": "bool"
        }
      ],
      "name": "ApprovalForAll",
      "type": "event"
    },
    {
      "anonymous": false,
      "inputs": [
        {
          "indexed": false,
          "internalType": "uint256",
          "name": "_id",
          "type": "uint256"
        }
      ],
      "name": "Bid",
      "type": "event"
    },
    {
      "anonymous": false,
      "inputs": [
        {
          "indexed": false,
          "internalType": "uint256",
          "name": "_id",
          "type": "uint256"
        }
      ],
      "name": "Exhibit",
      "type": "event"
    },
    {
      "anonymous": false,
      "inputs": [
        {
          "indexed": true,
          "internalType": "address",
          "name": "previousOwner",
          "type": "address"
        },
        {
          "indexed": true,
          "internalType": "address",
          "name": "newOwner",
          "type": "address"
        }
      ],
      "name": "OwnershipTransferred",
      "type": "event"
    },
    {
      "anonymous": false,
      "inputs": [
        {
          "indexed": true,
          "internalType": "address",
          "name": "from",
          "type": "address"
        },
        {
          "indexed": true,
          "internalType": "address",
          "name": "to",
          "type": "address"
        },
        {
          "indexed": true,
          "internalType": "uint256",
          "name": "tokenId",
          "type": "uint256"
        }
      ],
      "name": "Transfer",
      "type": "event"
    },
    {
      "payable": true,
      "stateMutability": "payable",
      "type": "fallback"
    },
    {
      "constant": false,
      "inputs": [
        {
          "internalType": "address",
          "name": "to",
          "type": "address"
        },
        {
          "internalType": "uint256",
          "name": "tokenId",
          "type": "uint256"
        }
      ],
      "name": "approve",
      "outputs": [],
      "payable": false,
      "stateMutability": "nonpayable",
      "type": "function"
    },
    {
      "constant": true,
      "inputs": [
        {
          "internalType": "address",
          "name": "owner",
          "type": "address"
        }
      ],
      "name": "balanceOf",
      "outputs": [
        {
          "internalType": "uint256",
          "name": "",
          "type": "uint256"
        }
      ],
      "payable": false,
      "stateMutability": "view",
      "type": "function"
    },
    {
      "constant": true,
      "inputs": [],
      "name": "baseURI",
      "outputs": [
        {
          "internalType": "string",
          "name": "",
          "type": "string"
        }
      ],
      "payable": false,
      "stateMutability": "view",
      "type": "function"
    },
    {
      "constant": false,
      "inputs": [
        {
          "internalType": "uint256",
          "name": "_id",
          "type": "uint256"
        }
      ],
      "name": "buy",
      "outputs": [],
      "payable": true,
      "stateMutability": "payable",
      "type": "function"
    },
    {
      "constant": true,
      "inputs": [
        {
          "internalType": "uint256",
          "name": "tokenId",
          "type": "uint256"
        }
      ],
      "name": "getApproved",
      "outputs": [
        {
          "internalType": "address",
          "name": "",
          "type": "address"
        }
      ],
      "payable": false,
      "stateMutability": "view",
      "type": "function"
    },
    {
      "constant": true,
      "inputs": [
        {
          "internalType": "uint256",
          "name": "_id",
          "type": "uint256"
        }
      ],
      "name": "getItem",
      "outputs": [
        {
          "internalType": "bool",
          "name": "",
          "type": "bool"
        },
        {
          "internalType": "address",
          "name": "",
          "type": "address"
        }
      ],
      "payable": false,
      "stateMutability": "view",
      "type": "function"
    },
    {
      "constant": true,
      "inputs": [],
      "name": "getItemCount",
      "outputs": [
        {
          "internalType": "uint256",
          "name": "",
          "type": "uint256"
        }
      ],
      "payable": false,
      "stateMutability": "view",
      "type": "function"
    },
    {
      "constant": true,
      "inputs": [
        {
          "internalType": "address",
          "name": "owner",
          "type": "address"
        },
        {
          "internalType": "address",
          "name": "operator",
          "type": "address"
        }
      ],
      "name": "isApprovedForAll",
      "outputs": [
        {
          "internalType": "bool",
          "name": "",
          "type": "bool"
        }
      ],
      "payable": false,
      "stateMutability": "view",
      "type": "function"
    },
    {
      "constant": true,
      "inputs": [],
      "name": "isOwner",
      "outputs": [
        {
          "internalType": "bool",
          "name": "",
          "type": "bool"
        }
      ],
      "payable": false,
      "stateMutability": "view",
      "type": "function"
    },
    {
      "constant": true,
      "inputs": [
        {
          "internalType": "uint256",
          "name": "",
          "type": "uint256"
        }
      ],
      "name": "itemIsExhibited",
      "outputs": [
        {
          "internalType": "bool",
          "name": "",
          "type": "bool"
        }
      ],
      "payable": false,
      "stateMutability": "view",
      "type": "function"
    },
    {
      "constant": true,
      "inputs": [
        {
          "internalType": "uint256",
          "name": "",
          "type": "uint256"
        }
      ],
      "name": "items",
      "outputs": [
        {
          "internalType": "bool",
          "name": "sold",
          "type": "bool"
        }
      ],
      "payable": false,
      "stateMutability": "view",
      "type": "function"
    },
    {
      "constant": false,
      "inputs": [
        {
          "internalType": "string",
          "name": "_tokenURI",
          "type": "string"
        }
      ],
      "name": "mintItem",
      "outputs": [
        {
          "internalType": "uint256",
          "name": "",
          "type": "uint256"
        }
      ],
      "payable": false,
      "stateMutability": "nonpayable",
      "type": "function"
    },
    {
      "constant": false,
      "inputs": [],
      "name": "mintItem",
      "outputs": [
        {
          "internalType": "uint256",
          "name": "",
          "type": "uint256"
        }
      ],
      "payable": false,
      "stateMutability": "nonpayable",
      "type": "function"
    },
    {
      "constant": true,
      "inputs": [],
      "name": "name",
      "outputs": [
        {
          "internalType": "string",
          "name": "",
          "type": "string"
        }
      ],
      "payable": false,
      "stateMutability": "view",
      "type": "function"
    },
    {
      "constant": true,
      "inputs": [],
      "name": "owner",
      "outputs": [
        {
          "internalType": "address",
          "name": "",
          "type": "address"
        }
      ],
      "payable": false,
      "stateMutability": "view",
      "type": "function"
    },
    {
      "constant": true,
      "inputs": [
        {
          "internalType": "uint256",
          "name": "tokenId",
          "type": "uint256"
        }
      ],
      "name": "ownerOf",
      "outputs": [
        {
          "internalType": "address",
          "name": "",
          "type": "address"
        }
      ],
      "payable": false,
      "stateMutability": "view",
      "type": "function"
    },
    {
      "constant": false,
      "inputs": [],
      "name": "renounceOwnership",
      "outputs": [],
      "payable": false,
      "stateMutability": "nonpayable",
      "type": "function"
    },
    {
      "constant": false,
      "inputs": [
        {
          "internalType": "address",
          "name": "from",
          "type": "address"
        },
        {
          "internalType": "address",
          "name": "to",
          "type": "address"
        },
        {
          "internalType": "uint256",
          "name": "tokenId",
          "type": "uint256"
        }
      ],
      "name": "safeTransferFrom",
      "outputs": [],
      "payable": false,
      "stateMutability": "nonpayable",
      "type": "function"
    },
    {
      "constant": false,
      "inputs": [
        {
          "internalType": "address",
          "name": "from",
          "type": "address"
        },
        {
          "internalType": "address",
          "name": "to",
          "type": "address"
        },
        {
          "internalType": "uint256",
          "name": "tokenId",
          "type": "uint256"
        },
        {
          "internalType": "bytes",
          "name": "_data",
          "type": "bytes"
        }
      ],
      "name": "safeTransferFrom",
      "outputs": [],
      "payable": false,
      "stateMutability": "nonpayable",
      "type": "function"
    },
    {
      "constant": false,
      "inputs": [
        {
          "internalType": "address",
          "name": "to",
          "type": "address"
        },
        {
          "internalType": "bool",
          "name": "approved",
          "type": "bool"
        }
      ],
      "name": "setApprovalForAll",
      "outputs": [],
      "payable": false,
      "stateMutability": "nonpayable",
      "type": "function"
    },
    {
      "constant": true,
      "inputs": [
        {
          "internalType": "bytes4",
          "name": "interfaceId",
          "type": "bytes4"
        }
      ],
      "name": "supportsInterface",
      "outputs": [
        {
          "internalType": "bool",
          "name": "",
          "type": "bool"
        }
      ],
      "payable": false,
      "stateMutability": "view",
      "type": "function"
    },
    {
      "constant": true,
      "inputs": [],
      "name": "symbol",
      "outputs": [
        {
          "internalType": "string",
          "name": "",
          "type": "string"
        }
      ],
      "payable": false,
      "stateMutability": "view",
      "type": "function"
    },
    {
      "constant": true,
      "inputs": [
        {
          "internalType": "uint256",
          "name": "index",
          "type": "uint256"
        }
      ],
      "name": "tokenByIndex",
      "outputs": [
        {
          "internalType": "uint256",
          "name": "",
          "type": "uint256"
        }
      ],
      "payable": false,
      "stateMutability": "view",
      "type": "function"
    },
    {
      "constant": true,
      "inputs": [
        {
          "internalType": "address",
          "name": "owner",
          "type": "address"
        },
        {
          "internalType": "uint256",
          "name": "index",
          "type": "uint256"
        }
      ],
      "name": "tokenOfOwnerByIndex",
      "outputs": [
        {
          "internalType": "uint256",
          "name": "",
          "type": "uint256"
        }
      ],
      "payable": false,
      "stateMutability": "view",
      "type": "function"
    },
    {
      "constant": true,
      "inputs": [
        {
          "internalType": "uint256",
          "name": "tokenId",
          "type": "uint256"
        }
      ],
      "name": "tokenURI",
      "outputs": [
        {
          "internalType": "string",
          "name": "",
          "type": "string"
        }
      ],
      "payable": false,
      "stateMutability": "view",
      "type": "function"
    },
    {
      "constant": true,
      "inputs": [],
      "name": "totalSupply",
      "outputs": [
        {
          "internalType": "uint256",
          "name": "",
          "type": "uint256"
        }
      ],
      "payable": false,
      "stateMutability": "view",
      "type": "function"
    },
    {
      "constant": false,
      "inputs": [
        {
          "internalType": "address",
          "name": "from",
          "type": "address"
        },
        {
          "internalType": "address",
          "name": "to",
          "type": "address"
        },
        {
          "internalType": "uint256",
          "name": "tokenId",
          "type": "uint256"
        }
      ],
      "name": "transferFrom",
      "outputs": [],
      "payable": false,
      "stateMutability": "nonpayable",
      "type": "function"
    },
    {
      "constant": false,
      "inputs": [
        {
          "internalType": "address",
          "name": "newOwner",
          "type": "address"
        }
      ],
      "name": "transferOwnership",
      "outputs": [],
      "payable": false,
      "stateMutability": "nonpayable",
      "type": "function"
    },
    {
      "constant": true,
      "inputs": [
        {
          "internalType": "uint256",
          "name": "",
          "type": "uint256"
        }
      ],
      "name": "valid",
      "outputs": [
        {
          "internalType": "bool",
          "name": "",
          "type": "bool"
        }
      ],
      "payable": false,
      "stateMutability": "view",
      "type": "function"
    },
    {
      "constant": false,
      "inputs": [
        {
          "internalType": "uint256",
          "name": "tokenId",
          "type": "uint256"
        },
        {
          "internalType": "uint256",
          "name": "startPrice",
          "type": "uint256"
        },
        {
          "internalType": "uint256",
          "name": "endPrice",
          "type": "uint256"
        },
        {
          "internalType": "uint256",
          "name": "duration",
          "type": "uint256"
        }
      ],
      "name": "exhibit",
      "outputs": [],
      "payable": false,
      "stateMutability": "nonpayable",
      "type": "function"
    },
    {
      "constant": true,
      "inputs": [
        {
          "internalType": "uint256",
          "name": "_id",
          "type": "uint256"
        }
      ],
      "name": "getAuction",
      "outputs": [
        {
          "internalType": "uint256",
          "name": "",
          "type": "uint256"
        },
        {
          "internalType": "uint256",
          "name": "",
          "type": "uint256"
        },
        {
          "internalType": "uint256",
          "name": "",
          "type": "uint256"
        },
        {
          "internalType": "uint256",
          "name": "",
          "type": "uint256"
        },
        {
          "internalType": "address",
          "name": "",
          "type": "address"
        },
        {
          "internalType": "uint256",
          "name": "",
          "type": "uint256"
        },
        {
          "internalType": "uint256",
          "name": "",
          "type": "uint256"
        }
      ],
      "payable": false,
      "stateMutability": "view",
      "type": "function"
    },
    {
      "constant": true,
      "inputs": [
        {
          "internalType": "uint256",
          "name": "startPrice",
          "type": "uint256"
        },
        {
          "internalType": "uint256",
          "name": "endPrice",
          "type": "uint256"
        },
        {
          "internalType": "uint256",
          "name": "duration",
          "type": "uint256"
        },
        {
          "internalType": "uint256",
          "name": "createdAt",
          "type": "uint256"
        },
        {
          "internalType": "uint256",
          "name": "nowSecond",
          "type": "uint256"
        }
      ],
      "name": "getCurrentPrice",
      "outputs": [
        {
          "internalType": "uint256",
          "name": "",
          "type": "uint256"
        }
      ],
      "payable": false,
      "stateMutability": "pure",
      "type": "function"
    },
    {
      "constant": false,
      "inputs": [
        {
          "internalType": "uint256",
          "name": "_id",
          "type": "uint256"
        }
      ],
      "name": "bid",
      "outputs": [],
      "payable": true,
      "stateMutability": "payable",
      "type": "function"
    },
    {
      "constant": true,
      "inputs": [
        {
          "internalType": "uint256",
          "name": "_id",
          "type": "uint256"
        }
      ],
      "name": "getCurrentPriceById",
      "outputs": [
        {
          "internalType": "uint256",
          "name": "",
          "type": "uint256"
        }
      ],
      "payable": false,
      "stateMutability": "view",
      "type": "function"
    },
    {
      "constant": false,
      "inputs": [],
      "name": "withdrawPayments",
      "outputs": [],
      "payable": false,
      "stateMutability": "nonpayable",
      "type": "function"
    },
    {
      "constant": true,
      "inputs": [],
      "name": "getAuctionCount",
      "outputs": [
        {
          "internalType": "uint256",
          "name": "",
          "type": "uint256"
        }
      ],
      "payable": false,
      "stateMutability": "view",
      "type": "function"
    }
  ],
  "bytecode": "0x60806040523480156200001157600080fd5b506040516200326438038062003264833981810160405260808110156200003757600080fd5b81019080805160405193929190846401000000008211156200005857600080fd5b9083019060208201858111156200006e57600080fd5b82516401000000008111828201881017156200008957600080fd5b82525081516020918201929091019080838360005b83811015620000b85781810151838201526020016200009e565b50505050905090810190601f168015620000e65780820380516001836020036101000a031916815260200191505b50604052602001805160405193929190846401000000008211156200010a57600080fd5b9083019060208201858111156200012057600080fd5b82516401000000008111828201881017156200013b57600080fd5b82525081516020918201929091019080838360005b838110156200016a57818101518382015260200162000150565b50505050905090810190601f168015620001985780820380516001836020036101000a031916815260200191505b5060405260200180516040519392919084640100000000821115620001bc57600080fd5b908301906020820185811115620001d257600080fd5b8251640100000000811182820188101715620001ed57600080fd5b82525081516020918201929091019080838360005b838110156200021c57818101518382015260200162000202565b50505050905090810190601f1680156200024a5780820380516001836020036101000a031916815260200191505b506040526020015191508490508383828281816000620002726001600160e01b03620003dd16565b600080546001600160a01b0319166001600160a01b0383169081178255604051929350917f8be0079c531659141344cd1fd0a4f28419497f9722a3daafe3b4186f6b6457e0908290a350620002f07f01ffc9a7000000000000000000000000000000000000000000000000000000006001600160e01b03620003e216565b620003247f80ac58cd000000000000000000000000000000000000000000000000000000006001600160e01b03620003e216565b620003587f780e9d63000000000000000000000000000000000000000000000000000000006001600160e01b03620003e216565b81516200036d90600a906020850190620004cd565b5080516200038390600b906020840190620004cd565b50620003b87f5b5e139f000000000000000000000000000000000000000000000000000000006001600160e01b03620003e216565b50505050620003cd81620004b460201b60201c565b505050600f55506200056f915050565b335b90565b7fffffffff0000000000000000000000000000000000000000000000000000000080821614156200047457604080517f08c379a000000000000000000000000000000000000000000000000000000000815260206004820152601c60248201527f4552433136353a20696e76616c696420696e7465726661636520696400000000604482015290519081900360640190fd5b7fffffffff00000000000000000000000000000000000000000000000000000000166000908152600160208190526040909120805460ff19169091179055565b8051620004c990600c906020840190620004cd565b5050565b828054600181600116156101000203166002900490600052602060002090601f016020900481019282601f106200051057805160ff191683800117855562000540565b8280016001018555821562000540579182015b828111156200054057825182559160200191906001019062000523565b506200054e92915062000552565b5090565b620003df91905b808211156200054e576000815560010162000559565b612ce5806200057f6000396000f3fe60806040526004361061020f5760003560e01c806378bd793511610118578063bf8712c5116100a0578063c87b56dd1161006f578063c87b56dd14610933578063d96a094a1461095d578063e985e9c51461097a578063eb93406b146109b5578063f2fde38b146109ca5761020f565b8063bf8712c514610817578063bfb231d214610841578063c44e66401461086b578063c7545849146108805761020f565b8063a22cb465116100e7578063a22cb46514610661578063a792100e1461069c578063aa2d4ecc146106d8578063b4a8d58414610702578063b88d4fde146107445761020f565b806378bd7935146105b75780638da5cb5b146106225780638f32d59b1461063757806395d89b411461064c5761020f565b8063454a2ab31161019b5780636c0360eb1161016a5780636c0360eb1461051b578063707dc60f1461053057806370a082311461055a578063715018a61461058d5780637749cf23146105a25761020f565b8063454a2ab3146104955780634f6ccce7146104b25780636103d70b146104dc5780636352211e146104f15761020f565b806318160ddd116101e257806318160ddd1461036257806323b872dd146103895780632f745c59146103cc5780633129e7731461040557806342842e0e146104525761020f565b806301ffc9a71461021157806306fdde0314610259578063081812fc146102e3578063095ea7b314610329575b005b34801561021d57600080fd5b506102456004803603602081101561023457600080fd5b50356001600160e01b0319166109fd565b604080519115158252519081900360200190f35b34801561026557600080fd5b5061026e610a20565b6040805160208082528351818301528351919283929083019185019080838360005b838110156102a8578181015183820152602001610290565b50505050905090810190601f1680156102d55780820380516001836020036101000a031916815260200191505b509250505060405180910390f35b3480156102ef57600080fd5b5061030d6004803603602081101561030657600080fd5b5035610ab7565b604080516001600160a01b039092168252519081900360200190f35b34801561033557600080fd5b5061020f6004803603604081101561034c57600080fd5b506001600160a01b038135169060200135610b19565b34801561036e57600080fd5b50610377610c41565b60408051918252519081900360200190f35b34801561039557600080fd5b5061020f600480360360608110156103ac57600080fd5b506001600160a01b03813581169160208101359091169060400135610c47565b3480156103d857600080fd5b50610377600480360360408110156103ef57600080fd5b506001600160a01b038135169060200135610ca3565b34801561041157600080fd5b5061042f6004803603602081101561042857600080fd5b5035610d22565b6040805192151583526001600160a01b0390911660208301528051918290030190f35b34801561045e57600080fd5b5061020f6004803603606081101561047557600080fd5b506001600160a01b03813581169160208101359091169060400135610daa565b61020f600480360360208110156104ab57600080fd5b5035610dc5565b3480156104be57600080fd5b50610377600480360360208110156104d557600080fd5b5035610f95565b3480156104e857600080fd5b5061020f610ffb565b3480156104fd57600080fd5b5061030d6004803603602081101561051457600080fd5b5035611055565b34801561052757600080fd5b5061026e6110af565b34801561053c57600080fd5b506103776004803603602081101561055357600080fd5b5035611110565b34801561056657600080fd5b506103776004803603602081101561057d57600080fd5b50356001600160a01b0316611175565b34801561059957600080fd5b5061020f6111dd565b3480156105ae57600080fd5b5061037761126e565b3480156105c357600080fd5b506105e1600480360360208110156105da57600080fd5b5035611274565b6040805197885260208801969096528686019490945260608601929092526001600160a01b0316608085015260a084015260c0830152519081900360e00190f35b34801561062e57600080fd5b5061030d611338565b34801561064357600080fd5b50610245611347565b34801561065857600080fd5b5061026e61136b565b34801561066d57600080fd5b5061020f6004803603604081101561068457600080fd5b506001600160a01b03813516906020013515156113cc565b3480156106a857600080fd5b5061020f600480360360808110156106bf57600080fd5b50803590602081013590604081013590606001356114d1565b3480156106e457600080fd5b50610245600480360360208110156106fb57600080fd5b50356118d8565b34801561070e57600080fd5b50610377600480360360a081101561072557600080fd5b50803590602081013590604081013590606081013590608001356118ed565b34801561075057600080fd5b5061020f6004803603608081101561076757600080fd5b6001600160a01b038235811692602081013590911691604082013591908101906080810160608201356401000000008111156107a257600080fd5b8201836020820111156107b457600080fd5b803590602001918460018302840111640100000000831117156107d657600080fd5b91908080601f016020809104026020016040519081016040528093929190818152602001838380828437600092019190915250929550611924945050505050565b34801561082357600080fd5b506102456004803603602081101561083a57600080fd5b5035611982565b34801561084d57600080fd5b506102456004803603602081101561086457600080fd5b5035611997565b34801561087757600080fd5b506103776119b8565b34801561088c57600080fd5b50610377600480360360208110156108a357600080fd5b8101906020810181356401000000008111156108be57600080fd5b8201836020820111156108d057600080fd5b803590602001918460018302840111640100000000831117156108f257600080fd5b91908080601f0160208091040260200160405190810160405280939291908181526020018383808284376000920191909152509295506119be945050505050565b34801561093f57600080fd5b5061026e6004803603602081101561095657600080fd5b5035611a1d565b61020f6004803603602081101561097357600080fd5b5035611be9565b34801561098657600080fd5b506102456004803603604081101561099d57600080fd5b506001600160a01b0381358116916020013516611c70565b3480156109c157600080fd5b50610377611c9e565b3480156109d657600080fd5b5061020f600480360360208110156109ed57600080fd5b50356001600160a01b0316611d4e565b6001600160e01b0319811660009081526001602052604090205460ff165b919050565b600a8054604080516020601f6002600019610100600188161502019095169490940493840181900481028201810190925282815260609390929091830182828015610aac5780601f10610a8157610100808354040283529160200191610aac565b820191906000526020600020905b815481529060010190602001808311610a8f57829003601f168201915b505050505090505b90565b6000610ac282611da1565b610afd5760405162461bcd60e51b815260040180806020018281038252602c815260200180612b36602c913960400191505060405180910390fd5b506000908152600360205260409020546001600160a01b031690565b6000610b2482611055565b9050806001600160a01b0316836001600160a01b03161415610b775760405162461bcd60e51b8152600401808060200182810382526021815260200180612c336021913960400191505060405180910390fd5b806001600160a01b0316610b89611dbe565b6001600160a01b03161480610baa5750610baa81610ba5611dbe565b611c70565b610be55760405162461bcd60e51b8152600401808060200182810382526038815260200180612a856038913960400191505060405180910390fd5b60008281526003602052604080822080546001600160a01b0319166001600160a01b0387811691821790925591518593918516917f8c5be1e5ebec7d5bd14f71427d1e84f3dd0314c0f7b2291e5b200ac8c7c3b92591a4505050565b60085490565b610c58610c52611dbe565b82611dc2565b610c935760405162461bcd60e51b8152600401808060200182810382526031815260200180612c546031913960400191505060405180910390fd5b610c9e838383611e66565b505050565b6000610cae83611175565b8210610ceb5760405162461bcd60e51b815260040180806020018281038252602b815260200180612978602b913960400191505060405180910390fd5b6001600160a01b0383166000908152600660205260409020805483908110610d0f57fe5b9060005260206000200154905092915050565b60008082600e8054905081108015610d38575060015b610d7b576040805162461bcd60e51b815260206004820152600f60248201526e125b9d985b1a59081a5d195b481a59608a1b604482015290519081900360640190fd5b600e8481548110610d8857fe5b60009182526020909120015460ff16610da085611055565b9250925050915091565b610c9e83838360405180602001604052806000815250611924565b60008181526011602052604090205460ff16610e28576040805162461bcd60e51b815260206004820152601960248201527f4974656d53686f703a20696e76616c69642061756374696f6e00000000000000604482015290519081900360640190fd5b6000610e3382611110565b905080341015610e8a576040805162461bcd60e51b815260206004820152601760248201527f4974656d53686f703a20696e76616c6964207072696365000000000000000000604482015290519081900360640190fd5b600060108381548110610e9957fe5b60009182526020808320600460079093020182810154878552601183526040808620805460ff1990811690915583548088526012909552818720805490911690558051632142170760e11b81526001600160a01b0390921694820185905233602483015260448201849052519195509293919230926342842e0e9260648084019382900301818387803b158015610f2f57600080fd5b505af1158015610f43573d6000803e3d6000fd5b50610f5b925050506001600160a01b03831634611e85565b6040805186815290517f7a183e84509e3fe5b0b3aac15347fd1c7d71fd1503001f1a1d7c9658077eb35f9181900360200190a15050505050565b6000610f9f610c41565b8210610fdc5760405162461bcd60e51b815260040180806020018281038252602c815260200180612c85602c913960400191505060405180910390fd5b60088281548110610fe957fe5b90600052602060002001549050919050565b611003611347565b611042576040805162461bcd60e51b81526020600482018190526024820152600080516020612b8e833981519152604482015290519081900360640190fd5b61105333303163ffffffff611e8516565b565b6000818152600260205260408120546001600160a01b0316806110a95760405162461bcd60e51b8152600401808060200182810382526029815260200180612ae76029913960400191505060405180910390fd5b92915050565b600c8054604080516020601f6002600019610100600188161502019095169490940493840181900481028201810190925282815260609390929091830182828015610aac5780601f10610a8157610100808354040283529160200191610aac565b60008181526011602052604081205460ff1661112e57506000610a1b565b60006010838154811061113d57fe5b9060005260206000209060070201905061116e8160010154826002015483600301548460050154600f5443026118ed565b9392505050565b60006001600160a01b0382166111bc5760405162461bcd60e51b815260040180806020018281038252602a815260200180612abd602a913960400191505060405180910390fd5b6001600160a01b03821660009081526004602052604090206110a990611f6b565b6111e5611347565b611224576040805162461bcd60e51b81526020600482018190526024820152600080516020612b8e833981519152604482015290519081900360640190fd5b600080546040516001600160a01b03909116907f8be0079c531659141344cd1fd0a4f28419497f9722a3daafe3b4186f6b6457e0908390a3600080546001600160a01b0319169055565b600e5490565b600080600080600080600060108054905088106112d8576040805162461bcd60e51b815260206004820152601d60248201527f4974656d53686f703a206e6f6e65786973742061756374696f6e206964000000604482015290519081900360640190fd5b6000601089815481106112e757fe5b60009182526020909120600790910201805460018201546002830154600384015460048501546005860154600690960154949f939e50919c509a506001600160a01b03169850919650945092505050565b6000546001600160a01b031690565b600080546001600160a01b031661135c611dbe565b6001600160a01b031614905090565b600b8054604080516020601f6002600019610100600188161502019095169490940493840181900481028201810190925282815260609390929091830182828015610aac5780601f10610a8157610100808354040283529160200191610aac565b6113d4611dbe565b6001600160a01b0316826001600160a01b0316141561143a576040805162461bcd60e51b815260206004820152601960248201527f4552433732313a20617070726f766520746f2063616c6c657200000000000000604482015290519081900360640190fd5b8060056000611447611dbe565b6001600160a01b03908116825260208083019390935260409182016000908120918716808252919093529120805460ff19169215159290921790915561148b611dbe565b60408051841515815290516001600160a01b0392909216917f17307eab39ab6107e8899845ad3d59bd9653f200f220920489ca2b5937696c319181900360200190a35050565b6114d961126e565b841061152c576040805162461bcd60e51b815260206004820152601a60248201527f4974656d53686f703a206e6f6e6578697374206974656d206964000000000000604482015290519081900360640190fd5b3361153685611055565b6001600160a01b03161461157b5760405162461bcd60e51b8152600401808060200182810382526026815260200180612b106026913960400191505060405180910390fd5b60008311801561158b5750600082115b6115d3576040805162461bcd60e51b81526020600482015260146024820152734974656d53686f703a207a65726f20707269636560601b604482015290519081900360640190fd5b818310156116125760405162461bcd60e51b815260040180806020018281038252602d815260200180612bd7602d913960400191505060405180910390fd5b60008111611667576040805162461bcd60e51b815260206004820152601760248201527f4974656d53686f703a207a65726f206475726174696f6e000000000000000000604482015290519081900360640190fd5b60008481526012602052604090205460ff16156116cb576040805162461bcd60e51b815260206004820181905260248201527f4974656d53686f703a2074686973206974656d20697320657868696269746564604482015290519081900360640190fd5b6000848152601260205260408120805460ff19166001179055600f544302906116f386611055565b90506116fd612879565b506040805160e0810182528781526020808201888152828401888152606084018881526001600160a01b038781166080870190815260a087018a81524260c08901908152601080546001808201835560009283528b517f1b6847dc741a1b0cd08d278845f9d819d87b734759afb55fe2de5cb82a9ae672600784029081019190915599517f1b6847dc741a1b0cd08d278845f9d819d87b734759afb55fe2de5cb82a9ae6738b015597517f1b6847dc741a1b0cd08d278845f9d819d87b734759afb55fe2de5cb82a9ae6748a015595517f1b6847dc741a1b0cd08d278845f9d819d87b734759afb55fe2de5cb82a9ae67589015592517f1b6847dc741a1b0cd08d278845f9d819d87b734759afb55fe2de5cb82a9ae676880180546001600160a01b0319169190951617909355517f1b6847dc741a1b0cd08d278845f9d819d87b734759afb55fe2de5cb82a9ae67786015590517f1b6847dc741a1b0cd08d278845f9d819d87b734759afb55fe2de5cb82a9ae678909401939093558083526011909352939020805460ff19169093179092559061189b3089610b19565b6040805182815290517fc7563c05ae82d139a49da022e12939acb0b80206e72786aa5adf9c2726650f029181900360200190a15050505050505050565b60126020526000908152604090205460ff1681565b6000828203848110611902578591505061191b565b8587036000868383028161191257fe5b04890393505050505b95945050505050565b61193561192f611dbe565b83611dc2565b6119705760405162461bcd60e51b8152600401808060200182810382526031815260200180612c546031913960400191505060405180910390fd5b61197c84848484611f6f565b50505050565b60116020526000908152604090205460ff1681565b600e81815481106119a457fe5b60009182526020909120015460ff16905081565b60105490565b60006119c8611347565b611a07576040805162461bcd60e51b81526020600482018190526024820152600080516020612b8e833981519152604482015290519081900360640190fd5b6000611a11611c9e565b90506110a98184611fc1565b6060611a2882611da1565b611a635760405162461bcd60e51b815260040180806020018281038252602f815260200180612c04602f913960400191505060405180910390fd5b6000828152600d602090815260409182902080548351601f6002600019610100600186161502019093169290920491820184900484028101840190945280845260609392830182828015611af85780601f10611acd57610100808354040283529160200191611af8565b820191906000526020600020905b815481529060010190602001808311611adb57829003601f168201915b50505050509050805160001415611b1f575050604080516020810190915260008152610a1b565b600c816040516020018083805460018160011615610100020316600290048015611b805780601f10611b5e576101008083540402835291820191611b80565b820191906000526020600020905b815481529060010190602001808311611b6c575b5050825160208401908083835b60208310611bac5780518252601f199092019160209182019101611b8d565b6001836020036101000a03801982511681845116808217855250505050505090500192505050604051602081830303815290604052915050610a1b565b80600e8181548110611bf757fe5b60009182526020909120015460ff1615611c43576040805162461bcd60e51b81526020600482015260086024820152671cdbdb19081bdd5d60c21b604482015290519081900360640190fd5b6001600e8381548110611c5257fe5b6000918252602090912001805460ff19169115159190911790555050565b6001600160a01b03918216600090815260056020908152604080832093909416825291909152205460ff1690565b6000611ca8611347565b611ce7576040805162461bcd60e51b81526020600482018190526024820152600080516020612b8e833981519152604482015290519081900360640190fd5b60408051602081019091526000808252600e80546001810182559181905291517fbb7b4a454dc3493923482f07822329ed19e8244eff582cc204f8554c3620c3fd909101805460ff19169115159190911790555460001901611d493382612024565b905090565b611d56611347565b611d95576040805162461bcd60e51b81526020600482018190526024820152600080516020612b8e833981519152604482015290519081900360640190fd5b611d9e81612045565b50565b6000908152600260205260409020546001600160a01b0316151590565b3390565b6000611dcd82611da1565b611e085760405162461bcd60e51b815260040180806020018281038252602c815260200180612a59602c913960400191505060405180910390fd5b6000611e1383611055565b9050806001600160a01b0316846001600160a01b03161480611e4e5750836001600160a01b0316611e4384610ab7565b6001600160a01b0316145b80611e5e5750611e5e8185611c70565b949350505050565b611e718383836120e5565b611e7b8382612229565b610c9e828261231e565b3031811115611edb576040805162461bcd60e51b815260206004820152601d60248201527f416464726573733a20696e73756666696369656e742062616c616e6365000000604482015290519081900360640190fd5b6040516000906001600160a01b0384169083908381818185875af1925050503d8060008114611f26576040519150601f19603f3d011682016040523d82523d6000602084013e611f2b565b606091505b5050905080610c9e5760405162461bcd60e51b815260040180806020018281038252603a815260200180612a1f603a913960400191505060405180910390fd5b5490565b611f7a848484611e66565b611f868484848461235c565b61197c5760405162461bcd60e51b81526004018080602001828103825260328152602001806129a36032913960400191505060405180910390fd5b611fca82611da1565b6120055760405162461bcd60e51b815260040180806020018281038252602c815260200180612b62602c913960400191505060405180910390fd5b6000828152600d602090815260409091208251610c9e928401906128bf565b61202e8282612597565b612038828261231e565b612041816126c8565b5050565b6001600160a01b03811661208a5760405162461bcd60e51b81526004018080602001828103825260268152602001806129d56026913960400191505060405180910390fd5b600080546040516001600160a01b03808516939216917f8be0079c531659141344cd1fd0a4f28419497f9722a3daafe3b4186f6b6457e091a3600080546001600160a01b0319166001600160a01b0392909216919091179055565b826001600160a01b03166120f882611055565b6001600160a01b03161461213d5760405162461bcd60e51b8152600401808060200182810382526029815260200180612bae6029913960400191505060405180910390fd5b6001600160a01b0382166121825760405162461bcd60e51b81526004018080602001828103825260248152602001806129fb6024913960400191505060405180910390fd5b61218b8161270c565b6001600160a01b03831660009081526004602052604090206121ac90612747565b6001600160a01b03821660009081526004602052604090206121cd9061275e565b60008181526002602052604080822080546001600160a01b0319166001600160a01b0386811691821790925591518493918716917fddf252ad1be2c89b69c2b068fc378daa952ba7f163c4a11628f55a4df523b3ef91a4505050565b6001600160a01b03821660009081526006602052604081205461225390600163ffffffff61276716565b6000838152600760205260409020549091508082146122ee576001600160a01b038416600090815260066020526040812080548490811061229057fe5b906000526020600020015490508060066000876001600160a01b03166001600160a01b0316815260200190815260200160002083815481106122ce57fe5b600091825260208083209091019290925591825260079052604090208190555b6001600160a01b038416600090815260066020526040902080549061231790600019830161293d565b5050505050565b6001600160a01b0390911660009081526006602081815260408084208054868652600784529185208290559282526001810183559183529091200155565b6000612370846001600160a01b03166127a9565b61237c57506001611e5e565b600060606001600160a01b038616630a85bd0160e11b61239a611dbe565b89888860405160240180856001600160a01b03166001600160a01b03168152602001846001600160a01b03166001600160a01b0316815260200183815260200180602001828103825283818151815260200191508051906020019080838360005b838110156124135781810151838201526020016123fb565b50505050905090810190601f1680156124405780820380516001836020036101000a031916815260200191505b5060408051601f198184030181529181526020820180516001600160e01b03166001600160e01b0319909a16999099178952518151919890975087965094509250829150849050835b602083106124a85780518252601f199092019160209182019101612489565b6001836020036101000a0380198251168184511680821785525050505050509050019150506000604051808303816000865af19150503d806000811461250a576040519150601f19603f3d011682016040523d82523d6000602084013e61250f565b606091505b509150915081612560578051156125295780518082602001fd5b60405162461bcd60e51b81526004018080602001828103825260328152602001806129a36032913960400191505060405180910390fd5b600081806020019051602081101561257757600080fd5b50516001600160e01b031916630a85bd0160e11b149350611e5e92505050565b6001600160a01b0382166125f2576040805162461bcd60e51b815260206004820181905260248201527f4552433732313a206d696e7420746f20746865207a65726f2061646472657373604482015290519081900360640190fd5b6125fb81611da1565b1561264d576040805162461bcd60e51b815260206004820152601c60248201527f4552433732313a20746f6b656e20616c7265616479206d696e74656400000000604482015290519081900360640190fd5b600081815260026020908152604080832080546001600160a01b0319166001600160a01b03871690811790915583526004909152902061268c9061275e565b60405181906001600160a01b038416906000907fddf252ad1be2c89b69c2b068fc378daa952ba7f163c4a11628f55a4df523b3ef908290a45050565b600880546000838152600960205260408120829055600182018355919091527ff3f7a9fe364faab93b216da50a3214154f22a0a2b415b23a84c8169e8b636ee30155565b6000818152600360205260409020546001600160a01b031615611d9e57600090815260036020526040902080546001600160a01b0319169055565b805461275a90600163ffffffff61276716565b9055565b80546001019055565b600061116e83836040518060400160405280601e81526020017f536166654d6174683a207375627472616374696f6e206f766572666c6f7700008152506127e2565b6000813f7fc5d2460186f7233c927e7db2dcc703c0e500b653ca82273b7bfad8045d85a470818114801590611e5e575050151592915050565b600081848411156128715760405162461bcd60e51b81526004018080602001828103825283818151815260200191508051906020019080838360005b8381101561283657818101518382015260200161281e565b50505050905090810190601f1680156128635780820380516001836020036101000a031916815260200191505b509250505060405180910390fd5b505050900390565b6040518060e001604052806000815260200160008152602001600081526020016000815260200160006001600160a01b0316815260200160008152602001600081525090565b828054600181600116156101000203166002900490600052602060002090601f016020900481019282601f1061290057805160ff191683800117855561292d565b8280016001018555821561292d579182015b8281111561292d578251825591602001919060010190612912565b5061293992915061295d565b5090565b815481835581811115610c9e57600083815260209020610c9e9181019083015b610ab491905b80821115612939576000815560010161296356fe455243373231456e756d657261626c653a206f776e657220696e646578206f7574206f6620626f756e64734552433732313a207472616e7366657220746f206e6f6e20455243373231526563656976657220696d706c656d656e7465724f776e61626c653a206e6577206f776e657220697320746865207a65726f20616464726573734552433732313a207472616e7366657220746f20746865207a65726f2061646472657373416464726573733a20756e61626c6520746f2073656e642076616c75652c20726563697069656e74206d617920686176652072657665727465644552433732313a206f70657261746f7220717565727920666f72206e6f6e6578697374656e7420746f6b656e4552433732313a20617070726f76652063616c6c6572206973206e6f74206f776e6572206e6f7220617070726f76656420666f7220616c6c4552433732313a2062616c616e636520717565727920666f7220746865207a65726f20616464726573734552433732313a206f776e657220717565727920666f72206e6f6e6578697374656e7420746f6b656e4974656d53686f703a2065786968696269742063616c6c6572206973206e6f74206f776e65724552433732313a20617070726f76656420717565727920666f72206e6f6e6578697374656e7420746f6b656e4552433732314d657461646174613a2055524920736574206f66206e6f6e6578697374656e7420746f6b656e4f776e61626c653a2063616c6c6572206973206e6f7420746865206f776e65724552433732313a207472616e73666572206f6620746f6b656e2074686174206973206e6f74206f776e4974656d53686f703a207374617274207072696365206973206c6f776572207468616e20656e642070726963654552433732314d657461646174613a2055524920717565727920666f72206e6f6e6578697374656e7420746f6b656e4552433732313a20617070726f76616c20746f2063757272656e74206f776e65724552433732313a207472616e736665722063616c6c6572206973206e6f74206f776e6572206e6f7220617070726f766564455243373231456e756d657261626c653a20676c6f62616c20696e646578206f7574206f6620626f756e6473a265627a7a723158207cb3d9269782471f4990327563839e12f6d4dc3aad7aebc376a9e31b8a04c7fa64736f6c63430005110032",
  "source": "pragma solidity ^0.5.0;\n\nimport \"./ItemToken.sol\";\nimport \"../node_modules/@openzeppelin/contracts/ownership/Ownable.sol\";\nimport \"../node_modules/@openzeppelin/contracts/utils/Address.sol\";\n\n\ncontract ItemShop is ItemToken {\n    event Exhibit(uint256 _id);\n    event Bid(uint256 _id);\n    using Address for address payable;\n\n    uint256 secondsPerBlock;\n\n    struct Auction {\n        uint256 tokenId;\n        uint256 startPrice;\n        uint256 endPrice;\n        uint256 duration;\n        address owner;\n        uint256 createdAt;\n        uint256 createdAtTimestamp;\n    }\n\n    Auction[] auctions;\n\n    mapping(uint256 => bool) public valid;\n    mapping(uint256 => bool) public itemIsExhibited;\n\n    constructor(string memory name, string memory symbol, string memory baseURI, uint256 _secondsPerBlock)\n        public\n        ItemToken(name, symbol, baseURI)\n    {\n        secondsPerBlock = _secondsPerBlock;\n    }\n\n    function exhibit(uint256 tokenId, uint256 startPrice, uint256 endPrice, uint256 duration) public {\n        require(tokenId < getItemCount(), \"ItemShop: nonexist item id\");\n        require(ownerOf(tokenId) == msg.sender, \"ItemShop: exihibit caller is not owner\");\n        require(startPrice > 0 && endPrice > 0, \"ItemShop: zero price\");\n        require(startPrice >= endPrice, \"ItemShop: start price is lower than end price\");\n        require(duration > 0, \"ItemShop: zero duration\");\n        require(!itemIsExhibited[tokenId], \"ItemShop: this item is exhibited\");\n        itemIsExhibited[tokenId] = true;\n        uint256 createdAt = block.number * secondsPerBlock;\n        address owner = ownerOf(tokenId);\n        Auction memory newAuction = Auction(tokenId, startPrice, endPrice, duration, owner, createdAt, now);\n        uint256 newId = auctions.push(newAuction) - 1;\n        valid[newId] = true;\n        approve(address(this), tokenId);\n        emit Exhibit(newId);\n    }\n\n    function getAuction(uint256 _id) public view returns (uint256, uint256, uint256, uint256, address, uint256, uint256) {\n        require(_id < auctions.length, \"ItemShop: nonexist auction id\");\n        Auction storage auction = auctions[_id];\n        return (\n            auction.tokenId,\n            auction.startPrice,\n            auction.endPrice,\n            auction.duration,\n            auction.owner,\n            auction.createdAt,\n            auction.createdAtTimestamp\n        );\n    }\n\n    function getCurrentPrice(\n        uint256 startPrice,\n        uint256 endPrice,\n        uint256 duration,\n        uint256 createdAt,\n        uint256 nowSecond\n    ) public pure returns (uint256) {\n        uint256 secondsPassed = nowSecond - createdAt;\n        if (secondsPassed >= duration) {\n            return endPrice;\n        }\n        uint256 totalPriceChange = startPrice - endPrice;\n        uint256 currentPriceChange = (totalPriceChange * secondsPassed) / duration;\n        uint256 currentPrice = startPrice - currentPriceChange;\n\n        return currentPrice;\n    }\n\n    function bid(uint256 _id) public payable {\n        require(valid[_id], \"ItemShop: invalid auction\");\n        uint256 price = getCurrentPriceById(_id);\n        require(msg.value >= price, \"ItemShop: invalid price\");\n        Auction storage auction = auctions[_id];\n        address payable owner = address(uint160(auction.owner));\n        delete valid[_id];\n        uint256 tokenId = auction.tokenId;\n        delete itemIsExhibited[tokenId];\n        this.safeTransferFrom(owner, msg.sender, tokenId);\n        owner.sendValue(msg.value);\n        emit Bid(_id);\n    }\n\n    function getCurrentPriceById(uint256 _id) public view returns (uint256) {\n        // revert\n        if (!valid[_id]) return 0;\n        Auction storage auction = auctions[_id];\n        return\n            getCurrentPrice(\n                auction.startPrice,\n                auction.endPrice,\n                auction.duration,\n                auction.createdAt,\n                block.number * secondsPerBlock\n            );\n    }\n\n    function withdrawPayments() public onlyOwner {\n        msg.sender.sendValue(address(this).balance);\n    }\n\n    function getAuctionCount() public view returns (uint256) {\n        return auctions.length;\n    }\n\n    function() external payable {} // sendValue's tests require the contract to hold Ether\n}\n",
  "sourcePath": "/Users/tomoki_nakano/item_shop/contracts/ItemShop.sol",
  "compiler": {
    "name": "solc",
    "version": "0.5.17+commit.d19bba13.Emscripten.clang"
  },
  "schemaVersion": "3.1.0",
  "updatedAt": "2020-05-07T02:29:54.102Z",
  "networkType": "ethereum",
  "devdoc": {
    "methods": {
      "approve(address,uint256)": {
        "details": "Approves another address to transfer the given token ID The zero address indicates there is no approved address. There can only be one approved address per token at a given time. Can only be called by the token owner or an approved operator.",
        "params": {
          "to": "address to be approved for the given token ID",
          "tokenId": "uint256 ID of the token to be approved"
        }
      },
      "balanceOf(address)": {
        "details": "Gets the balance of the specified address.",
        "params": {
          "owner": "address to query the balance of"
        },
        "return": "uint256 representing the amount owned by the passed address"
      },
      "baseURI()": {
        "details": "Returns the base URI set via {_setBaseURI}. This will be automatically added as a preffix in {tokenURI} to each token's URI, when they are non-empty.    * _Available since v2.5.0._"
      },
      "getApproved(uint256)": {
        "details": "Gets the approved address for a token ID, or zero if no address set Reverts if the token ID does not exist.",
        "params": {
          "tokenId": "uint256 ID of the token to query the approval of"
        },
        "return": "address currently approved for the given token ID"
      },
      "isApprovedForAll(address,address)": {
        "details": "Tells whether an operator is approved by a given owner.",
        "params": {
          "operator": "operator address which you want to query the approval of",
          "owner": "owner address which you want to query the approval of"
        },
        "return": "bool whether the given operator is approved by the given owner"
      },
      "isOwner()": {
        "details": "Returns true if the caller is the current owner."
      },
      "name()": {
        "details": "Gets the token name.",
        "return": "string representing the token name"
      },
      "owner()": {
        "details": "Returns the address of the current owner."
      },
      "ownerOf(uint256)": {
        "details": "Gets the owner of the specified token ID.",
        "params": {
          "tokenId": "uint256 ID of the token to query the owner of"
        },
        "return": "address currently marked as the owner of the given token ID"
      },
      "renounceOwnership()": {
        "details": "Leaves the contract without owner. It will not be possible to call `onlyOwner` functions anymore. Can only be called by the current owner.     * NOTE: Renouncing ownership will leave the contract without an owner, thereby removing any functionality that is only available to the owner."
      },
      "safeTransferFrom(address,address,uint256)": {
        "details": "Safely transfers the ownership of a given token ID to another address If the target address is a contract, it must implement {IERC721Receiver-onERC721Received}, which is called upon a safe transfer, and return the magic value `bytes4(keccak256(\"onERC721Received(address,address,uint256,bytes)\"))`; otherwise, the transfer is reverted. Requires the msg.sender to be the owner, approved, or operator",
        "params": {
          "from": "current owner of the token",
          "to": "address to receive the ownership of the given token ID",
          "tokenId": "uint256 ID of the token to be transferred"
        }
      },
      "safeTransferFrom(address,address,uint256,bytes)": {
        "details": "Safely transfers the ownership of a given token ID to another address If the target address is a contract, it must implement {IERC721Receiver-onERC721Received}, which is called upon a safe transfer, and return the magic value `bytes4(keccak256(\"onERC721Received(address,address,uint256,bytes)\"))`; otherwise, the transfer is reverted. Requires the _msgSender() to be the owner, approved, or operator",
        "params": {
          "_data": "bytes data to send along with a safe transfer check",
          "from": "current owner of the token",
          "to": "address to receive the ownership of the given token ID",
          "tokenId": "uint256 ID of the token to be transferred"
        }
      },
      "setApprovalForAll(address,bool)": {
        "details": "Sets or unsets the approval of a given operator An operator is allowed to transfer all tokens of the sender on their behalf.",
        "params": {
          "approved": "representing the status of the approval to be set",
          "to": "operator address to set the approval"
        }
      },
      "supportsInterface(bytes4)": {
        "details": "See {IERC165-supportsInterface}.     * Time complexity O(1), guaranteed to always use less than 30 000 gas."
      },
      "symbol()": {
        "details": "Gets the token symbol.",
        "return": "string representing the token symbol"
      },
      "tokenByIndex(uint256)": {
        "details": "Gets the token ID at a given index of all the tokens in this contract Reverts if the index is greater or equal to the total number of tokens.",
        "params": {
          "index": "uint256 representing the index to be accessed of the tokens list"
        },
        "return": "uint256 token ID at the given index of the tokens list"
      },
      "tokenOfOwnerByIndex(address,uint256)": {
        "details": "Gets the token ID at a given index of the tokens list of the requested owner.",
        "params": {
          "index": "uint256 representing the index to be accessed of the requested tokens list",
          "owner": "address owning the tokens list to be accessed"
        },
        "return": "uint256 token ID at the given index of the tokens list owned by the requested address"
      },
      "tokenURI(uint256)": {
        "details": "Returns the URI for a given token ID. May return an empty string.     * If the token's URI is non-empty and a base URI was set (via {_setBaseURI}), it will be added to the token ID's URI as a prefix.     * Reverts if the token ID does not exist."
      },
      "totalSupply()": {
        "details": "Gets the total amount of tokens stored by the contract.",
        "return": "uint256 representing the total amount of tokens"
      },
      "transferFrom(address,address,uint256)": {
        "details": "Transfers the ownership of a given token ID to another address. Usage of this method is discouraged, use {safeTransferFrom} whenever possible. Requires the msg.sender to be the owner, approved, or operator.",
        "params": {
          "from": "current owner of the token",
          "to": "address to receive the ownership of the given token ID",
          "tokenId": "uint256 ID of the token to be transferred"
        }
      },
      "transferOwnership(address)": {
        "details": "Transfers ownership of the contract to a new account (`newOwner`). Can only be called by the current owner."
      }
    }
  },
  "userdoc": {
    "methods": {}
  }
}