{
  "contractName": "ItemShop",
  "abi": [
    {
      "inputs": [
        {
          "internalType": "contract ItemToken",
          "name": "_itemToken",
          "type": "address"
        },
        {
          "internalType": "uint256",
          "name": "_secondsPerBlock",
          "type": "uint256"
        }
      ],
      "payable": false,
      "stateMutability": "nonpayable",
      "type": "constructor"
    },
    {
      "anonymous": false,
      "inputs": [
        {
          "indexed": true,
          "internalType": "address",
          "name": "previousOwner",
          "type": "address"
        },
        {
          "indexed": true,
          "internalType": "address",
          "name": "newOwner",
          "type": "address"
        }
      ],
      "name": "OwnershipTransferred",
      "type": "event"
    },
    {
      "payable": true,
      "stateMutability": "payable",
      "type": "fallback"
    },
    {
      "constant": true,
      "inputs": [],
      "name": "isOwner",
      "outputs": [
        {
          "internalType": "bool",
          "name": "",
          "type": "bool"
        }
      ],
      "payable": false,
      "stateMutability": "view",
      "type": "function"
    },
    {
      "constant": true,
      "inputs": [],
      "name": "itemToken",
      "outputs": [
        {
          "internalType": "contract ItemToken",
          "name": "",
          "type": "address"
        }
      ],
      "payable": false,
      "stateMutability": "view",
      "type": "function"
    },
    {
      "constant": true,
      "inputs": [],
      "name": "owner",
      "outputs": [
        {
          "internalType": "address",
          "name": "",
          "type": "address"
        }
      ],
      "payable": false,
      "stateMutability": "view",
      "type": "function"
    },
    {
      "constant": false,
      "inputs": [],
      "name": "renounceOwnership",
      "outputs": [],
      "payable": false,
      "stateMutability": "nonpayable",
      "type": "function"
    },
    {
      "constant": false,
      "inputs": [
        {
          "internalType": "address",
          "name": "newOwner",
          "type": "address"
        }
      ],
      "name": "transferOwnership",
      "outputs": [],
      "payable": false,
      "stateMutability": "nonpayable",
      "type": "function"
    },
    {
      "constant": false,
      "inputs": [
        {
          "internalType": "uint256",
          "name": "tokenId",
          "type": "uint256"
        },
        {
          "internalType": "uint256",
          "name": "startPrice",
          "type": "uint256"
        },
        {
          "internalType": "uint256",
          "name": "endPrice",
          "type": "uint256"
        },
        {
          "internalType": "uint256",
          "name": "duration",
          "type": "uint256"
        }
      ],
      "name": "exhibit",
      "outputs": [],
      "payable": false,
      "stateMutability": "nonpayable",
      "type": "function"
    },
    {
      "constant": true,
      "inputs": [
        {
          "internalType": "uint256",
          "name": "_id",
          "type": "uint256"
        }
      ],
      "name": "getAuction",
      "outputs": [
        {
          "internalType": "uint256",
          "name": "",
          "type": "uint256"
        },
        {
          "internalType": "uint256",
          "name": "",
          "type": "uint256"
        },
        {
          "internalType": "uint256",
          "name": "",
          "type": "uint256"
        },
        {
          "internalType": "uint256",
          "name": "",
          "type": "uint256"
        },
        {
          "internalType": "address",
          "name": "",
          "type": "address"
        },
        {
          "internalType": "uint256",
          "name": "",
          "type": "uint256"
        }
      ],
      "payable": false,
      "stateMutability": "view",
      "type": "function"
    },
    {
      "constant": false,
      "inputs": [
        {
          "internalType": "uint256",
          "name": "_price",
          "type": "uint256"
        }
      ],
      "name": "mintItem",
      "outputs": [],
      "payable": false,
      "stateMutability": "nonpayable",
      "type": "function"
    },
    {
      "constant": false,
      "inputs": [
        {
          "internalType": "uint256",
          "name": "_id",
          "type": "uint256"
        }
      ],
      "name": "buy",
      "outputs": [],
      "payable": true,
      "stateMutability": "payable",
      "type": "function"
    },
    {
      "constant": false,
      "inputs": [],
      "name": "withdrawPayments",
      "outputs": [],
      "payable": false,
      "stateMutability": "nonpayable",
      "type": "function"
    },
    {
      "constant": true,
      "inputs": [
        {
          "internalType": "uint256",
          "name": "_id",
          "type": "uint256"
        }
      ],
      "name": "getItem",
      "outputs": [
        {
          "internalType": "uint256",
          "name": "",
          "type": "uint256"
        },
        {
          "internalType": "bool",
          "name": "",
          "type": "bool"
        }
      ],
      "payable": false,
      "stateMutability": "view",
      "type": "function"
    },
    {
      "constant": true,
      "inputs": [],
      "name": "getItemCount",
      "outputs": [
        {
          "internalType": "uint256",
          "name": "",
          "type": "uint256"
        }
      ],
      "payable": false,
      "stateMutability": "view",
      "type": "function"
    }
  ],
  "bytecode": "0x608060405234801561001057600080fd5b50604051610efb380380610efb8339818101604052604081101561003357600080fd5b508051602090910151600061004f6001600160e01b036100c216565b600080546001600160a01b0319166001600160a01b0383169081178255604051929350917f8be0079c531659141344cd1fd0a4f28419497f9722a3daafe3b4186f6b6457e0908290a350600180546001600160a01b0319166001600160a01b0393909316929092179091556002556100c6565b3390565b610e26806100d56000396000f3fe6080604052600436106100a75760003560e01c806378bd79351161006457806378bd7935146101985780638da5cb5b146101fe5780638f32d59b14610213578063a792100e1461023c578063d96a094a14610278578063f2fde38b14610295576100a7565b806317fb8594146100a95780633129e773146100d35780636103d70b14610116578063715018a61461012b5780637749cf2314610140578063777f544014610167575b005b3480156100b557600080fd5b506100a7600480360360208110156100cc57600080fd5b50356102c8565b3480156100df57600080fd5b506100fd600480360360208110156100f657600080fd5b503561038c565b6040805192835290151560208301528051918290030190f35b34801561012257600080fd5b506100a7610415565b34801561013757600080fd5b506100a761046f565b34801561014c57600080fd5b50610155610500565b60408051918252519081900360200190f35b34801561017357600080fd5b5061017c610576565b604080516001600160a01b039092168252519081900360200190f35b3480156101a457600080fd5b506101c2600480360360208110156101bb57600080fd5b5035610585565b6040805196875260208701959095528585019390935260608501919091526001600160a01b0316608084015260a0830152519081900360c00190f35b34801561020a57600080fd5b5061017c610641565b34801561021f57600080fd5b50610228610650565b604080519115158252519081900360200190f35b34801561024857600080fd5b506100a76004803603608081101561025f57600080fd5b5080359060208101359060408101359060600135610674565b6100a76004803603602081101561028e57600080fd5b503561098a565b3480156102a157600080fd5b506100a7600480360360208110156102b857600080fd5b50356001600160a01b0316610b28565b6102d0610650565b61030f576040805162461bcd60e51b81526020600482018190526024820152600080516020610da5833981519152604482015290519081900360640190fd5b600154604080516305fee16560e21b81526004810184905290516001600160a01b03909216916317fb8594916024808201926020929091908290030181600087803b15801561035d57600080fd5b505af1158015610371573d6000803e3d6000fd5b505050506040513d602081101561038757600080fd5b505050565b60015460408051633129e77360e01b815260048101849052815160009384936001600160a01b0390911692633129e7739260248083019392829003018186803b1580156103d857600080fd5b505afa1580156103ec573d6000803e3d6000fd5b505050506040513d604081101561040257600080fd5b5080516020909101519092509050915091565b61041d610650565b61045c576040805162461bcd60e51b81526020600482018190526024820152600080516020610da5833981519152604482015290519081900360640190fd5b61046d33303163ffffffff610b7b16565b565b610477610650565b6104b6576040805162461bcd60e51b81526020600482018190526024820152600080516020610da5833981519152604482015290519081900360640190fd5b600080546040516001600160a01b03909116907f8be0079c531659141344cd1fd0a4f28419497f9722a3daafe3b4186f6b6457e0908390a3600080546001600160a01b0319169055565b60015460408051637749cf2360e01b815290516000926001600160a01b031691637749cf23916004808301926020929190829003018186803b15801561054557600080fd5b505afa158015610559573d6000803e3d6000fd5b505050506040513d602081101561056f57600080fd5b5051905090565b6001546001600160a01b031681565b60008060008060008060038054905087106105e7576040805162461bcd60e51b815260206004820152601d60248201527f4974656d53686f703a206e6f6e65786973742061756374696f6e206964000000604482015290519081900360640190fd5b6000600388815481106105f657fe5b6000918252602090912060069091020180546001820154600283015460038401546004850154600590950154939d929c50909a5098506001600160a01b039092169650945092505050565b6000546001600160a01b031690565b600080546001600160a01b0316610665610c61565b6001600160a01b031614905090565b61067c610500565b84106106cf576040805162461bcd60e51b815260206004820152601a60248201527f4974656d53686f703a206e6f6e6578697374206974656d206964000000000000604482015290519081900360640190fd5b6000831180156106df5750600082115b610727576040805162461bcd60e51b81526020600482015260146024820152734974656d53686f703a207a65726f20707269636560601b604482015290519081900360640190fd5b818310156107665760405162461bcd60e51b815260040180806020018281038252602d815260200180610dc5602d913960400191505060405180910390fd5b600081116107bb576040805162461bcd60e51b815260206004820152601760248201527f4974656d53686f703a207a65726f206475726174696f6e000000000000000000604482015290519081900360640190fd5b600154604080516331a9108f60e11b815260048101879052905143926000926001600160a01b0390911691636352211e91602480820192602092909190829003018186803b15801561080c57600080fd5b505afa158015610820573d6000803e3d6000fd5b505050506040513d602081101561083657600080fd5b50519050610842610d05565b506040805160c081018252968752602087019586528601938452606086019283526001600160a01b039081166080870190815260a087019283526003805460018101825560009190915296517fc2575a0e9e593c00f959f8c92f12db2869c3395a3b0502d05e2516446f71f85b60069098029788015594517fc2575a0e9e593c00f959f8c92f12db2869c3395a3b0502d05e2516446f71f85c87015592517fc2575a0e9e593c00f959f8c92f12db2869c3395a3b0502d05e2516446f71f85d86015590517fc2575a0e9e593c00f959f8c92f12db2869c3395a3b0502d05e2516446f71f85e85015591517fc2575a0e9e593c00f959f8c92f12db2869c3395a3b0502d05e2516446f71f85f840180546001600160a01b03191691909216179055517fc2575a0e9e593c00f959f8c92f12db2869c3395a3b0502d05e2516446f71f86090910155565b60015460408051633129e77360e01b81526004810184905281516000936001600160a01b031692633129e7739260248082019391829003018186803b1580156109d257600080fd5b505afa1580156109e6573d6000803e3d6000fd5b505050506040513d60408110156109fc57600080fd5b5051905034670de0b6b3a7640000820214610a4e576040805162461bcd60e51b815260206004820152600d60248201526c496e76616c696420707269636560981b604482015290519081900360640190fd5b60015460408051636cb504a560e11b81526004810185905290516001600160a01b039092169163d96a094a9160248082019260009290919082900301818387803b158015610a9b57600080fd5b505af1158015610aaf573d6000803e3d6000fd5b505060015460408051632142170760e11b81523060048201523360248201526044810187905290516001600160a01b0390921693506342842e0e925060648082019260009290919082900301818387803b158015610b0c57600080fd5b505af1158015610b20573d6000803e3d6000fd5b505050505050565b610b30610650565b610b6f576040805162461bcd60e51b81526020600482018190526024820152600080516020610da5833981519152604482015290519081900360640190fd5b610b7881610c65565b50565b3031811115610bd1576040805162461bcd60e51b815260206004820152601d60248201527f416464726573733a20696e73756666696369656e742062616c616e6365000000604482015290519081900360640190fd5b6040516000906001600160a01b0384169083908381818185875af1925050503d8060008114610c1c576040519150601f19603f3d011682016040523d82523d6000602084013e610c21565b606091505b50509050806103875760405162461bcd60e51b815260040180806020018281038252603a815260200180610d6b603a913960400191505060405180910390fd5b3390565b6001600160a01b038116610caa5760405162461bcd60e51b8152600401808060200182810382526026815260200180610d456026913960400191505060405180910390fd5b600080546040516001600160a01b03808516939216917f8be0079c531659141344cd1fd0a4f28419497f9722a3daafe3b4186f6b6457e091a3600080546001600160a01b0319166001600160a01b0392909216919091179055565b6040518060c001604052806000815260200160008152602001600081526020016000815260200160006001600160a01b0316815260200160008152509056fe4f776e61626c653a206e6577206f776e657220697320746865207a65726f2061646472657373416464726573733a20756e61626c6520746f2073656e642076616c75652c20726563697069656e74206d617920686176652072657665727465644f776e61626c653a2063616c6c6572206973206e6f7420746865206f776e65724974656d53686f703a207374617274207072696365206973206c6f776572207468616e20656e64207072696365a265627a7a7231582008dbdbe01b0be9ab34ec761a283e4c039325b174637a210ed4a3c3af55bc920f64736f6c63430005110032",
  "source": "pragma solidity ^0.5.0;\n\nimport \"./ItemToken.sol\";\nimport \"../node_modules/@openzeppelin/contracts/ownership/Ownable.sol\";\nimport \"../node_modules/@openzeppelin/contracts/utils/Address.sol\";\n\n\ncontract ItemShop is Ownable {\n    using Address for address payable;\n\n    ItemToken public itemToken;\n\n    uint256 secondsPerBlock;\n\n    struct Auction {\n        uint256 tokenId;\n        uint256 startPrice;\n        uint256 endPrice;\n        uint256 duration;\n        address owner;\n        uint256 createdAt;\n    }\n\n    Auction[] auctions;\n\n    constructor(ItemToken _itemToken, uint256 _secondsPerBlock) public {\n        itemToken = _itemToken;\n        secondsPerBlock = _secondsPerBlock;\n    }\n\n    function exhibit(uint256 tokenId, uint256 startPrice, uint256 endPrice, uint256 duration) public {\n        require(tokenId < getItemCount(), \"ItemShop: nonexist item id\");\n        require(startPrice > 0 && endPrice > 0, \"ItemShop: zero price\");\n        require(startPrice >= endPrice, \"ItemShop: start price is lower than end price\");\n        require(duration > 0, \"ItemShop: zero duration\");\n        uint256 createdAt = block.number;\n        address owner = itemToken.ownerOf(tokenId);\n        Auction memory newAuction = Auction(tokenId, startPrice, endPrice, duration, owner, createdAt);\n        auctions.push(newAuction);\n    }\n\n    function getAuction(uint256 _id) public view returns (uint256, uint256, uint256, uint256, address, uint256) {\n        require(_id < auctions.length, \"ItemShop: nonexist auction id\");\n        Auction storage auction = auctions[_id];\n        return (\n            auction.tokenId,\n            auction.startPrice,\n            auction.endPrice,\n            auction.duration,\n            auction.owner,\n            auction.createdAt\n        );\n    }\n\n    function mintItem(uint256 _price) public onlyOwner {\n        itemToken.mintItem(_price);\n    }\n\n    function buy(uint256 _id) public payable {\n        uint256 price;\n        (price, ) = itemToken.getItem(_id);\n        require(msg.value == price * 1 ether, \"Invalid price\");\n        itemToken.buy(_id);\n        itemToken.safeTransferFrom(address(this), msg.sender, _id);\n    }\n\n    function withdrawPayments() public onlyOwner {\n        msg.sender.sendValue(address(this).balance);\n    }\n\n    function getItem(uint256 _id) public view returns (uint256, bool) {\n        return itemToken.getItem(_id);\n    }\n\n    function getItemCount() public view returns (uint256) {\n        return itemToken.getItemCount();\n    }\n\n    function() external payable {} // sendValue's tests require the contract to hold Ether\n}\n",
  "sourcePath": "/Users/tomoki/axelmark_kadai/item-shop/contracts/ItemShop.sol",
  "compiler": {
    "name": "solc",
    "version": "0.5.17+commit.d19bba13.Emscripten.clang"
  },
  "schemaVersion": "3.0.23",
  "updatedAt": "2020-04-16T06:12:06.982Z",
  "devdoc": {
    "methods": {
      "isOwner()": {
        "details": "Returns true if the caller is the current owner."
      },
      "owner()": {
        "details": "Returns the address of the current owner."
      },
      "renounceOwnership()": {
        "details": "Leaves the contract without owner. It will not be possible to call `onlyOwner` functions anymore. Can only be called by the current owner.     * NOTE: Renouncing ownership will leave the contract without an owner, thereby removing any functionality that is only available to the owner."
      },
      "transferOwnership(address)": {
        "details": "Transfers ownership of the contract to a new account (`newOwner`). Can only be called by the current owner."
      }
    }
  },
  "userdoc": {
    "methods": {}
  }
}