{
  "contractName": "ItemShop",
  "abi": [
    {
      "inputs": [
        {
          "internalType": "uint256",
          "name": "_secondsPerBlock",
          "type": "uint256"
        }
      ],
      "payable": false,
      "stateMutability": "nonpayable",
      "type": "constructor"
    },
    {
      "anonymous": false,
      "inputs": [
        {
          "indexed": true,
          "internalType": "address",
          "name": "owner",
          "type": "address"
        },
        {
          "indexed": true,
          "internalType": "address",
          "name": "approved",
          "type": "address"
        },
        {
          "indexed": true,
          "internalType": "uint256",
          "name": "tokenId",
          "type": "uint256"
        }
      ],
      "name": "Approval",
      "type": "event"
    },
    {
      "anonymous": false,
      "inputs": [
        {
          "indexed": true,
          "internalType": "address",
          "name": "owner",
          "type": "address"
        },
        {
          "indexed": true,
          "internalType": "address",
          "name": "operator",
          "type": "address"
        },
        {
          "indexed": false,
          "internalType": "bool",
          "name": "approved",
          "type": "bool"
        }
      ],
      "name": "ApprovalForAll",
      "type": "event"
    },
    {
      "anonymous": false,
      "inputs": [
        {
          "indexed": false,
          "internalType": "uint256",
          "name": "_id",
          "type": "uint256"
        }
      ],
      "name": "Bid",
      "type": "event"
    },
    {
      "anonymous": false,
      "inputs": [
        {
          "indexed": false,
          "internalType": "uint256",
          "name": "_id",
          "type": "uint256"
        }
      ],
      "name": "Exhibit",
      "type": "event"
    },
    {
      "anonymous": false,
      "inputs": [
        {
          "indexed": true,
          "internalType": "address",
          "name": "previousOwner",
          "type": "address"
        },
        {
          "indexed": true,
          "internalType": "address",
          "name": "newOwner",
          "type": "address"
        }
      ],
      "name": "OwnershipTransferred",
      "type": "event"
    },
    {
      "anonymous": false,
      "inputs": [
        {
          "indexed": true,
          "internalType": "address",
          "name": "from",
          "type": "address"
        },
        {
          "indexed": true,
          "internalType": "address",
          "name": "to",
          "type": "address"
        },
        {
          "indexed": true,
          "internalType": "uint256",
          "name": "tokenId",
          "type": "uint256"
        }
      ],
      "name": "Transfer",
      "type": "event"
    },
    {
      "payable": true,
      "stateMutability": "payable",
      "type": "fallback"
    },
    {
      "constant": false,
      "inputs": [
        {
          "internalType": "address",
          "name": "to",
          "type": "address"
        },
        {
          "internalType": "uint256",
          "name": "tokenId",
          "type": "uint256"
        }
      ],
      "name": "approve",
      "outputs": [],
      "payable": false,
      "stateMutability": "nonpayable",
      "type": "function"
    },
    {
      "constant": true,
      "inputs": [
        {
          "internalType": "address",
          "name": "owner",
          "type": "address"
        }
      ],
      "name": "balanceOf",
      "outputs": [
        {
          "internalType": "uint256",
          "name": "",
          "type": "uint256"
        }
      ],
      "payable": false,
      "stateMutability": "view",
      "type": "function"
    },
    {
      "constant": true,
      "inputs": [
        {
          "internalType": "uint256",
          "name": "tokenId",
          "type": "uint256"
        }
      ],
      "name": "getApproved",
      "outputs": [
        {
          "internalType": "address",
          "name": "",
          "type": "address"
        }
      ],
      "payable": false,
      "stateMutability": "view",
      "type": "function"
    },
    {
      "constant": true,
      "inputs": [
        {
          "internalType": "uint256",
          "name": "_id",
          "type": "uint256"
        }
      ],
      "name": "getItem",
      "outputs": [
        {
          "internalType": "uint256",
          "name": "",
          "type": "uint256"
        },
        {
          "internalType": "bool",
          "name": "",
          "type": "bool"
        },
        {
          "internalType": "address",
          "name": "",
          "type": "address"
        }
      ],
      "payable": false,
      "stateMutability": "view",
      "type": "function"
    },
    {
      "constant": true,
      "inputs": [],
      "name": "getItemCount",
      "outputs": [
        {
          "internalType": "uint256",
          "name": "",
          "type": "uint256"
        }
      ],
      "payable": false,
      "stateMutability": "view",
      "type": "function"
    },
    {
      "constant": true,
      "inputs": [
        {
          "internalType": "address",
          "name": "owner",
          "type": "address"
        },
        {
          "internalType": "address",
          "name": "operator",
          "type": "address"
        }
      ],
      "name": "isApprovedForAll",
      "outputs": [
        {
          "internalType": "bool",
          "name": "",
          "type": "bool"
        }
      ],
      "payable": false,
      "stateMutability": "view",
      "type": "function"
    },
    {
      "constant": true,
      "inputs": [],
      "name": "isOwner",
      "outputs": [
        {
          "internalType": "bool",
          "name": "",
          "type": "bool"
        }
      ],
      "payable": false,
      "stateMutability": "view",
      "type": "function"
    },
    {
      "constant": true,
      "inputs": [
        {
          "internalType": "uint256",
          "name": "",
          "type": "uint256"
        }
      ],
      "name": "items",
      "outputs": [
        {
          "internalType": "uint256",
          "name": "price",
          "type": "uint256"
        },
        {
          "internalType": "bool",
          "name": "sold",
          "type": "bool"
        }
      ],
      "payable": false,
      "stateMutability": "view",
      "type": "function"
    },
    {
      "constant": false,
      "inputs": [
        {
          "internalType": "uint256",
          "name": "_price",
          "type": "uint256"
        }
      ],
      "name": "mintItem",
      "outputs": [
        {
          "internalType": "uint256",
          "name": "",
          "type": "uint256"
        }
      ],
      "payable": false,
      "stateMutability": "nonpayable",
      "type": "function"
    },
    {
      "constant": true,
      "inputs": [],
      "name": "owner",
      "outputs": [
        {
          "internalType": "address",
          "name": "",
          "type": "address"
        }
      ],
      "payable": false,
      "stateMutability": "view",
      "type": "function"
    },
    {
      "constant": true,
      "inputs": [
        {
          "internalType": "uint256",
          "name": "tokenId",
          "type": "uint256"
        }
      ],
      "name": "ownerOf",
      "outputs": [
        {
          "internalType": "address",
          "name": "",
          "type": "address"
        }
      ],
      "payable": false,
      "stateMutability": "view",
      "type": "function"
    },
    {
      "constant": false,
      "inputs": [],
      "name": "renounceOwnership",
      "outputs": [],
      "payable": false,
      "stateMutability": "nonpayable",
      "type": "function"
    },
    {
      "constant": false,
      "inputs": [
        {
          "internalType": "address",
          "name": "from",
          "type": "address"
        },
        {
          "internalType": "address",
          "name": "to",
          "type": "address"
        },
        {
          "internalType": "uint256",
          "name": "tokenId",
          "type": "uint256"
        }
      ],
      "name": "safeTransferFrom",
      "outputs": [],
      "payable": false,
      "stateMutability": "nonpayable",
      "type": "function"
    },
    {
      "constant": false,
      "inputs": [
        {
          "internalType": "address",
          "name": "from",
          "type": "address"
        },
        {
          "internalType": "address",
          "name": "to",
          "type": "address"
        },
        {
          "internalType": "uint256",
          "name": "tokenId",
          "type": "uint256"
        },
        {
          "internalType": "bytes",
          "name": "_data",
          "type": "bytes"
        }
      ],
      "name": "safeTransferFrom",
      "outputs": [],
      "payable": false,
      "stateMutability": "nonpayable",
      "type": "function"
    },
    {
      "constant": false,
      "inputs": [
        {
          "internalType": "address",
          "name": "to",
          "type": "address"
        },
        {
          "internalType": "bool",
          "name": "approved",
          "type": "bool"
        }
      ],
      "name": "setApprovalForAll",
      "outputs": [],
      "payable": false,
      "stateMutability": "nonpayable",
      "type": "function"
    },
    {
      "constant": true,
      "inputs": [
        {
          "internalType": "bytes4",
          "name": "interfaceId",
          "type": "bytes4"
        }
      ],
      "name": "supportsInterface",
      "outputs": [
        {
          "internalType": "bool",
          "name": "",
          "type": "bool"
        }
      ],
      "payable": false,
      "stateMutability": "view",
      "type": "function"
    },
    {
      "constant": false,
      "inputs": [
        {
          "internalType": "address",
          "name": "from",
          "type": "address"
        },
        {
          "internalType": "address",
          "name": "to",
          "type": "address"
        },
        {
          "internalType": "uint256",
          "name": "tokenId",
          "type": "uint256"
        }
      ],
      "name": "transferFrom",
      "outputs": [],
      "payable": false,
      "stateMutability": "nonpayable",
      "type": "function"
    },
    {
      "constant": false,
      "inputs": [
        {
          "internalType": "address",
          "name": "newOwner",
          "type": "address"
        }
      ],
      "name": "transferOwnership",
      "outputs": [],
      "payable": false,
      "stateMutability": "nonpayable",
      "type": "function"
    },
    {
      "constant": true,
      "inputs": [
        {
          "internalType": "uint256",
          "name": "",
          "type": "uint256"
        }
      ],
      "name": "valid",
      "outputs": [
        {
          "internalType": "bool",
          "name": "",
          "type": "bool"
        }
      ],
      "payable": false,
      "stateMutability": "view",
      "type": "function"
    },
    {
      "constant": false,
      "inputs": [
        {
          "internalType": "uint256",
          "name": "tokenId",
          "type": "uint256"
        },
        {
          "internalType": "uint256",
          "name": "startPrice",
          "type": "uint256"
        },
        {
          "internalType": "uint256",
          "name": "endPrice",
          "type": "uint256"
        },
        {
          "internalType": "uint256",
          "name": "duration",
          "type": "uint256"
        }
      ],
      "name": "exhibit",
      "outputs": [],
      "payable": false,
      "stateMutability": "nonpayable",
      "type": "function"
    },
    {
      "constant": true,
      "inputs": [
        {
          "internalType": "uint256",
          "name": "_id",
          "type": "uint256"
        }
      ],
      "name": "getAuction",
      "outputs": [
        {
          "internalType": "uint256",
          "name": "",
          "type": "uint256"
        },
        {
          "internalType": "uint256",
          "name": "",
          "type": "uint256"
        },
        {
          "internalType": "uint256",
          "name": "",
          "type": "uint256"
        },
        {
          "internalType": "uint256",
          "name": "",
          "type": "uint256"
        },
        {
          "internalType": "address",
          "name": "",
          "type": "address"
        },
        {
          "internalType": "uint256",
          "name": "",
          "type": "uint256"
        }
      ],
      "payable": false,
      "stateMutability": "view",
      "type": "function"
    },
    {
      "constant": true,
      "inputs": [
        {
          "internalType": "uint256",
          "name": "startPrice",
          "type": "uint256"
        },
        {
          "internalType": "uint256",
          "name": "endPrice",
          "type": "uint256"
        },
        {
          "internalType": "uint256",
          "name": "duration",
          "type": "uint256"
        },
        {
          "internalType": "uint256",
          "name": "createdAt",
          "type": "uint256"
        },
        {
          "internalType": "uint256",
          "name": "nowSecond",
          "type": "uint256"
        }
      ],
      "name": "getCurrentPrice",
      "outputs": [
        {
          "internalType": "uint256",
          "name": "",
          "type": "uint256"
        }
      ],
      "payable": false,
      "stateMutability": "pure",
      "type": "function"
    },
    {
      "constant": false,
      "inputs": [
        {
          "internalType": "uint256",
          "name": "_id",
          "type": "uint256"
        }
      ],
      "name": "bid",
      "outputs": [],
      "payable": true,
      "stateMutability": "payable",
      "type": "function"
    },
    {
      "constant": true,
      "inputs": [
        {
          "internalType": "uint256",
          "name": "_id",
          "type": "uint256"
        }
      ],
      "name": "getCurrentPriceById",
      "outputs": [
        {
          "internalType": "uint256",
          "name": "",
          "type": "uint256"
        }
      ],
      "payable": false,
      "stateMutability": "view",
      "type": "function"
    },
    {
      "constant": false,
      "inputs": [
        {
          "internalType": "uint256",
          "name": "_id",
          "type": "uint256"
        }
      ],
      "name": "buy",
      "outputs": [],
      "payable": true,
      "stateMutability": "payable",
      "type": "function"
    },
    {
      "constant": false,
      "inputs": [],
      "name": "withdrawPayments",
      "outputs": [],
      "payable": false,
      "stateMutability": "nonpayable",
      "type": "function"
    },
    {
      "constant": true,
      "inputs": [],
      "name": "getAuctionCount",
      "outputs": [
        {
          "internalType": "uint256",
          "name": "",
          "type": "uint256"
        }
      ],
      "payable": false,
      "stateMutability": "view",
      "type": "function"
    }
  ],
  "bytecode": "0x60806040523480156200001157600080fd5b50604051620023d3380380620023d3833981810160405260208110156200003757600080fd5b505160006200004e6001600160e01b036200010916565b600080546001600160a01b0319166001600160a01b0383169081178255604051929350917f8be0079c531659141344cd1fd0a4f28419497f9722a3daafe3b4186f6b6457e0908290a350620000cc7f01ffc9a7000000000000000000000000000000000000000000000000000000006001600160e01b036200010d16565b620001007f80ac58cd000000000000000000000000000000000000000000000000000000006001600160e01b036200010d16565b600755620001df565b3390565b7fffffffff0000000000000000000000000000000000000000000000000000000080821614156200019f57604080517f08c379a000000000000000000000000000000000000000000000000000000000815260206004820152601c60248201527f4552433136353a20696e76616c696420696e7465726661636520696400000000604482015290519081900360640190fd5b7fffffffff00000000000000000000000000000000000000000000000000000000166000908152600160208190526040909120805460ff19169091179055565b6121e480620001ef6000396000f3fe60806040526004361061019c5760003560e01c80637749cf23116100ec578063b88d4fde1161008a578063c44e664011610064578063c44e6640146106e4578063d96a094a146106f9578063e985e9c514610716578063f2fde38b146107515761019c565b8063b88d4fde146105a4578063bf8712c514610677578063bfb231d2146106a15761019c565b80638f32d59b116100c65780638f32d59b146104d6578063a22cb465146104eb578063a792100e14610526578063b4a8d584146105625761019c565b80637749cf231461044657806378bd79351461045b5780638da5cb5b146104c15761019c565b806342842e0e116101595780636352211e116101335780636352211e146103aa578063707dc60f146103d457806370a08231146103fe578063715018a6146104315761019c565b806342842e0e14610335578063454a2ab3146103785780636103d70b146103955761019c565b806301ffc9a71461019e578063081812fc146101e6578063095ea7b31461022c57806317fb85941461026557806323b872dd146102a15780633129e773146102e4575b005b3480156101aa57600080fd5b506101d2600480360360208110156101c157600080fd5b50356001600160e01b031916610784565b604080519115158252519081900360200190f35b3480156101f257600080fd5b506102106004803603602081101561020957600080fd5b50356107a7565b604080516001600160a01b039092168252519081900360200190f35b34801561023857600080fd5b5061019c6004803603604081101561024f57600080fd5b506001600160a01b038135169060200135610809565b34801561027157600080fd5b5061028f6004803603602081101561028857600080fd5b5035610931565b60408051918252519081900360200190f35b3480156102ad57600080fd5b5061019c600480360360608110156102c457600080fd5b506001600160a01b03813581169160208101359091169060400135610a13565b3480156102f057600080fd5b5061030e6004803603602081101561030757600080fd5b5035610a6f565b6040805193845291151560208401526001600160a01b031682820152519081900360600190f35b34801561034157600080fd5b5061019c6004803603606081101561035857600080fd5b506001600160a01b03813581169160208101359091169060400135610b24565b61019c6004803603602081101561038e57600080fd5b5035610b3f565b3480156103a157600080fd5b5061019c610cf2565b3480156103b657600080fd5b50610210600480360360208110156103cd57600080fd5b5035610d4c565b3480156103e057600080fd5b5061028f600480360360208110156103f757600080fd5b5035610da0565b34801561040a57600080fd5b5061028f6004803603602081101561042157600080fd5b50356001600160a01b0316610e05565b34801561043d57600080fd5b5061019c610e6d565b34801561045257600080fd5b5061028f610efe565b34801561046757600080fd5b506104856004803603602081101561047e57600080fd5b5035610f04565b6040805196875260208701959095528585019390935260608501919091526001600160a01b0316608084015260a0830152519081900360c00190f35b3480156104cd57600080fd5b50610210610fc0565b3480156104e257600080fd5b506101d2610fcf565b3480156104f757600080fd5b5061019c6004803603604081101561050e57600080fd5b506001600160a01b0381351690602001351515610ff3565b34801561053257600080fd5b5061019c6004803603608081101561054957600080fd5b50803590602081013590604081013590606001356110f8565b34801561056e57600080fd5b5061028f600480360360a081101561058557600080fd5b5080359060208101359060408101359060608101359060800135611456565b3480156105b057600080fd5b5061019c600480360360808110156105c757600080fd5b6001600160a01b0382358116926020810135909116916040820135919081019060808101606082013564010000000081111561060257600080fd5b82018360208201111561061457600080fd5b8035906020019184600183028401116401000000008311171561063657600080fd5b91908080601f01602080910402602001604051908101604052809392919081815260200183838082843760009201919091525092955061148d945050505050565b34801561068357600080fd5b506101d26004803603602081101561069a57600080fd5b50356114eb565b3480156106ad57600080fd5b506106cb600480360360208110156106c457600080fd5b5035611500565b6040805192835290151560208301528051918290030190f35b3480156106f057600080fd5b5061028f61152e565b61019c6004803603602081101561070f57600080fd5b5035611534565b34801561072257600080fd5b506101d26004803603604081101561073957600080fd5b506001600160a01b03813581169160200135166115aa565b34801561075d57600080fd5b5061019c6004803603602081101561077457600080fd5b50356001600160a01b03166115d8565b6001600160e01b0319811660009081526001602052604090205460ff165b919050565b60006107b28261162b565b6107ed5760405162461bcd60e51b815260040180806020018281038252602c8152602001806120bc602c913960400191505060405180910390fd5b506000908152600360205260409020546001600160a01b031690565b600061081482610d4c565b9050806001600160a01b0316836001600160a01b031614156108675760405162461bcd60e51b815260040180806020018281038252602181526020018061215e6021913960400191505060405180910390fd5b806001600160a01b0316610879611648565b6001600160a01b0316148061089a575061089a81610895611648565b6115aa565b6108d55760405162461bcd60e51b815260040180806020018281038252603881526020018061200b6038913960400191505060405180910390fd5b60008281526003602052604080822080546001600160a01b0319166001600160a01b0387811691821790925591518593918516917f8c5be1e5ebec7d5bd14f71427d1e84f3dd0314c0f7b2291e5b200ac8c7c3b92591a4505050565b600061093b610fcf565b61097a576040805162461bcd60e51b815260206004820181905260248201526000805160206120e8833981519152604482015290519081900360640190fd5b60408051808201909152828152600060208201818152600680546001810182559281905292517ff652222313e28459528d920b65115c16c04f3efc82aaedc97be59f3f377c0d3f600290930292830155517ff652222313e28459528d920b65115c16c04f3efc82aaedc97be59f3f377c0d40909101805460ff19169115159190911790555460001901610a0d338261164c565b92915050565b610a24610a1e611648565b8261177d565b610a5f5760405162461bcd60e51b815260040180806020018281038252603181526020018061217f6031913960400191505060405180910390fd5b610a6a838383611821565b505050565b60008060008360068054905081108015610a87575060015b610aca576040805162461bcd60e51b815260206004820152600f60248201526e125b9d985b1a59081a5d195b481a59608a1b604482015290519081900360640190fd5b60068581548110610ad757fe5b90600052602060002090600202016000015460068681548110610af657fe5b600091825260209091206001600290920201015460ff16610b1687610d4c565b935093509350509193909250565b610a6a8383836040518060200160405280600081525061148d565b60008181526009602052604090205460ff16610ba2576040805162461bcd60e51b815260206004820152601960248201527f4974656d53686f703a20696e76616c69642061756374696f6e00000000000000604482015290519081900360640190fd5b6000610bad82610da0565b905080670de0b6b3a764000002341015610c0e576040805162461bcd60e51b815260206004820152601760248201527f4974656d53686f703a20696e76616c6964207072696365000000000000000000604482015290519081900360640190fd5b600060088381548110610c1d57fe5b6000918252602080832060046006909302018281015487855260099092526040808520805460ff1916905581548151632142170760e11b81526001600160a01b03909416948401859052336024850152604484018190529051919550929330926342842e0e926064808301939282900301818387803b158015610c9f57600080fd5b505af1158015610cb3573d6000803e3d6000fd5b50506040805188815290517f7a183e84509e3fe5b0b3aac15347fd1c7d71fd1503001f1a1d7c9658077eb35f9350908190036020019150a15050505050565b610cfa610fcf565b610d39576040805162461bcd60e51b815260206004820181905260248201526000805160206120e8833981519152604482015290519081900360640190fd5b610d4a33303163ffffffff61196516565b565b6000818152600260205260408120546001600160a01b031680610a0d5760405162461bcd60e51b815260040180806020018281038252602981526020018061206d6029913960400191505060405180910390fd5b60008181526009602052604081205460ff16610dbe575060006107a2565b600060088381548110610dcd57fe5b90600052602060002090600602019050610dfe81600101548260020154836003015484600501546007544302611456565b9392505050565b60006001600160a01b038216610e4c5760405162461bcd60e51b815260040180806020018281038252602a815260200180612043602a913960400191505060405180910390fd5b6001600160a01b0382166000908152600460205260409020610a0d90611a4b565b610e75610fcf565b610eb4576040805162461bcd60e51b815260206004820181905260248201526000805160206120e8833981519152604482015290519081900360640190fd5b600080546040516001600160a01b03909116907f8be0079c531659141344cd1fd0a4f28419497f9722a3daafe3b4186f6b6457e0908390a3600080546001600160a01b0319169055565b60065490565b6000806000806000806008805490508710610f66576040805162461bcd60e51b815260206004820152601d60248201527f4974656d53686f703a206e6f6e65786973742061756374696f6e206964000000604482015290519081900360640190fd5b600060088881548110610f7557fe5b6000918252602090912060069091020180546001820154600283015460038401546004850154600590950154939d929c50909a5098506001600160a01b039092169650945092505050565b6000546001600160a01b031690565b600080546001600160a01b0316610fe4611648565b6001600160a01b031614905090565b610ffb611648565b6001600160a01b0316826001600160a01b03161415611061576040805162461bcd60e51b815260206004820152601960248201527f4552433732313a20617070726f766520746f2063616c6c657200000000000000604482015290519081900360640190fd5b806005600061106e611648565b6001600160a01b03908116825260208083019390935260409182016000908120918716808252919093529120805460ff1916921515929092179091556110b2611648565b60408051841515815290516001600160a01b0392909216917f17307eab39ab6107e8899845ad3d59bd9653f200f220920489ca2b5937696c319181900360200190a35050565b611100610efe565b8410611153576040805162461bcd60e51b815260206004820152601a60248201527f4974656d53686f703a206e6f6e6578697374206974656d206964000000000000604482015290519081900360640190fd5b3361115d85610d4c565b6001600160a01b0316146111a25760405162461bcd60e51b81526004018080602001828103825260268152602001806120966026913960400191505060405180910390fd5b6000831180156111b25750600082115b6111fa576040805162461bcd60e51b81526020600482015260146024820152734974656d53686f703a207a65726f20707269636560601b604482015290519081900360640190fd5b818310156112395760405162461bcd60e51b815260040180806020018281038252602d815260200180612131602d913960400191505060405180910390fd5b6000811161128e576040805162461bcd60e51b815260206004820152601760248201527f4974656d53686f703a207a65726f206475726174696f6e000000000000000000604482015290519081900360640190fd5b6007544302600061129e86610d4c565b90506112a8611ee9565b506040805160c0810182528781526020808201888152828401888152606084018881526001600160a01b038781166080870190815260a087018a8152600880546001808201835560009283528a517ff3f7a9fe364faab93b216da50a3214154f22a0a2b415b23a84c8169e8b636ee3600684029081019190915598517ff3f7a9fe364faab93b216da50a3214154f22a0a2b415b23a84c8169e8b636ee48a015596517ff3f7a9fe364faab93b216da50a3214154f22a0a2b415b23a84c8169e8b636ee589015594517ff3f7a9fe364faab93b216da50a3214154f22a0a2b415b23a84c8169e8b636ee688015591517ff3f7a9fe364faab93b216da50a3214154f22a0a2b415b23a84c8169e8b636ee7870180546001600160a01b031916919094161790925590517ff3f7a9fe364faab93b216da50a3214154f22a0a2b415b23a84c8169e8b636ee8909401939093558083526009909352939020805460ff1916909317909255906114193089610809565b6040805182815290517fc7563c05ae82d139a49da022e12939acb0b80206e72786aa5adf9c2726650f029181900360200190a15050505050505050565b600082820384811061146b5785915050611484565b8587036000868383028161147b57fe5b04890393505050505b95945050505050565b61149e611498611648565b8361177d565b6114d95760405162461bcd60e51b815260040180806020018281038252603181526020018061217f6031913960400191505060405180910390fd5b6114e584848484611a4f565b50505050565b60096020526000908152604090205460ff1681565b6006818154811061150d57fe5b60009182526020909120600290910201805460019091015490915060ff1682565b60085490565b600061153f82610a6f565b509091505034670de0b6b3a7640000820214611592576040805162461bcd60e51b815260206004820152600d60248201526c496e76616c696420707269636560981b604482015290519081900360640190fd5b61159b82611534565b6115a6303384610b24565b5050565b6001600160a01b03918216600090815260056020908152604080832093909416825291909152205460ff1690565b6115e0610fcf565b61161f576040805162461bcd60e51b815260206004820181905260248201526000805160206120e8833981519152604482015290519081900360640190fd5b61162881611aa1565b50565b6000908152600260205260409020546001600160a01b0316151590565b3390565b6001600160a01b0382166116a7576040805162461bcd60e51b815260206004820181905260248201527f4552433732313a206d696e7420746f20746865207a65726f2061646472657373604482015290519081900360640190fd5b6116b08161162b565b15611702576040805162461bcd60e51b815260206004820152601c60248201527f4552433732313a20746f6b656e20616c7265616479206d696e74656400000000604482015290519081900360640190fd5b600081815260026020908152604080832080546001600160a01b0319166001600160a01b03871690811790915583526004909152902061174190611b41565b60405181906001600160a01b038416906000907fddf252ad1be2c89b69c2b068fc378daa952ba7f163c4a11628f55a4df523b3ef908290a45050565b60006117888261162b565b6117c35760405162461bcd60e51b815260040180806020018281038252602c815260200180611fdf602c913960400191505060405180910390fd5b60006117ce83610d4c565b9050806001600160a01b0316846001600160a01b031614806118095750836001600160a01b03166117fe846107a7565b6001600160a01b0316145b80611819575061181981856115aa565b949350505050565b826001600160a01b031661183482610d4c565b6001600160a01b0316146118795760405162461bcd60e51b81526004018080602001828103825260298152602001806121086029913960400191505060405180910390fd5b6001600160a01b0382166118be5760405162461bcd60e51b8152600401808060200182810382526024815260200180611f816024913960400191505060405180910390fd5b6118c781611b4a565b6001600160a01b03831660009081526004602052604090206118e890611b85565b6001600160a01b038216600090815260046020526040902061190990611b41565b60008181526002602052604080822080546001600160a01b0319166001600160a01b0386811691821790925591518493918716917fddf252ad1be2c89b69c2b068fc378daa952ba7f163c4a11628f55a4df523b3ef91a4505050565b30318111156119bb576040805162461bcd60e51b815260206004820152601d60248201527f416464726573733a20696e73756666696369656e742062616c616e6365000000604482015290519081900360640190fd5b6040516000906001600160a01b0384169083908381818185875af1925050503d8060008114611a06576040519150601f19603f3d011682016040523d82523d6000602084013e611a0b565b606091505b5050905080610a6a5760405162461bcd60e51b815260040180806020018281038252603a815260200180611fa5603a913960400191505060405180910390fd5b5490565b611a5a848484611821565b611a6684848484611b9c565b6114e55760405162461bcd60e51b8152600401808060200182810382526032815260200180611f296032913960400191505060405180910390fd5b6001600160a01b038116611ae65760405162461bcd60e51b8152600401808060200182810382526026815260200180611f5b6026913960400191505060405180910390fd5b600080546040516001600160a01b03808516939216917f8be0079c531659141344cd1fd0a4f28419497f9722a3daafe3b4186f6b6457e091a3600080546001600160a01b0319166001600160a01b0392909216919091179055565b80546001019055565b6000818152600360205260409020546001600160a01b03161561162857600090815260036020526040902080546001600160a01b0319169055565b8054611b9890600163ffffffff611dd716565b9055565b6000611bb0846001600160a01b0316611e19565b611bbc57506001611819565b600060606001600160a01b038616630a85bd0160e11b611bda611648565b89888860405160240180856001600160a01b03166001600160a01b03168152602001846001600160a01b03166001600160a01b0316815260200183815260200180602001828103825283818151815260200191508051906020019080838360005b83811015611c53578181015183820152602001611c3b565b50505050905090810190601f168015611c805780820380516001836020036101000a031916815260200191505b5060408051601f198184030181529181526020820180516001600160e01b03166001600160e01b0319909a16999099178952518151919890975087965094509250829150849050835b60208310611ce85780518252601f199092019160209182019101611cc9565b6001836020036101000a0380198251168184511680821785525050505050509050019150506000604051808303816000865af19150503d8060008114611d4a576040519150601f19603f3d011682016040523d82523d6000602084013e611d4f565b606091505b509150915081611da057805115611d695780518082602001fd5b60405162461bcd60e51b8152600401808060200182810382526032815260200180611f296032913960400191505060405180910390fd5b6000818060200190516020811015611db757600080fd5b50516001600160e01b031916630a85bd0160e11b14935061181992505050565b6000610dfe83836040518060400160405280601e81526020017f536166654d6174683a207375627472616374696f6e206f766572666c6f770000815250611e52565b6000813f7fc5d2460186f7233c927e7db2dcc703c0e500b653ca82273b7bfad8045d85a470818114801590611819575050151592915050565b60008184841115611ee15760405162461bcd60e51b81526004018080602001828103825283818151815260200191508051906020019080838360005b83811015611ea6578181015183820152602001611e8e565b50505050905090810190601f168015611ed35780820380516001836020036101000a031916815260200191505b509250505060405180910390fd5b505050900390565b6040518060c001604052806000815260200160008152602001600081526020016000815260200160006001600160a01b0316815260200160008152509056fe4552433732313a207472616e7366657220746f206e6f6e20455243373231526563656976657220696d706c656d656e7465724f776e61626c653a206e6577206f776e657220697320746865207a65726f20616464726573734552433732313a207472616e7366657220746f20746865207a65726f2061646472657373416464726573733a20756e61626c6520746f2073656e642076616c75652c20726563697069656e74206d617920686176652072657665727465644552433732313a206f70657261746f7220717565727920666f72206e6f6e6578697374656e7420746f6b656e4552433732313a20617070726f76652063616c6c6572206973206e6f74206f776e6572206e6f7220617070726f76656420666f7220616c6c4552433732313a2062616c616e636520717565727920666f7220746865207a65726f20616464726573734552433732313a206f776e657220717565727920666f72206e6f6e6578697374656e7420746f6b656e4974656d53686f703a2065786968696269742063616c6c6572206973206e6f74206f776e65724552433732313a20617070726f76656420717565727920666f72206e6f6e6578697374656e7420746f6b656e4f776e61626c653a2063616c6c6572206973206e6f7420746865206f776e65724552433732313a207472616e73666572206f6620746f6b656e2074686174206973206e6f74206f776e4974656d53686f703a207374617274207072696365206973206c6f776572207468616e20656e642070726963654552433732313a20617070726f76616c20746f2063757272656e74206f776e65724552433732313a207472616e736665722063616c6c6572206973206e6f74206f776e6572206e6f7220617070726f766564a265627a7a723158202671f0e586e55443c6dd47fbb27dca91f12a7d897a8d03999e0b4695b151907464736f6c63430005110032",
  "source": "pragma solidity ^0.5.0;\n\nimport \"./ItemToken.sol\";\nimport \"../node_modules/@openzeppelin/contracts/ownership/Ownable.sol\";\nimport \"../node_modules/@openzeppelin/contracts/utils/Address.sol\";\n\n\ncontract ItemShop is ItemToken {\n    event Exhibit(uint256 _id);\n    event Bid(uint256 _id);\n    using Address for address payable;\n\n    uint256 secondsPerBlock;\n\n    struct Auction {\n        uint256 tokenId;\n        uint256 startPrice;\n        uint256 endPrice;\n        uint256 duration;\n        address owner;\n        uint256 createdAt;\n    }\n\n    Auction[] auctions;\n\n    mapping(uint256 => bool) public valid;\n\n    constructor(uint256 _secondsPerBlock) public {\n        secondsPerBlock = _secondsPerBlock;\n    }\n\n    function exhibit(uint256 tokenId, uint256 startPrice, uint256 endPrice, uint256 duration) public {\n        require(tokenId < getItemCount(), \"ItemShop: nonexist item id\");\n        require(ownerOf(tokenId) == msg.sender, \"ItemShop: exihibit caller is not owner\");\n        require(startPrice > 0 && endPrice > 0, \"ItemShop: zero price\");\n        require(startPrice >= endPrice, \"ItemShop: start price is lower than end price\");\n        require(duration > 0, \"ItemShop: zero duration\");\n        uint256 createdAt = block.number * secondsPerBlock;\n        address owner = ownerOf(tokenId);\n        Auction memory newAuction = Auction(tokenId, startPrice, endPrice, duration, owner, createdAt);\n        uint256 newId = auctions.push(newAuction) - 1;\n        valid[newId] = true;\n        approve(address(this), tokenId);\n        emit Exhibit(newId);\n    }\n\n    function getAuction(uint256 _id) public view returns (uint256, uint256, uint256, uint256, address, uint256) {\n        require(_id < auctions.length, \"ItemShop: nonexist auction id\");\n        Auction storage auction = auctions[_id];\n        return (\n            auction.tokenId,\n            auction.startPrice,\n            auction.endPrice,\n            auction.duration,\n            auction.owner,\n            auction.createdAt\n        );\n    }\n\n    function getCurrentPrice(\n        uint256 startPrice,\n        uint256 endPrice,\n        uint256 duration,\n        uint256 createdAt,\n        uint256 nowSecond\n    ) public pure returns (uint256) {\n        uint256 secondsPassed = nowSecond - createdAt;\n        if (secondsPassed >= duration) {\n            return endPrice;\n        }\n        uint256 totalPriceChange = startPrice - endPrice;\n        uint256 currentPriceChange = (totalPriceChange * secondsPassed) / duration;\n        uint256 currentPrice = startPrice - currentPriceChange;\n\n        return currentPrice;\n    }\n\n    function bid(uint256 _id) public payable {\n        require(valid[_id], \"ItemShop: invalid auction\");\n        uint256 price = getCurrentPriceById(_id);\n        require(msg.value >= price * 1 ether, \"ItemShop: invalid price\");\n        Auction storage auction = auctions[_id];\n        address payable owner = address(uint160(auction.owner));\n        delete valid[_id];\n        uint256 tokenId = auction.tokenId;\n        this.safeTransferFrom(owner, msg.sender, tokenId);\n        emit Bid(_id);\n    }\n\n    function getCurrentPriceById(uint256 _id) public view returns (uint256) {\n        // revert\n        if (!valid[_id]) return 0;\n        Auction storage auction = auctions[_id];\n        return\n            getCurrentPrice(\n                auction.startPrice,\n                auction.endPrice,\n                auction.duration,\n                auction.createdAt,\n                block.number * secondsPerBlock\n            );\n    }\n\n    function buy(uint256 _id) public payable {\n        uint256 price;\n        (price, , ) = getItem(_id);\n        require(msg.value == price * 1 ether, \"Invalid price\");\n        buy(_id);\n        safeTransferFrom(address(this), msg.sender, _id);\n    }\n\n    function withdrawPayments() public onlyOwner {\n        msg.sender.sendValue(address(this).balance);\n    }\n\n    function getAuctionCount() public view returns (uint256) {\n        return auctions.length;\n    }\n\n    function() external payable {} // sendValue's tests require the contract to hold Ether\n}\n",
  "sourcePath": "/Users/tomoki/axelmark_kadai/item-shop/contracts/ItemShop.sol",
  "compiler": {
    "name": "solc",
    "version": "0.5.17+commit.d19bba13.Emscripten.clang"
  },
  "schemaVersion": "3.0.23",
  "updatedAt": "2020-04-21T01:16:47.694Z",
  "networkType": "ethereum",
  "devdoc": {
    "methods": {
      "approve(address,uint256)": {
        "details": "Approves another address to transfer the given token ID The zero address indicates there is no approved address. There can only be one approved address per token at a given time. Can only be called by the token owner or an approved operator.",
        "params": {
          "to": "address to be approved for the given token ID",
          "tokenId": "uint256 ID of the token to be approved"
        }
      },
      "balanceOf(address)": {
        "details": "Gets the balance of the specified address.",
        "params": {
          "owner": "address to query the balance of"
        },
        "return": "uint256 representing the amount owned by the passed address"
      },
      "getApproved(uint256)": {
        "details": "Gets the approved address for a token ID, or zero if no address set Reverts if the token ID does not exist.",
        "params": {
          "tokenId": "uint256 ID of the token to query the approval of"
        },
        "return": "address currently approved for the given token ID"
      },
      "isApprovedForAll(address,address)": {
        "details": "Tells whether an operator is approved by a given owner.",
        "params": {
          "operator": "operator address which you want to query the approval of",
          "owner": "owner address which you want to query the approval of"
        },
        "return": "bool whether the given operator is approved by the given owner"
      },
      "isOwner()": {
        "details": "Returns true if the caller is the current owner."
      },
      "owner()": {
        "details": "Returns the address of the current owner."
      },
      "ownerOf(uint256)": {
        "details": "Gets the owner of the specified token ID.",
        "params": {
          "tokenId": "uint256 ID of the token to query the owner of"
        },
        "return": "address currently marked as the owner of the given token ID"
      },
      "renounceOwnership()": {
        "details": "Leaves the contract without owner. It will not be possible to call `onlyOwner` functions anymore. Can only be called by the current owner.     * NOTE: Renouncing ownership will leave the contract without an owner, thereby removing any functionality that is only available to the owner."
      },
      "safeTransferFrom(address,address,uint256)": {
        "details": "Safely transfers the ownership of a given token ID to another address If the target address is a contract, it must implement {IERC721Receiver-onERC721Received}, which is called upon a safe transfer, and return the magic value `bytes4(keccak256(\"onERC721Received(address,address,uint256,bytes)\"))`; otherwise, the transfer is reverted. Requires the msg.sender to be the owner, approved, or operator",
        "params": {
          "from": "current owner of the token",
          "to": "address to receive the ownership of the given token ID",
          "tokenId": "uint256 ID of the token to be transferred"
        }
      },
      "safeTransferFrom(address,address,uint256,bytes)": {
        "details": "Safely transfers the ownership of a given token ID to another address If the target address is a contract, it must implement {IERC721Receiver-onERC721Received}, which is called upon a safe transfer, and return the magic value `bytes4(keccak256(\"onERC721Received(address,address,uint256,bytes)\"))`; otherwise, the transfer is reverted. Requires the _msgSender() to be the owner, approved, or operator",
        "params": {
          "_data": "bytes data to send along with a safe transfer check",
          "from": "current owner of the token",
          "to": "address to receive the ownership of the given token ID",
          "tokenId": "uint256 ID of the token to be transferred"
        }
      },
      "setApprovalForAll(address,bool)": {
        "details": "Sets or unsets the approval of a given operator An operator is allowed to transfer all tokens of the sender on their behalf.",
        "params": {
          "approved": "representing the status of the approval to be set",
          "to": "operator address to set the approval"
        }
      },
      "supportsInterface(bytes4)": {
        "details": "See {IERC165-supportsInterface}.     * Time complexity O(1), guaranteed to always use less than 30 000 gas."
      },
      "transferFrom(address,address,uint256)": {
        "details": "Transfers the ownership of a given token ID to another address. Usage of this method is discouraged, use {safeTransferFrom} whenever possible. Requires the msg.sender to be the owner, approved, or operator.",
        "params": {
          "from": "current owner of the token",
          "to": "address to receive the ownership of the given token ID",
          "tokenId": "uint256 ID of the token to be transferred"
        }
      },
      "transferOwnership(address)": {
        "details": "Transfers ownership of the contract to a new account (`newOwner`). Can only be called by the current owner."
      }
    }
  },
  "userdoc": {
    "methods": {}
  }
}