{
  "contractName": "ItemShop",
  "abi": [
    {
      "inputs": [
        {
          "internalType": "contract ItemToken",
          "name": "_itemToken",
          "type": "address"
        }
      ],
      "payable": false,
      "stateMutability": "nonpayable",
      "type": "constructor"
    },
    {
      "anonymous": false,
      "inputs": [
        {
          "indexed": true,
          "internalType": "address",
          "name": "previousOwner",
          "type": "address"
        },
        {
          "indexed": true,
          "internalType": "address",
          "name": "newOwner",
          "type": "address"
        }
      ],
      "name": "OwnershipTransferred",
      "type": "event"
    },
    {
      "constant": true,
      "inputs": [],
      "name": "isOwner",
      "outputs": [
        {
          "internalType": "bool",
          "name": "",
          "type": "bool"
        }
      ],
      "payable": false,
      "stateMutability": "view",
      "type": "function"
    },
    {
      "constant": true,
      "inputs": [],
      "name": "itemToken",
      "outputs": [
        {
          "internalType": "contract ItemToken",
          "name": "",
          "type": "address"
        }
      ],
      "payable": false,
      "stateMutability": "view",
      "type": "function"
    },
    {
      "constant": true,
      "inputs": [],
      "name": "owner",
      "outputs": [
        {
          "internalType": "address",
          "name": "",
          "type": "address"
        }
      ],
      "payable": false,
      "stateMutability": "view",
      "type": "function"
    },
    {
      "constant": true,
      "inputs": [
        {
          "internalType": "address",
          "name": "dest",
          "type": "address"
        }
      ],
      "name": "payments",
      "outputs": [
        {
          "internalType": "uint256",
          "name": "",
          "type": "uint256"
        }
      ],
      "payable": false,
      "stateMutability": "view",
      "type": "function"
    },
    {
      "constant": false,
      "inputs": [],
      "name": "renounceOwnership",
      "outputs": [],
      "payable": false,
      "stateMutability": "nonpayable",
      "type": "function"
    },
    {
      "constant": false,
      "inputs": [
        {
          "internalType": "address",
          "name": "newOwner",
          "type": "address"
        }
      ],
      "name": "transferOwnership",
      "outputs": [],
      "payable": false,
      "stateMutability": "nonpayable",
      "type": "function"
    },
    {
      "constant": false,
      "inputs": [
        {
          "internalType": "address payable",
          "name": "payee",
          "type": "address"
        }
      ],
      "name": "withdrawPaymentsWithGas",
      "outputs": [],
      "payable": false,
      "stateMutability": "nonpayable",
      "type": "function"
    },
    {
      "constant": false,
      "inputs": [
        {
          "internalType": "address payable",
          "name": "payee",
          "type": "address"
        }
      ],
      "name": "withdrawPayments",
      "outputs": [],
      "payable": false,
      "stateMutability": "nonpayable",
      "type": "function"
    },
    {
      "constant": false,
      "inputs": [],
      "name": "withdrawPayments",
      "outputs": [],
      "payable": false,
      "stateMutability": "nonpayable",
      "type": "function"
    },
    {
      "constant": false,
      "inputs": [
        {
          "internalType": "uint256",
          "name": "_price",
          "type": "uint256"
        }
      ],
      "name": "mintItem",
      "outputs": [],
      "payable": false,
      "stateMutability": "nonpayable",
      "type": "function"
    },
    {
      "constant": false,
      "inputs": [
        {
          "internalType": "uint256",
          "name": "_id",
          "type": "uint256"
        }
      ],
      "name": "buy",
      "outputs": [],
      "payable": true,
      "stateMutability": "payable",
      "type": "function"
    },
    {
      "constant": true,
      "inputs": [
        {
          "internalType": "uint256",
          "name": "_id",
          "type": "uint256"
        }
      ],
      "name": "getItem",
      "outputs": [
        {
          "internalType": "uint256",
          "name": "",
          "type": "uint256"
        },
        {
          "internalType": "bool",
          "name": "",
          "type": "bool"
        }
      ],
      "payable": false,
      "stateMutability": "view",
      "type": "function"
    },
    {
      "constant": true,
      "inputs": [],
      "name": "getItemCount",
      "outputs": [
        {
          "internalType": "uint256",
          "name": "",
          "type": "uint256"
        }
      ],
      "payable": false,
      "stateMutability": "view",
      "type": "function"
    }
  ],
  "bytecode": "0x608060405234801561001057600080fd5b5060405161134a38038061134a8339818101604052602081101561003357600080fd5b505160006100486001600160e01b036100ef16565b600080546001600160a01b0319166001600160a01b0383169081178255604051929350917f8be0079c531659141344cd1fd0a4f28419497f9722a3daafe3b4186f6b6457e0908290a35060405161009e906100f3565b604051809103906000f0801580156100ba573d6000803e3d6000fd5b50600180546001600160a01b039283166001600160a01b03199182161790915560028054939092169216919091179055610100565b3390565b6107d180610b7983390190565b610a6a8061010f6000396000f3fe6080604052600436106100c25760003560e01c80637749cf231161007f5780638f32d59b116100595780638f32d59b14610233578063d96a094a1461025c578063e2982c2114610279578063f2fde38b146102ac576100c2565b80637749cf23146101c6578063777f5440146101ed5780638da5cb5b1461021e576100c2565b806317fb8594146100c75780633129e773146100f357806331b3eb94146101365780636103d70b14610169578063653cfa591461017e578063715018a6146101b1575b600080fd5b3480156100d357600080fd5b506100f1600480360360208110156100ea57600080fd5b50356102df565b005b3480156100ff57600080fd5b5061011d6004803603602081101561011657600080fd5b503561038e565b6040805192835290151560208301528051918290030190f35b34801561014257600080fd5b506100f16004803603602081101561015957600080fd5b50356001600160a01b0316610417565b34801561017557600080fd5b506100f1610465565b34801561018a57600080fd5b506100f1600480360360208110156101a157600080fd5b50356001600160a01b03166104c4565b3480156101bd57600080fd5b506100f1610512565b3480156101d257600080fd5b506101db6105a3565b60408051918252519081900360200190f35b3480156101f957600080fd5b50610202610619565b604080516001600160a01b039092168252519081900360200190f35b34801561022a57600080fd5b50610202610628565b34801561023f57600080fd5b50610248610637565b604080519115158252519081900360200190f35b6100f16004803603602081101561027257600080fd5b503561065b565b34801561028557600080fd5b506101db6004803603602081101561029c57600080fd5b50356001600160a01b031661080a565b3480156102b857600080fd5b506100f1600480360360208110156102cf57600080fd5b50356001600160a01b031661088d565b6102e7610637565b610326576040805162461bcd60e51b81526020600482018190526024820152600080516020610a16833981519152604482015290519081900360640190fd5b600254604080516305fee16560e21b81526004810184905290516001600160a01b03909216916317fb85949160248082019260009290919082900301818387803b15801561037357600080fd5b505af1158015610387573d6000803e3d6000fd5b5050505050565b60025460408051633129e77360e01b815260048101849052815160009384936001600160a01b0390911692633129e7739260248083019392829003018186803b1580156103da57600080fd5b505afa1580156103ee573d6000803e3d6000fd5b505050506040513d604081101561040457600080fd5b5080516020909101519092509050915091565b600154604080516351cff8d960e01b81526001600160a01b038481166004830152915191909216916351cff8d991602480830192600092919082900301818387803b15801561037357600080fd5b61046d610637565b6104ac576040805162461bcd60e51b81526020600482018190526024820152600080516020610a16833981519152604482015290519081900360640190fd5b60006104b6610628565b90506104c181610417565b50565b60015460408051633404b48d60e11b81526001600160a01b03848116600483015291519190921691636809691a91602480830192600092919082900301818387803b15801561037357600080fd5b61051a610637565b610559576040805162461bcd60e51b81526020600482018190526024820152600080516020610a16833981519152604482015290519081900360640190fd5b600080546040516001600160a01b03909116907f8be0079c531659141344cd1fd0a4f28419497f9722a3daafe3b4186f6b6457e0908390a3600080546001600160a01b0319169055565b60025460408051637749cf2360e01b815290516000926001600160a01b031691637749cf23916004808301926020929190829003018186803b1580156105e857600080fd5b505afa1580156105fc573d6000803e3d6000fd5b505050506040513d602081101561061257600080fd5b5051905090565b6002546001600160a01b031681565b6000546001600160a01b031690565b600080546001600160a01b031661064c6108dd565b6001600160a01b031614905090565b60025460408051633129e77360e01b81526004810184905281516000936001600160a01b031692633129e7739260248082019391829003018186803b1580156106a357600080fd5b505afa1580156106b7573d6000803e3d6000fd5b505050506040513d60408110156106cd57600080fd5b5051905034670de0b6b3a764000082021461071f576040805162461bcd60e51b815260206004820152600d60248201526c496e76616c696420707269636560981b604482015290519081900360640190fd5b60025460408051636cb504a560e11b81526004810185905290516001600160a01b039092169163d96a094a9160248082019260009290919082900301818387803b15801561076c57600080fd5b505af1158015610780573d6000803e3d6000fd5b505060025460408051632142170760e11b81523060048201523360248201526044810187905290516001600160a01b0390921693506342842e0e925060648082019260009290919082900301818387803b1580156107dd57600080fd5b505af11580156107f1573d6000803e3d6000fd5b50505050610806610800610628565b346108e1565b5050565b600154604080516371d4ed8d60e11b81526001600160a01b0384811660048301529151600093929092169163e3a9db1a91602480820192602092909190829003018186803b15801561085b57600080fd5b505afa15801561086f573d6000803e3d6000fd5b505050506040513d602081101561088557600080fd5b505192915050565b610895610637565b6108d4576040805162461bcd60e51b81526020600482018190526024820152600080516020610a16833981519152604482015290519081900360640190fd5b6104c18161094f565b3390565b6001546040805163f340fa0160e01b81526001600160a01b0385811660048301529151919092169163f340fa0191849160248082019260009290919082900301818588803b15801561093257600080fd5b505af1158015610946573d6000803e3d6000fd5b50505050505050565b6001600160a01b0381166109945760405162461bcd60e51b81526004018080602001828103825260268152602001806109f06026913960400191505060405180910390fd5b600080546040516001600160a01b03808516939216917f8be0079c531659141344cd1fd0a4f28419497f9722a3daafe3b4186f6b6457e091a3600080546001600160a01b0319166001600160a01b039290921691909117905556fe4f776e61626c653a206e6577206f776e657220697320746865207a65726f20616464726573734f776e61626c653a2063616c6c6572206973206e6f7420746865206f776e6572a265627a7a72315820540657695d7cabf8abd6c8d9d7fe53da41654227071138de04fb26ec221181cc64736f6c63430005110032608060405260006100176001600160e01b0361007216565b600080546001600160a01b0383166001600160a01b0319909116811790915560408051918252519192507f4101e71e974f68df5e9730cc223280b41654676bbb052cdcc735c3337e64d2d9919081900360200190a150610076565b3390565b61074c806100856000396000f3fe6080604052600436106100555760003560e01c80632348238c1461005a57806351cff8d91461008f5780636809691a146100c2578063c6dbdf61146100f5578063e3a9db1a14610126578063f340fa011461016b575b600080fd5b34801561006657600080fd5b5061008d6004803603602081101561007d57600080fd5b50356001600160a01b0316610191565b005b34801561009b57600080fd5b5061008d600480360360208110156100b257600080fd5b50356001600160a01b0316610283565b3480156100ce57600080fd5b5061008d600480360360208110156100e557600080fd5b50356001600160a01b031661036a565b34801561010157600080fd5b5061010a610434565b604080516001600160a01b039092168252519081900360200190f35b34801561013257600080fd5b506101596004803603602081101561014957600080fd5b50356001600160a01b0316610443565b60408051918252519081900360200190f35b61008d6004803603602081101561018157600080fd5b50356001600160a01b031661045e565b6000546001600160a01b03166101a5610538565b6001600160a01b0316146101ea5760405162461bcd60e51b815260040180806020018281038252602c8152602001806106ec602c913960400191505060405180910390fd5b6001600160a01b03811661022f5760405162461bcd60e51b815260040180806020018281038252602a8152602001806106c2602a913960400191505060405180910390fd5b600080546001600160a01b0383166001600160a01b0319909116811790915560408051918252517f4101e71e974f68df5e9730cc223280b41654676bbb052cdcc735c3337e64d2d99181900360200190a150565b6000546001600160a01b0316610297610538565b6001600160a01b0316146102dc5760405162461bcd60e51b815260040180806020018281038252602c8152602001806106ec602c913960400191505060405180910390fd5b6001600160a01b038116600081815260016020526040808220805490839055905190929183156108fc02918491818181858888f19350505050158015610326573d6000803e3d6000fd5b506040805182815290516001600160a01b038416917f7084f5476618d8e60b11ef0d7d3f06914655adb8793e28ff7f018d4c76d505d5919081900360200190a25050565b6000546001600160a01b031661037e610538565b6001600160a01b0316146103c35760405162461bcd60e51b815260040180806020018281038252602c8152602001806106ec602c913960400191505060405180910390fd5b6001600160a01b03811660008181526001602052604081208054919055906103f1908263ffffffff61053c16565b6040805182815290516001600160a01b038416917f7084f5476618d8e60b11ef0d7d3f06914655adb8793e28ff7f018d4c76d505d5919081900360200190a25050565b6000546001600160a01b031690565b6001600160a01b031660009081526001602052604090205490565b6000546001600160a01b0316610472610538565b6001600160a01b0316146104b75760405162461bcd60e51b815260040180806020018281038252602c8152602001806106ec602c913960400191505060405180910390fd5b6001600160a01b03811660009081526001602052604090205434906104e2908263ffffffff61062616565b6001600160a01b038316600081815260016020908152604091829020939093558051848152905191927f2da466a7b24304f47e87fa2e1e5a81b9831ce54fec19055ce277ca2f39ba42c492918290030190a25050565b3390565b80471015610591576040805162461bcd60e51b815260206004820152601d60248201527f416464726573733a20696e73756666696369656e742062616c616e6365000000604482015290519081900360640190fd5b6040516000906001600160a01b0384169083908381818185875af1925050503d80600081146105dc576040519150601f19603f3d011682016040523d82523d6000602084013e6105e1565b606091505b50509050806106215760405162461bcd60e51b815260040180806020018281038252603a815260200180610688603a913960400191505060405180910390fd5b505050565b600082820183811015610680576040805162461bcd60e51b815260206004820152601b60248201527f536166654d6174683a206164646974696f6e206f766572666c6f770000000000604482015290519081900360640190fd5b939250505056fe416464726573733a20756e61626c6520746f2073656e642076616c75652c20726563697069656e74206d617920686176652072657665727465645365636f6e646172793a206e6577207072696d61727920697320746865207a65726f20616464726573735365636f6e646172793a2063616c6c6572206973206e6f7420746865207072696d617279206163636f756e74a265627a7a7231582055c6ae0c5d386397292073a032ed2ff1d2afa05c78f7c6efa39b997da725ee8964736f6c63430005110032",
  "source": "pragma solidity ^0.5.0;\n\nimport \"./ItemToken.sol\";\nimport \"../node_modules/@openzeppelin/contracts/ownership/Ownable.sol\";\nimport \"../node_modules/@openzeppelin/contracts/payment/PullPayment.sol\";\n\ncontract ItemShop is Ownable, PullPayment {\n    ItemToken public itemToken;\n\n    constructor(ItemToken _itemToken) public {\n        itemToken = _itemToken;\n    }\n\n    function withdrawPayments() public onlyOwner{\n        address payable owner = address(uint160(owner()));\n        super.withdrawPayments(owner);\n    }\n    function mintItem(uint256 _price) public onlyOwner {\n        itemToken.mintItem(_price);\n    }\n\n    function buy(uint256 _id) public payable {\n        uint256 price;\n        (price, ) = itemToken.getItem(_id);\n        require(msg.value == price * 1 ether, \"Invalid price\");\n        itemToken.buy(_id);\n        itemToken.safeTransferFrom(address(this), msg.sender, _id);\n        _asyncTransfer(owner(), msg.value);\n    }\n\n    function getItem(uint256 _id) public view returns (uint256, bool) {\n        return itemToken.getItem(_id);\n    }\n\n    function getItemCount() public view returns (uint256) {\n        return itemToken.getItemCount();\n    }\n\n}\n",
  "sourcePath": "/Users/tomoki/axelmark_kadai/item-shop/contracts/ItemShop.sol",
  "compiler": {
    "name": "solc",
    "version": "0.5.17+commit.d19bba13.Emscripten.clang"
  },
  "schemaVersion": "3.0.23",
  "updatedAt": "2020-04-14T07:12:43.466Z",
  "devdoc": {
    "methods": {
      "isOwner()": {
        "details": "Returns true if the caller is the current owner."
      },
      "owner()": {
        "details": "Returns the address of the current owner."
      },
      "payments(address)": {
        "details": "Returns the payments owed to an address.",
        "params": {
          "dest": "The creditor's address."
        }
      },
      "renounceOwnership()": {
        "details": "Leaves the contract without owner. It will not be possible to call `onlyOwner` functions anymore. Can only be called by the current owner.     * NOTE: Renouncing ownership will leave the contract without an owner, thereby removing any functionality that is only available to the owner."
      },
      "transferOwnership(address)": {
        "details": "Transfers ownership of the contract to a new account (`newOwner`). Can only be called by the current owner."
      },
      "withdrawPayments(address)": {
        "details": "Withdraw accumulated payments.     * Note that _any_ account can call this function, not just the `payee`. This means that contracts unaware of the `PullPayment` protocol can still receive funds this way, by having a separate account call {withdrawPayments}.     * NOTE: This function has been deprecated, use {withdrawPaymentsWithGas} instead. Calling contracts with fixed gas limits is an anti-pattern and may break contract interactions in network upgrades (hardforks). https://diligence.consensys.net/blog/2019/09/stop-using-soliditys-transfer-now/[Learn more.]",
        "params": {
          "payee": "Whose payments will be withdrawn."
        }
      },
      "withdrawPaymentsWithGas(address)": {
        "details": "Same as {withdrawPayments}, but forwarding all gas to the recipient.     * WARNING: Forwarding all gas opens the door to reentrancy vulnerabilities. Make sure you trust the recipient, or are either following the checks-effects-interactions pattern or using {ReentrancyGuard}.     * _Available since v2.4.0._"
      }
    }
  },
  "userdoc": {
    "methods": {}
  }
}