{
  "contractName": "ItemShop",
  "abi": [
    {
      "inputs": [
        {
          "internalType": "contract ItemToken",
          "name": "_itemToken",
          "type": "address"
        }
      ],
      "payable": false,
      "stateMutability": "nonpayable",
      "type": "constructor"
    },
    {
      "anonymous": false,
      "inputs": [
        {
          "indexed": true,
          "internalType": "address",
          "name": "previousOwner",
          "type": "address"
        },
        {
          "indexed": true,
          "internalType": "address",
          "name": "newOwner",
          "type": "address"
        }
      ],
      "name": "OwnershipTransferred",
      "type": "event"
    },
    {
      "constant": true,
      "inputs": [],
      "name": "isOwner",
      "outputs": [
        {
          "internalType": "bool",
          "name": "",
          "type": "bool"
        }
      ],
      "payable": false,
      "stateMutability": "view",
      "type": "function"
    },
    {
      "constant": true,
      "inputs": [],
      "name": "itemToken",
      "outputs": [
        {
          "internalType": "contract ItemToken",
          "name": "",
          "type": "address"
        }
      ],
      "payable": false,
      "stateMutability": "view",
      "type": "function"
    },
    {
      "constant": true,
      "inputs": [],
      "name": "owner",
      "outputs": [
        {
          "internalType": "address",
          "name": "",
          "type": "address"
        }
      ],
      "payable": false,
      "stateMutability": "view",
      "type": "function"
    },
    {
      "constant": false,
      "inputs": [],
      "name": "renounceOwnership",
      "outputs": [],
      "payable": false,
      "stateMutability": "nonpayable",
      "type": "function"
    },
    {
      "constant": false,
      "inputs": [
        {
          "internalType": "address",
          "name": "newOwner",
          "type": "address"
        }
      ],
      "name": "transferOwnership",
      "outputs": [],
      "payable": false,
      "stateMutability": "nonpayable",
      "type": "function"
    },
    {
      "constant": false,
      "inputs": [
        {
          "internalType": "uint256",
          "name": "_price",
          "type": "uint256"
        }
      ],
      "name": "mintItem",
      "outputs": [],
      "payable": false,
      "stateMutability": "nonpayable",
      "type": "function"
    },
    {
      "constant": false,
      "inputs": [
        {
          "internalType": "uint256",
          "name": "_id",
          "type": "uint256"
        }
      ],
      "name": "buy",
      "outputs": [],
      "payable": true,
      "stateMutability": "payable",
      "type": "function"
    },
    {
      "constant": true,
      "inputs": [
        {
          "internalType": "uint256",
          "name": "_id",
          "type": "uint256"
        }
      ],
      "name": "getItem",
      "outputs": [
        {
          "internalType": "uint256",
          "name": "",
          "type": "uint256"
        },
        {
          "internalType": "bool",
          "name": "",
          "type": "bool"
        }
      ],
      "payable": false,
      "stateMutability": "view",
      "type": "function"
    },
    {
      "constant": true,
      "inputs": [],
      "name": "getItemCount",
      "outputs": [
        {
          "internalType": "uint256",
          "name": "",
          "type": "uint256"
        }
      ],
      "payable": false,
      "stateMutability": "view",
      "type": "function"
    }
  ],
  "bytecode": "0x608060405234801561001057600080fd5b506040516109ab3803806109ab8339818101604052602081101561003357600080fd5b505160006100486001600160e01b036100b716565b600080546001600160a01b0319166001600160a01b0383169081178255604051929350917f8be0079c531659141344cd1fd0a4f28419497f9722a3daafe3b4186f6b6457e0908290a350600180546001600160a01b0319166001600160a01b03929092169190911790556100bb565b3390565b6108e1806100ca6000396000f3fe6080604052600436106100865760003560e01c8063777f544011610059578063777f5440146101365780638da5cb5b146101675780638f32d59b1461017c578063d96a094a146101a5578063f2fde38b146101c257610086565b806317fb85941461008b5780633129e773146100b7578063715018a6146100fa5780637749cf231461010f575b600080fd5b34801561009757600080fd5b506100b5600480360360208110156100ae57600080fd5b50356101f5565b005b3480156100c357600080fd5b506100e1600480360360208110156100da57600080fd5b50356102b6565b6040805192835290151560208301528051918290030190f35b34801561010657600080fd5b506100b561033f565b34801561011b57600080fd5b506101246103e2565b60408051918252519081900360200190f35b34801561014257600080fd5b5061014b610458565b604080516001600160a01b039092168252519081900360200190f35b34801561017357600080fd5b5061014b610467565b34801561018857600080fd5b50610191610476565b604080519115158252519081900360200190f35b6100b5600480360360208110156101bb57600080fd5b503561049a565b3480156101ce57600080fd5b506100b5600480360360208110156101e557600080fd5b50356001600160a01b031661065e565b6101fd610476565b61024e576040805162461bcd60e51b815260206004820181905260248201527f4f776e61626c653a2063616c6c6572206973206e6f7420746865206f776e6572604482015290519081900360640190fd5b600154604080516305fee16560e21b81526004810184905290516001600160a01b03909216916317fb85949160248082019260009290919082900301818387803b15801561029b57600080fd5b505af11580156102af573d6000803e3d6000fd5b5050505050565b60015460408051633129e77360e01b815260048101849052815160009384936001600160a01b0390911692633129e7739260248083019392829003018186803b15801561030257600080fd5b505afa158015610316573d6000803e3d6000fd5b505050506040513d604081101561032c57600080fd5b5080516020909101519092509050915091565b610347610476565b610398576040805162461bcd60e51b815260206004820181905260248201527f4f776e61626c653a2063616c6c6572206973206e6f7420746865206f776e6572604482015290519081900360640190fd5b600080546040516001600160a01b03909116907f8be0079c531659141344cd1fd0a4f28419497f9722a3daafe3b4186f6b6457e0908390a3600080546001600160a01b0319169055565b60015460408051637749cf2360e01b815290516000926001600160a01b031691637749cf23916004808301926020929190829003018186803b15801561042757600080fd5b505afa15801561043b573d6000803e3d6000fd5b505050506040513d602081101561045157600080fd5b5051905090565b6001546001600160a01b031681565b6000546001600160a01b031690565b600080546001600160a01b031661048b6106c3565b6001600160a01b031614905090565b60015460408051633129e77360e01b81526004810184905281516000936001600160a01b031692633129e7739260248082019391829003018186803b1580156104e257600080fd5b505afa1580156104f6573d6000803e3d6000fd5b505050506040513d604081101561050c57600080fd5b5051905034670de0b6b3a764000082021461055e576040805162461bcd60e51b815260206004820152600d60248201526c496e76616c696420707269636560981b604482015290519081900360640190fd5b60015460408051636cb504a560e11b81526004810185905290516001600160a01b039092169163d96a094a9160248082019260009290919082900301818387803b1580156105ab57600080fd5b505af11580156105bf573d6000803e3d6000fd5b505060015460408051632142170760e11b81523060048201523360248201526044810187905290516001600160a01b0390921693506342842e0e925060648082019260009290919082900301818387803b15801561061c57600080fd5b505af1158015610630573d6000803e3d6000fd5b50505050600061063e610467565b90506106596001600160a01b0382163463ffffffff6106c716565b505050565b610666610476565b6106b7576040805162461bcd60e51b815260206004820181905260248201527f4f776e61626c653a2063616c6c6572206973206e6f7420746865206f776e6572604482015290519081900360640190fd5b6106c0816107ac565b50565b3390565b8047101561071c576040805162461bcd60e51b815260206004820152601d60248201527f416464726573733a20696e73756666696369656e742062616c616e6365000000604482015290519081900360640190fd5b6040516000906001600160a01b0384169083908381818185875af1925050503d8060008114610767576040519150601f19603f3d011682016040523d82523d6000602084013e61076c565b606091505b50509050806106595760405162461bcd60e51b815260040180806020018281038252603a815260200180610873603a913960400191505060405180910390fd5b6001600160a01b0381166107f15760405162461bcd60e51b815260040180806020018281038252602681526020018061084d6026913960400191505060405180910390fd5b600080546040516001600160a01b03808516939216917f8be0079c531659141344cd1fd0a4f28419497f9722a3daafe3b4186f6b6457e091a3600080546001600160a01b0319166001600160a01b039290921691909117905556fe4f776e61626c653a206e6577206f776e657220697320746865207a65726f2061646472657373416464726573733a20756e61626c6520746f2073656e642076616c75652c20726563697069656e74206d61792068617665207265766572746564a265627a7a723158203d2deaa7cb6e1f1207cb9995e52f149757aedf01115d28fb55fb46f4434d1ec964736f6c63430005110032",
  "source": "pragma solidity ^0.5.0;\n\nimport \"./ItemToken.sol\";\nimport \"../node_modules/@openzeppelin/contracts/ownership/Ownable.sol\";\nimport \"../node_modules/@openzeppelin/contracts/utils/Address.sol\";\n\ncontract ItemShop is Ownable {\n\n    using Address for address payable;\n    \n    ItemToken public itemToken;\n\n    constructor(ItemToken _itemToken) public {\n        itemToken = _itemToken;\n    }\n\n    function mintItem(uint256 _price) public onlyOwner {\n        itemToken.mintItem(_price);\n    }\n\n    function buy(uint256 _id) public payable {\n        uint256 price;\n        (price, ) = itemToken.getItem(_id);\n        require(msg.value == price * 1 ether, \"Invalid price\");\n        itemToken.buy(_id);\n        itemToken.safeTransferFrom(address(this), msg.sender, _id);\n        address payable owner = address(uint160(owner()));\n        owner.sendValue(msg.value);\n    }\n\n    function getItem(uint256 _id) public view returns (uint256, bool) {\n        return itemToken.getItem(_id);\n    }\n\n    function getItemCount() public view returns (uint256) {\n        return itemToken.getItemCount();\n    }\n\n}\n",
  "sourcePath": "/Users/tomoki/axelmark_kadai/item-shop/contracts/ItemShop.sol",
  "compiler": {
    "name": "solc",
    "version": "0.5.17+commit.d19bba13.Emscripten.clang"
  },
  "schemaVersion": "3.0.23",
  "updatedAt": "2020-04-15T01:48:00.220Z",
  "devdoc": {
    "methods": {
      "isOwner()": {
        "details": "Returns true if the caller is the current owner."
      },
      "owner()": {
        "details": "Returns the address of the current owner."
      },
      "renounceOwnership()": {
        "details": "Leaves the contract without owner. It will not be possible to call `onlyOwner` functions anymore. Can only be called by the current owner.     * NOTE: Renouncing ownership will leave the contract without an owner, thereby removing any functionality that is only available to the owner."
      },
      "transferOwnership(address)": {
        "details": "Transfers ownership of the contract to a new account (`newOwner`). Can only be called by the current owner."
      }
    }
  },
  "userdoc": {
    "methods": {}
  }
}