{
  "contractName": "ItemShop",
  "abi": [
    {
      "inputs": [
        {
          "internalType": "contract ItemToken",
          "name": "_itemToken",
          "type": "address"
        },
        {
          "internalType": "uint256",
          "name": "_secondsPerBlock",
          "type": "uint256"
        }
      ],
      "payable": false,
      "stateMutability": "nonpayable",
      "type": "constructor"
    },
    {
      "anonymous": false,
      "inputs": [
        {
          "indexed": true,
          "internalType": "address",
          "name": "previousOwner",
          "type": "address"
        },
        {
          "indexed": true,
          "internalType": "address",
          "name": "newOwner",
          "type": "address"
        }
      ],
      "name": "OwnershipTransferred",
      "type": "event"
    },
    {
      "payable": true,
      "stateMutability": "payable",
      "type": "fallback"
    },
    {
      "constant": true,
      "inputs": [],
      "name": "isOwner",
      "outputs": [
        {
          "internalType": "bool",
          "name": "",
          "type": "bool"
        }
      ],
      "payable": false,
      "stateMutability": "view",
      "type": "function"
    },
    {
      "constant": true,
      "inputs": [],
      "name": "itemToken",
      "outputs": [
        {
          "internalType": "contract ItemToken",
          "name": "",
          "type": "address"
        }
      ],
      "payable": false,
      "stateMutability": "view",
      "type": "function"
    },
    {
      "constant": true,
      "inputs": [],
      "name": "owner",
      "outputs": [
        {
          "internalType": "address",
          "name": "",
          "type": "address"
        }
      ],
      "payable": false,
      "stateMutability": "view",
      "type": "function"
    },
    {
      "constant": false,
      "inputs": [],
      "name": "renounceOwnership",
      "outputs": [],
      "payable": false,
      "stateMutability": "nonpayable",
      "type": "function"
    },
    {
      "constant": false,
      "inputs": [
        {
          "internalType": "address",
          "name": "newOwner",
          "type": "address"
        }
      ],
      "name": "transferOwnership",
      "outputs": [],
      "payable": false,
      "stateMutability": "nonpayable",
      "type": "function"
    },
    {
      "constant": true,
      "inputs": [
        {
          "internalType": "uint256",
          "name": "",
          "type": "uint256"
        }
      ],
      "name": "valid",
      "outputs": [
        {
          "internalType": "bool",
          "name": "",
          "type": "bool"
        }
      ],
      "payable": false,
      "stateMutability": "view",
      "type": "function"
    },
    {
      "constant": false,
      "inputs": [
        {
          "internalType": "uint256",
          "name": "tokenId",
          "type": "uint256"
        },
        {
          "internalType": "uint256",
          "name": "startPrice",
          "type": "uint256"
        },
        {
          "internalType": "uint256",
          "name": "endPrice",
          "type": "uint256"
        },
        {
          "internalType": "uint256",
          "name": "duration",
          "type": "uint256"
        }
      ],
      "name": "exhibit",
      "outputs": [],
      "payable": false,
      "stateMutability": "nonpayable",
      "type": "function"
    },
    {
      "constant": true,
      "inputs": [
        {
          "internalType": "uint256",
          "name": "_id",
          "type": "uint256"
        }
      ],
      "name": "getAuction",
      "outputs": [
        {
          "internalType": "uint256",
          "name": "",
          "type": "uint256"
        },
        {
          "internalType": "uint256",
          "name": "",
          "type": "uint256"
        },
        {
          "internalType": "uint256",
          "name": "",
          "type": "uint256"
        },
        {
          "internalType": "uint256",
          "name": "",
          "type": "uint256"
        },
        {
          "internalType": "address",
          "name": "",
          "type": "address"
        },
        {
          "internalType": "uint256",
          "name": "",
          "type": "uint256"
        }
      ],
      "payable": false,
      "stateMutability": "view",
      "type": "function"
    },
    {
      "constant": false,
      "inputs": [
        {
          "internalType": "uint256",
          "name": "_price",
          "type": "uint256"
        }
      ],
      "name": "mintItem",
      "outputs": [],
      "payable": false,
      "stateMutability": "nonpayable",
      "type": "function"
    },
    {
      "constant": false,
      "inputs": [
        {
          "internalType": "uint256",
          "name": "_id",
          "type": "uint256"
        }
      ],
      "name": "buy",
      "outputs": [],
      "payable": true,
      "stateMutability": "payable",
      "type": "function"
    },
    {
      "constant": false,
      "inputs": [],
      "name": "withdrawPayments",
      "outputs": [],
      "payable": false,
      "stateMutability": "nonpayable",
      "type": "function"
    },
    {
      "constant": true,
      "inputs": [
        {
          "internalType": "uint256",
          "name": "_id",
          "type": "uint256"
        }
      ],
      "name": "getItem",
      "outputs": [
        {
          "internalType": "uint256",
          "name": "",
          "type": "uint256"
        },
        {
          "internalType": "bool",
          "name": "",
          "type": "bool"
        },
        {
          "internalType": "address",
          "name": "",
          "type": "address"
        }
      ],
      "payable": false,
      "stateMutability": "view",
      "type": "function"
    },
    {
      "constant": true,
      "inputs": [],
      "name": "getItemCount",
      "outputs": [
        {
          "internalType": "uint256",
          "name": "",
          "type": "uint256"
        }
      ],
      "payable": false,
      "stateMutability": "view",
      "type": "function"
    },
    {
      "constant": true,
      "inputs": [],
      "name": "getAuctionCount",
      "outputs": [
        {
          "internalType": "uint256",
          "name": "",
          "type": "uint256"
        }
      ],
      "payable": false,
      "stateMutability": "view",
      "type": "function"
    }
  ],
  "bytecode": "0x608060405234801561001057600080fd5b506040516111313803806111318339818101604052604081101561003357600080fd5b508051602090910151600061004f6001600160e01b036100c216565b600080546001600160a01b0319166001600160a01b0383169081178255604051929350917f8be0079c531659141344cd1fd0a4f28419497f9722a3daafe3b4186f6b6457e0908290a350600180546001600160a01b0319166001600160a01b0393909316929092179091556002556100c6565b3390565b61105c806100d56000396000f3fe6080604052600436106100dd5760003560e01c80638da5cb5b1161007f578063bf8712c511610059578063bf8712c5146102bc578063c44e6640146102e6578063d96a094a146102fb578063f2fde38b14610318576100dd565b80638da5cb5b146102425780638f32d59b14610257578063a792100e14610280576100dd565b8063715018a6116100bb578063715018a61461016f5780637749cf2314610184578063777f5440146101ab57806378bd7935146101dc576100dd565b806317fb8594146100df5780633129e773146101095780636103d70b1461015a575b005b3480156100eb57600080fd5b506100dd6004803603602081101561010257600080fd5b503561034b565b34801561011557600080fd5b506101336004803603602081101561012c57600080fd5b50356104ad565b6040805193845291151560208401526001600160a01b031682820152519081900360600190f35b34801561016657600080fd5b506100dd610544565b34801561017b57600080fd5b506100dd61059e565b34801561019057600080fd5b5061019961062f565b60408051918252519081900360200190f35b3480156101b757600080fd5b506101c06106a5565b604080516001600160a01b039092168252519081900360200190f35b3480156101e857600080fd5b50610206600480360360208110156101ff57600080fd5b50356106b4565b6040805196875260208701959095528585019390935260608501919091526001600160a01b0316608084015260a0830152519081900360c00190f35b34801561024e57600080fd5b506101c0610770565b34801561026357600080fd5b5061026c61077f565b604080519115158252519081900360200190f35b34801561028c57600080fd5b506100dd600480360360808110156102a357600080fd5b50803590602081013590604081013590606001356107a3565b3480156102c857600080fd5b5061026c600480360360208110156102df57600080fd5b5035610b92565b3480156102f257600080fd5b50610199610ba7565b6100dd6004803603602081101561031157600080fd5b5035610bad565b34801561032457600080fd5b506100dd6004803603602081101561033b57600080fd5b50356001600160a01b0316610d33565b61035361077f565b610392576040805162461bcd60e51b81526020600482018190526024820152600080516020610fdb833981519152604482015290519081900360640190fd5b600154604080516305fee16560e21b81526004810184905290516000926001600160a01b0316916317fb859491602480830192602092919082900301818787803b1580156103df57600080fd5b505af11580156103f3573d6000803e3d6000fd5b505050506040513d602081101561040957600080fd5b50516001549091506001600160a01b03166342842e0e30610428610770565b846040518463ffffffff1660e01b815260040180846001600160a01b03166001600160a01b03168152602001836001600160a01b03166001600160a01b031681526020018281526020019350505050600060405180830381600087803b15801561049157600080fd5b505af11580156104a5573d6000803e3d6000fd5b505050505050565b60015460408051633129e77360e01b8152600481018490529051600092839283926001600160a01b0390921691633129e77391602480820192606092909190829003018186803b15801561050057600080fd5b505afa158015610514573d6000803e3d6000fd5b505050506040513d606081101561052a57600080fd5b508051602082015160409092015190969195509350915050565b61054c61077f565b61058b576040805162461bcd60e51b81526020600482018190526024820152600080516020610fdb833981519152604482015290519081900360640190fd5b61059c33303163ffffffff610d8616565b565b6105a661077f565b6105e5576040805162461bcd60e51b81526020600482018190526024820152600080516020610fdb833981519152604482015290519081900360640190fd5b600080546040516001600160a01b03909116907f8be0079c531659141344cd1fd0a4f28419497f9722a3daafe3b4186f6b6457e0908390a3600080546001600160a01b0319169055565b60015460408051637749cf2360e01b815290516000926001600160a01b031691637749cf23916004808301926020929190829003018186803b15801561067457600080fd5b505afa158015610688573d6000803e3d6000fd5b505050506040513d602081101561069e57600080fd5b5051905090565b6001546001600160a01b031681565b6000806000806000806003805490508710610716576040805162461bcd60e51b815260206004820152601d60248201527f4974656d53686f703a206e6f6e65786973742061756374696f6e206964000000604482015290519081900360640190fd5b60006003888154811061072557fe5b6000918252602090912060069091020180546001820154600283015460038401546004850154600590950154939d929c50909a5098506001600160a01b039092169650945092505050565b6000546001600160a01b031690565b600080546001600160a01b0316610794610e71565b6001600160a01b031614905090565b6107ab61062f565b84106107fe576040805162461bcd60e51b815260206004820152601a60248201527f4974656d53686f703a206e6f6e6578697374206974656d206964000000000000604482015290519081900360640190fd5b600154604080516331a9108f60e11b815260048101879052905133926001600160a01b031691636352211e916024808301926020929190829003018186803b15801561084957600080fd5b505afa15801561085d573d6000803e3d6000fd5b505050506040513d602081101561087357600080fd5b50516001600160a01b0316146108ba5760405162461bcd60e51b8152600401808060200182810382526026815260200180610fb56026913960400191505060405180910390fd5b6000831180156108ca5750600082115b610912576040805162461bcd60e51b81526020600482015260146024820152734974656d53686f703a207a65726f20707269636560601b604482015290519081900360640190fd5b818310156109515760405162461bcd60e51b815260040180806020018281038252602d815260200180610ffb602d913960400191505060405180910390fd5b600081116109a6576040805162461bcd60e51b815260206004820152601760248201527f4974656d53686f703a207a65726f206475726174696f6e000000000000000000604482015290519081900360640190fd5b600154604080516331a9108f60e11b815260048101879052905143926000926001600160a01b0390911691636352211e91602480820192602092909190829003018186803b1580156109f757600080fd5b505afa158015610a0b573d6000803e3d6000fd5b505050506040513d6020811015610a2157600080fd5b50519050610a2d610f15565b506040805160c0810182529687526020808801968752878201958652606088019485526001600160a01b039283166080890190815260a08901948552600380546001808201835560009283529a517fc2575a0e9e593c00f959f8c92f12db2869c3395a3b0502d05e2516446f71f85b600683029081019190915599517fc2575a0e9e593c00f959f8c92f12db2869c3395a3b0502d05e2516446f71f85c8b015597517fc2575a0e9e593c00f959f8c92f12db2869c3395a3b0502d05e2516446f71f85d8a015595517fc2575a0e9e593c00f959f8c92f12db2869c3395a3b0502d05e2516446f71f85e890155517fc2575a0e9e593c00f959f8c92f12db2869c3395a3b0502d05e2516446f71f85f880180546001600160a01b031916919094161790925591517fc2575a0e9e593c00f959f8c92f12db2869c3395a3b0502d05e2516446f71f8609095019490945591815260049092529020805460ff19169091179055565b60046020526000908152604090205460ff1681565b60035490565b60015460408051633129e77360e01b81526004810184905290516000926001600160a01b031691633129e773916024808301926060929190829003018186803b158015610bf957600080fd5b505afa158015610c0d573d6000803e3d6000fd5b505050506040513d6060811015610c2357600080fd5b5051905034670de0b6b3a7640000820214610c75576040805162461bcd60e51b815260206004820152600d60248201526c496e76616c696420707269636560981b604482015290519081900360640190fd5b60015460408051636cb504a560e11b81526004810185905290516001600160a01b039092169163d96a094a9160248082019260009290919082900301818387803b158015610cc257600080fd5b505af1158015610cd6573d6000803e3d6000fd5b505060015460408051632142170760e11b81523060048201523360248201526044810187905290516001600160a01b0390921693506342842e0e925060648082019260009290919082900301818387803b15801561049157600080fd5b610d3b61077f565b610d7a576040805162461bcd60e51b81526020600482018190526024820152600080516020610fdb833981519152604482015290519081900360640190fd5b610d8381610e75565b50565b3031811115610ddc576040805162461bcd60e51b815260206004820152601d60248201527f416464726573733a20696e73756666696369656e742062616c616e6365000000604482015290519081900360640190fd5b6040516000906001600160a01b0384169083908381818185875af1925050503d8060008114610e27576040519150601f19603f3d011682016040523d82523d6000602084013e610e2c565b606091505b5050905080610e6c5760405162461bcd60e51b815260040180806020018281038252603a815260200180610f7b603a913960400191505060405180910390fd5b505050565b3390565b6001600160a01b038116610eba5760405162461bcd60e51b8152600401808060200182810382526026815260200180610f556026913960400191505060405180910390fd5b600080546040516001600160a01b03808516939216917f8be0079c531659141344cd1fd0a4f28419497f9722a3daafe3b4186f6b6457e091a3600080546001600160a01b0319166001600160a01b0392909216919091179055565b6040518060c001604052806000815260200160008152602001600081526020016000815260200160006001600160a01b0316815260200160008152509056fe4f776e61626c653a206e6577206f776e657220697320746865207a65726f2061646472657373416464726573733a20756e61626c6520746f2073656e642076616c75652c20726563697069656e74206d617920686176652072657665727465644974656d53686f703a2065786968696269742063616c6c6572206973206e6f74206f776e65724f776e61626c653a2063616c6c6572206973206e6f7420746865206f776e65724974656d53686f703a207374617274207072696365206973206c6f776572207468616e20656e64207072696365a265627a7a723158202d94f211e7d731d3a9613ed7b40d19ebe7b35b8d79dc1848329e96931674ba0464736f6c63430005110032",
  "source": "pragma solidity ^0.5.0;\n\nimport \"./ItemToken.sol\";\nimport \"../node_modules/@openzeppelin/contracts/ownership/Ownable.sol\";\nimport \"../node_modules/@openzeppelin/contracts/utils/Address.sol\";\n\n\ncontract ItemShop is Ownable {\n    using Address for address payable;\n\n    ItemToken public itemToken;\n\n    uint256 secondsPerBlock;\n\n    struct Auction {\n        uint256 tokenId;\n        uint256 startPrice;\n        uint256 endPrice;\n        uint256 duration;\n        address owner;\n        uint256 createdAt;\n    }\n\n    Auction[] auctions;\n\n    mapping(uint256 => bool) public valid;\n\n    constructor(ItemToken _itemToken, uint256 _secondsPerBlock) public {\n        itemToken = _itemToken;\n        secondsPerBlock = _secondsPerBlock;\n    }\n\n    function exhibit(uint256 tokenId, uint256 startPrice, uint256 endPrice, uint256 duration) public {\n        require(tokenId < getItemCount(), \"ItemShop: nonexist item id\");\n        require(itemToken.ownerOf(tokenId) == msg.sender, \"ItemShop: exihibit caller is not owner\");\n        require(startPrice > 0 && endPrice > 0, \"ItemShop: zero price\");\n        require(startPrice >= endPrice, \"ItemShop: start price is lower than end price\");\n        require(duration > 0, \"ItemShop: zero duration\");\n        uint256 createdAt = block.number;\n        address owner = itemToken.ownerOf(tokenId);\n        Auction memory newAuction = Auction(tokenId, startPrice, endPrice, duration, owner, createdAt);\n        uint256 newId = auctions.push(newAuction) - 1;\n        valid[newId] = true;\n    }\n\n    function getAuction(uint256 _id) public view returns (uint256, uint256, uint256, uint256, address, uint256) {\n        require(_id < auctions.length, \"ItemShop: nonexist auction id\");\n        Auction storage auction = auctions[_id];\n        return (\n            auction.tokenId,\n            auction.startPrice,\n            auction.endPrice,\n            auction.duration,\n            auction.owner,\n            auction.createdAt\n        );\n    }\n\n    function mintItem(uint256 _price) public onlyOwner {\n        uint256 itemId = itemToken.mintItem(_price);\n        itemToken.safeTransferFrom(address(this), owner(), itemId);\n    }\n\n    function buy(uint256 _id) public payable {\n        uint256 price;\n        (price, , ) = itemToken.getItem(_id);\n        require(msg.value == price * 1 ether, \"Invalid price\");\n        itemToken.buy(_id);\n        itemToken.safeTransferFrom(address(this), msg.sender, _id);\n    }\n\n    function withdrawPayments() public onlyOwner {\n        msg.sender.sendValue(address(this).balance);\n    }\n\n    function getItem(uint256 _id) public view returns (uint256, bool, address) {\n        return itemToken.getItem(_id);\n    }\n\n    function getItemCount() public view returns (uint256) {\n        return itemToken.getItemCount();\n    }\n\n    function getAuctionCount() public view returns (uint256) {\n        return auctions.length;\n    }\n\n    function() external payable {} // sendValue's tests require the contract to hold Ether\n}\n",
  "sourcePath": "/Users/tomoki/axelmark_kadai/item-shop/contracts/ItemShop.sol",
  "compiler": {
    "name": "solc",
    "version": "0.5.17+commit.d19bba13.Emscripten.clang"
  },
  "schemaVersion": "3.0.23",
  "updatedAt": "2020-04-17T03:25:44.866Z",
  "networkType": "ethereum",
  "devdoc": {
    "methods": {
      "isOwner()": {
        "details": "Returns true if the caller is the current owner."
      },
      "owner()": {
        "details": "Returns the address of the current owner."
      },
      "renounceOwnership()": {
        "details": "Leaves the contract without owner. It will not be possible to call `onlyOwner` functions anymore. Can only be called by the current owner.     * NOTE: Renouncing ownership will leave the contract without an owner, thereby removing any functionality that is only available to the owner."
      },
      "transferOwnership(address)": {
        "details": "Transfers ownership of the contract to a new account (`newOwner`). Can only be called by the current owner."
      }
    }
  },
  "userdoc": {
    "methods": {}
  }
}