{
  "contractName": "ItemShop",
  "abi": [
    {
      "inputs": [
        {
          "internalType": "contract ItemToken",
          "name": "_itemToken",
          "type": "address"
        },
        {
          "internalType": "uint256",
          "name": "_secondsPerBlock",
          "type": "uint256"
        }
      ],
      "payable": false,
      "stateMutability": "nonpayable",
      "type": "constructor"
    },
    {
      "anonymous": false,
      "inputs": [
        {
          "indexed": true,
          "internalType": "address",
          "name": "previousOwner",
          "type": "address"
        },
        {
          "indexed": true,
          "internalType": "address",
          "name": "newOwner",
          "type": "address"
        }
      ],
      "name": "OwnershipTransferred",
      "type": "event"
    },
    {
      "payable": true,
      "stateMutability": "payable",
      "type": "fallback"
    },
    {
      "constant": true,
      "inputs": [],
      "name": "isOwner",
      "outputs": [
        {
          "internalType": "bool",
          "name": "",
          "type": "bool"
        }
      ],
      "payable": false,
      "stateMutability": "view",
      "type": "function"
    },
    {
      "constant": true,
      "inputs": [],
      "name": "itemToken",
      "outputs": [
        {
          "internalType": "contract ItemToken",
          "name": "",
          "type": "address"
        }
      ],
      "payable": false,
      "stateMutability": "view",
      "type": "function"
    },
    {
      "constant": true,
      "inputs": [],
      "name": "owner",
      "outputs": [
        {
          "internalType": "address",
          "name": "",
          "type": "address"
        }
      ],
      "payable": false,
      "stateMutability": "view",
      "type": "function"
    },
    {
      "constant": false,
      "inputs": [],
      "name": "renounceOwnership",
      "outputs": [],
      "payable": false,
      "stateMutability": "nonpayable",
      "type": "function"
    },
    {
      "constant": false,
      "inputs": [
        {
          "internalType": "address",
          "name": "newOwner",
          "type": "address"
        }
      ],
      "name": "transferOwnership",
      "outputs": [],
      "payable": false,
      "stateMutability": "nonpayable",
      "type": "function"
    },
    {
      "constant": false,
      "inputs": [
        {
          "internalType": "uint256",
          "name": "tokenId",
          "type": "uint256"
        },
        {
          "internalType": "uint256",
          "name": "startPrice",
          "type": "uint256"
        },
        {
          "internalType": "uint256",
          "name": "endPrice",
          "type": "uint256"
        },
        {
          "internalType": "uint256",
          "name": "duration",
          "type": "uint256"
        }
      ],
      "name": "exhibit",
      "outputs": [],
      "payable": false,
      "stateMutability": "nonpayable",
      "type": "function"
    },
    {
      "constant": true,
      "inputs": [
        {
          "internalType": "uint256",
          "name": "_id",
          "type": "uint256"
        }
      ],
      "name": "getAuction",
      "outputs": [
        {
          "internalType": "uint256",
          "name": "",
          "type": "uint256"
        },
        {
          "internalType": "uint256",
          "name": "",
          "type": "uint256"
        },
        {
          "internalType": "uint256",
          "name": "",
          "type": "uint256"
        },
        {
          "internalType": "uint256",
          "name": "",
          "type": "uint256"
        },
        {
          "internalType": "address",
          "name": "",
          "type": "address"
        },
        {
          "internalType": "uint256",
          "name": "",
          "type": "uint256"
        }
      ],
      "payable": false,
      "stateMutability": "view",
      "type": "function"
    },
    {
      "constant": false,
      "inputs": [
        {
          "internalType": "uint256",
          "name": "_price",
          "type": "uint256"
        }
      ],
      "name": "mintItem",
      "outputs": [],
      "payable": false,
      "stateMutability": "nonpayable",
      "type": "function"
    },
    {
      "constant": false,
      "inputs": [
        {
          "internalType": "uint256",
          "name": "_id",
          "type": "uint256"
        }
      ],
      "name": "buy",
      "outputs": [],
      "payable": true,
      "stateMutability": "payable",
      "type": "function"
    },
    {
      "constant": false,
      "inputs": [],
      "name": "withdrawPayments",
      "outputs": [],
      "payable": false,
      "stateMutability": "nonpayable",
      "type": "function"
    },
    {
      "constant": true,
      "inputs": [
        {
          "internalType": "uint256",
          "name": "_id",
          "type": "uint256"
        }
      ],
      "name": "getItem",
      "outputs": [
        {
          "internalType": "uint256",
          "name": "",
          "type": "uint256"
        },
        {
          "internalType": "bool",
          "name": "",
          "type": "bool"
        },
        {
          "internalType": "address",
          "name": "",
          "type": "address"
        }
      ],
      "payable": false,
      "stateMutability": "view",
      "type": "function"
    },
    {
      "constant": true,
      "inputs": [],
      "name": "getItemCount",
      "outputs": [
        {
          "internalType": "uint256",
          "name": "",
          "type": "uint256"
        }
      ],
      "payable": false,
      "stateMutability": "view",
      "type": "function"
    },
    {
      "constant": true,
      "inputs": [],
      "name": "getAuctionCount",
      "outputs": [
        {
          "internalType": "uint256",
          "name": "",
          "type": "uint256"
        }
      ],
      "payable": false,
      "stateMutability": "view",
      "type": "function"
    }
  ],
  "bytecode": "0x608060405234801561001057600080fd5b506040516110ba3803806110ba8339818101604052604081101561003357600080fd5b508051602090910151600061004f6001600160e01b036100c216565b600080546001600160a01b0319166001600160a01b0383169081178255604051929350917f8be0079c531659141344cd1fd0a4f28419497f9722a3daafe3b4186f6b6457e0908290a350600180546001600160a01b0319166001600160a01b0393909316929092179091556002556100c6565b3390565b610fe5806100d56000396000f3fe6080604052600436106100c25760003560e01c806378bd79351161007f578063a792100e11610059578063a792100e14610265578063c44e6640146102a1578063d96a094a146102b6578063f2fde38b146102d3576100c2565b806378bd7935146101c15780638da5cb5b146102275780638f32d59b1461023c576100c2565b806317fb8594146100c45780633129e773146100ee5780636103d70b1461013f578063715018a6146101545780637749cf2314610169578063777f544014610190575b005b3480156100d057600080fd5b506100c2600480360360208110156100e757600080fd5b5035610306565b3480156100fa57600080fd5b506101186004803603602081101561011157600080fd5b5035610468565b6040805193845291151560208401526001600160a01b031682820152519081900360600190f35b34801561014b57600080fd5b506100c26104ff565b34801561016057600080fd5b506100c2610559565b34801561017557600080fd5b5061017e6105ea565b60408051918252519081900360200190f35b34801561019c57600080fd5b506101a5610660565b604080516001600160a01b039092168252519081900360200190f35b3480156101cd57600080fd5b506101eb600480360360208110156101e457600080fd5b503561066f565b6040805196875260208701959095528585019390935260608501919091526001600160a01b0316608084015260a0830152519081900360c00190f35b34801561023357600080fd5b506101a561072b565b34801561024857600080fd5b5061025161073a565b604080519115158252519081900360200190f35b34801561027157600080fd5b506100c26004803603608081101561028857600080fd5b508035906020810135906040810135906060013561075e565b3480156102ad57600080fd5b5061017e610b30565b6100c2600480360360208110156102cc57600080fd5b5035610b36565b3480156102df57600080fd5b506100c2600480360360208110156102f657600080fd5b50356001600160a01b0316610cbc565b61030e61073a565b61034d576040805162461bcd60e51b81526020600482018190526024820152600080516020610f64833981519152604482015290519081900360640190fd5b600154604080516305fee16560e21b81526004810184905290516000926001600160a01b0316916317fb859491602480830192602092919082900301818787803b15801561039a57600080fd5b505af11580156103ae573d6000803e3d6000fd5b505050506040513d60208110156103c457600080fd5b50516001549091506001600160a01b03166342842e0e306103e361072b565b846040518463ffffffff1660e01b815260040180846001600160a01b03166001600160a01b03168152602001836001600160a01b03166001600160a01b031681526020018281526020019350505050600060405180830381600087803b15801561044c57600080fd5b505af1158015610460573d6000803e3d6000fd5b505050505050565b60015460408051633129e77360e01b8152600481018490529051600092839283926001600160a01b0390921691633129e77391602480820192606092909190829003018186803b1580156104bb57600080fd5b505afa1580156104cf573d6000803e3d6000fd5b505050506040513d60608110156104e557600080fd5b508051602082015160409092015190969195509350915050565b61050761073a565b610546576040805162461bcd60e51b81526020600482018190526024820152600080516020610f64833981519152604482015290519081900360640190fd5b61055733303163ffffffff610d0f16565b565b61056161073a565b6105a0576040805162461bcd60e51b81526020600482018190526024820152600080516020610f64833981519152604482015290519081900360640190fd5b600080546040516001600160a01b03909116907f8be0079c531659141344cd1fd0a4f28419497f9722a3daafe3b4186f6b6457e0908390a3600080546001600160a01b0319169055565b60015460408051637749cf2360e01b815290516000926001600160a01b031691637749cf23916004808301926020929190829003018186803b15801561062f57600080fd5b505afa158015610643573d6000803e3d6000fd5b505050506040513d602081101561065957600080fd5b5051905090565b6001546001600160a01b031681565b60008060008060008060038054905087106106d1576040805162461bcd60e51b815260206004820152601d60248201527f4974656d53686f703a206e6f6e65786973742061756374696f6e206964000000604482015290519081900360640190fd5b6000600388815481106106e057fe5b6000918252602090912060069091020180546001820154600283015460038401546004850154600590950154939d929c50909a5098506001600160a01b039092169650945092505050565b6000546001600160a01b031690565b600080546001600160a01b031661074f610dfa565b6001600160a01b031614905090565b6107666105ea565b84106107b9576040805162461bcd60e51b815260206004820152601a60248201527f4974656d53686f703a206e6f6e6578697374206974656d206964000000000000604482015290519081900360640190fd5b600154604080516331a9108f60e11b815260048101879052905133926001600160a01b031691636352211e916024808301926020929190829003018186803b15801561080457600080fd5b505afa158015610818573d6000803e3d6000fd5b505050506040513d602081101561082e57600080fd5b50516001600160a01b0316146108755760405162461bcd60e51b8152600401808060200182810382526026815260200180610f3e6026913960400191505060405180910390fd5b6000831180156108855750600082115b6108cd576040805162461bcd60e51b81526020600482015260146024820152734974656d53686f703a207a65726f20707269636560601b604482015290519081900360640190fd5b8183101561090c5760405162461bcd60e51b815260040180806020018281038252602d815260200180610f84602d913960400191505060405180910390fd5b60008111610961576040805162461bcd60e51b815260206004820152601760248201527f4974656d53686f703a207a65726f206475726174696f6e000000000000000000604482015290519081900360640190fd5b600154604080516331a9108f60e11b815260048101879052905143926000926001600160a01b0390911691636352211e91602480820192602092909190829003018186803b1580156109b257600080fd5b505afa1580156109c6573d6000803e3d6000fd5b505050506040513d60208110156109dc57600080fd5b505190506109e8610e9e565b506040805160c081018252968752602087019586528601938452606086019283526001600160a01b039081166080870190815260a087019283526003805460018101825560009190915296517fc2575a0e9e593c00f959f8c92f12db2869c3395a3b0502d05e2516446f71f85b60069098029788015594517fc2575a0e9e593c00f959f8c92f12db2869c3395a3b0502d05e2516446f71f85c87015592517fc2575a0e9e593c00f959f8c92f12db2869c3395a3b0502d05e2516446f71f85d86015590517fc2575a0e9e593c00f959f8c92f12db2869c3395a3b0502d05e2516446f71f85e85015591517fc2575a0e9e593c00f959f8c92f12db2869c3395a3b0502d05e2516446f71f85f840180546001600160a01b03191691909216179055517fc2575a0e9e593c00f959f8c92f12db2869c3395a3b0502d05e2516446f71f86090910155565b60035490565b60015460408051633129e77360e01b81526004810184905290516000926001600160a01b031691633129e773916024808301926060929190829003018186803b158015610b8257600080fd5b505afa158015610b96573d6000803e3d6000fd5b505050506040513d6060811015610bac57600080fd5b5051905034670de0b6b3a7640000820214610bfe576040805162461bcd60e51b815260206004820152600d60248201526c496e76616c696420707269636560981b604482015290519081900360640190fd5b60015460408051636cb504a560e11b81526004810185905290516001600160a01b039092169163d96a094a9160248082019260009290919082900301818387803b158015610c4b57600080fd5b505af1158015610c5f573d6000803e3d6000fd5b505060015460408051632142170760e11b81523060048201523360248201526044810187905290516001600160a01b0390921693506342842e0e925060648082019260009290919082900301818387803b15801561044c57600080fd5b610cc461073a565b610d03576040805162461bcd60e51b81526020600482018190526024820152600080516020610f64833981519152604482015290519081900360640190fd5b610d0c81610dfe565b50565b3031811115610d65576040805162461bcd60e51b815260206004820152601d60248201527f416464726573733a20696e73756666696369656e742062616c616e6365000000604482015290519081900360640190fd5b6040516000906001600160a01b0384169083908381818185875af1925050503d8060008114610db0576040519150601f19603f3d011682016040523d82523d6000602084013e610db5565b606091505b5050905080610df55760405162461bcd60e51b815260040180806020018281038252603a815260200180610f04603a913960400191505060405180910390fd5b505050565b3390565b6001600160a01b038116610e435760405162461bcd60e51b8152600401808060200182810382526026815260200180610ede6026913960400191505060405180910390fd5b600080546040516001600160a01b03808516939216917f8be0079c531659141344cd1fd0a4f28419497f9722a3daafe3b4186f6b6457e091a3600080546001600160a01b0319166001600160a01b0392909216919091179055565b6040518060c001604052806000815260200160008152602001600081526020016000815260200160006001600160a01b0316815260200160008152509056fe4f776e61626c653a206e6577206f776e657220697320746865207a65726f2061646472657373416464726573733a20756e61626c6520746f2073656e642076616c75652c20726563697069656e74206d617920686176652072657665727465644974656d53686f703a2065786968696269742063616c6c6572206973206e6f74206f776e65724f776e61626c653a2063616c6c6572206973206e6f7420746865206f776e65724974656d53686f703a207374617274207072696365206973206c6f776572207468616e20656e64207072696365a265627a7a72315820476581ec16aee019146a47d0e20d02bcccc4648d7fb886dd93f82596361761de64736f6c63430005110032",
  "source": "pragma solidity ^0.5.0;\n\nimport \"./ItemToken.sol\";\nimport \"../node_modules/@openzeppelin/contracts/ownership/Ownable.sol\";\nimport \"../node_modules/@openzeppelin/contracts/utils/Address.sol\";\n\n\ncontract ItemShop is Ownable {\n    using Address for address payable;\n\n    ItemToken public itemToken;\n\n    uint256 secondsPerBlock;\n\n    struct Auction {\n        uint256 tokenId;\n        uint256 startPrice;\n        uint256 endPrice;\n        uint256 duration;\n        address owner;\n        uint256 createdAt;\n    }\n\n    Auction[] auctions;\n\n    constructor(ItemToken _itemToken, uint256 _secondsPerBlock) public {\n        itemToken = _itemToken;\n        secondsPerBlock = _secondsPerBlock;\n    }\n\n    function exhibit(uint256 tokenId, uint256 startPrice, uint256 endPrice, uint256 duration) public {\n        require(tokenId < getItemCount(), \"ItemShop: nonexist item id\");\n        require(itemToken.ownerOf(tokenId) == msg.sender, \"ItemShop: exihibit caller is not owner\");\n        require(startPrice > 0 && endPrice > 0, \"ItemShop: zero price\");\n        require(startPrice >= endPrice, \"ItemShop: start price is lower than end price\");\n        require(duration > 0, \"ItemShop: zero duration\");\n        uint256 createdAt = block.number;\n        address owner = itemToken.ownerOf(tokenId);\n        Auction memory newAuction = Auction(tokenId, startPrice, endPrice, duration, owner, createdAt);\n        auctions.push(newAuction);\n    }\n\n    function getAuction(uint256 _id) public view returns (uint256, uint256, uint256, uint256, address, uint256) {\n        require(_id < auctions.length, \"ItemShop: nonexist auction id\");\n        Auction storage auction = auctions[_id];\n        return (\n            auction.tokenId,\n            auction.startPrice,\n            auction.endPrice,\n            auction.duration,\n            auction.owner,\n            auction.createdAt\n        );\n    }\n\n    function mintItem(uint256 _price) public onlyOwner {\n        uint256 itemId = itemToken.mintItem(_price);\n        itemToken.safeTransferFrom(address(this), owner(), itemId);\n    }\n\n    function buy(uint256 _id) public payable {\n        uint256 price;\n        (price, , ) = itemToken.getItem(_id);\n        require(msg.value == price * 1 ether, \"Invalid price\");\n        itemToken.buy(_id);\n        itemToken.safeTransferFrom(address(this), msg.sender, _id);\n    }\n\n    function withdrawPayments() public onlyOwner {\n        msg.sender.sendValue(address(this).balance);\n    }\n\n    function getItem(uint256 _id) public view returns (uint256, bool, address) {\n        return itemToken.getItem(_id);\n    }\n\n    function getItemCount() public view returns (uint256) {\n        return itemToken.getItemCount();\n    }\n\n    function getAuctionCount() public view returns (uint256) {\n        return auctions.length;\n    }\n\n    function() external payable {} // sendValue's tests require the contract to hold Ether\n}\n",
  "sourcePath": "/Users/tomoki/axelmark_kadai/item-shop/contracts/ItemShop.sol",
  "compiler": {
    "name": "solc",
    "version": "0.5.17+commit.d19bba13.Emscripten.clang"
  },
  "schemaVersion": "3.0.23",
  "updatedAt": "2020-04-16T08:16:15.129Z",
  "networkType": "ethereum",
  "devdoc": {
    "methods": {
      "isOwner()": {
        "details": "Returns true if the caller is the current owner."
      },
      "owner()": {
        "details": "Returns the address of the current owner."
      },
      "renounceOwnership()": {
        "details": "Leaves the contract without owner. It will not be possible to call `onlyOwner` functions anymore. Can only be called by the current owner.     * NOTE: Renouncing ownership will leave the contract without an owner, thereby removing any functionality that is only available to the owner."
      },
      "transferOwnership(address)": {
        "details": "Transfers ownership of the contract to a new account (`newOwner`). Can only be called by the current owner."
      }
    }
  },
  "userdoc": {
    "methods": {}
  }
}