{
  "contractName": "ItemToken",
  "abi": [
    {
      "inputs": [
        {
          "internalType": "string",
          "name": "name",
          "type": "string"
        },
        {
          "internalType": "string",
          "name": "symbol",
          "type": "string"
        },
        {
          "internalType": "string",
          "name": "baseURI",
          "type": "string"
        }
      ],
      "payable": false,
      "stateMutability": "nonpayable",
      "type": "constructor"
    },
    {
      "anonymous": false,
      "inputs": [
        {
          "indexed": true,
          "internalType": "address",
          "name": "owner",
          "type": "address"
        },
        {
          "indexed": true,
          "internalType": "address",
          "name": "approved",
          "type": "address"
        },
        {
          "indexed": true,
          "internalType": "uint256",
          "name": "tokenId",
          "type": "uint256"
        }
      ],
      "name": "Approval",
      "type": "event"
    },
    {
      "anonymous": false,
      "inputs": [
        {
          "indexed": true,
          "internalType": "address",
          "name": "owner",
          "type": "address"
        },
        {
          "indexed": true,
          "internalType": "address",
          "name": "operator",
          "type": "address"
        },
        {
          "indexed": false,
          "internalType": "bool",
          "name": "approved",
          "type": "bool"
        }
      ],
      "name": "ApprovalForAll",
      "type": "event"
    },
    {
      "anonymous": false,
      "inputs": [
        {
          "indexed": true,
          "internalType": "address",
          "name": "previousOwner",
          "type": "address"
        },
        {
          "indexed": true,
          "internalType": "address",
          "name": "newOwner",
          "type": "address"
        }
      ],
      "name": "OwnershipTransferred",
      "type": "event"
    },
    {
      "anonymous": false,
      "inputs": [
        {
          "indexed": true,
          "internalType": "address",
          "name": "from",
          "type": "address"
        },
        {
          "indexed": true,
          "internalType": "address",
          "name": "to",
          "type": "address"
        },
        {
          "indexed": true,
          "internalType": "uint256",
          "name": "tokenId",
          "type": "uint256"
        }
      ],
      "name": "Transfer",
      "type": "event"
    },
    {
      "constant": false,
      "inputs": [
        {
          "internalType": "address",
          "name": "to",
          "type": "address"
        },
        {
          "internalType": "uint256",
          "name": "tokenId",
          "type": "uint256"
        }
      ],
      "name": "approve",
      "outputs": [],
      "payable": false,
      "stateMutability": "nonpayable",
      "type": "function"
    },
    {
      "constant": true,
      "inputs": [
        {
          "internalType": "address",
          "name": "owner",
          "type": "address"
        }
      ],
      "name": "balanceOf",
      "outputs": [
        {
          "internalType": "uint256",
          "name": "",
          "type": "uint256"
        }
      ],
      "payable": false,
      "stateMutability": "view",
      "type": "function"
    },
    {
      "constant": true,
      "inputs": [],
      "name": "baseURI",
      "outputs": [
        {
          "internalType": "string",
          "name": "",
          "type": "string"
        }
      ],
      "payable": false,
      "stateMutability": "view",
      "type": "function"
    },
    {
      "constant": true,
      "inputs": [
        {
          "internalType": "uint256",
          "name": "tokenId",
          "type": "uint256"
        }
      ],
      "name": "getApproved",
      "outputs": [
        {
          "internalType": "address",
          "name": "",
          "type": "address"
        }
      ],
      "payable": false,
      "stateMutability": "view",
      "type": "function"
    },
    {
      "constant": true,
      "inputs": [
        {
          "internalType": "address",
          "name": "owner",
          "type": "address"
        },
        {
          "internalType": "address",
          "name": "operator",
          "type": "address"
        }
      ],
      "name": "isApprovedForAll",
      "outputs": [
        {
          "internalType": "bool",
          "name": "",
          "type": "bool"
        }
      ],
      "payable": false,
      "stateMutability": "view",
      "type": "function"
    },
    {
      "constant": true,
      "inputs": [],
      "name": "isOwner",
      "outputs": [
        {
          "internalType": "bool",
          "name": "",
          "type": "bool"
        }
      ],
      "payable": false,
      "stateMutability": "view",
      "type": "function"
    },
    {
      "constant": true,
      "inputs": [
        {
          "internalType": "uint256",
          "name": "",
          "type": "uint256"
        }
      ],
      "name": "items",
      "outputs": [
        {
          "internalType": "bool",
          "name": "sold",
          "type": "bool"
        }
      ],
      "payable": false,
      "stateMutability": "view",
      "type": "function"
    },
    {
      "constant": true,
      "inputs": [],
      "name": "name",
      "outputs": [
        {
          "internalType": "string",
          "name": "",
          "type": "string"
        }
      ],
      "payable": false,
      "stateMutability": "view",
      "type": "function"
    },
    {
      "constant": true,
      "inputs": [],
      "name": "owner",
      "outputs": [
        {
          "internalType": "address",
          "name": "",
          "type": "address"
        }
      ],
      "payable": false,
      "stateMutability": "view",
      "type": "function"
    },
    {
      "constant": true,
      "inputs": [
        {
          "internalType": "uint256",
          "name": "tokenId",
          "type": "uint256"
        }
      ],
      "name": "ownerOf",
      "outputs": [
        {
          "internalType": "address",
          "name": "",
          "type": "address"
        }
      ],
      "payable": false,
      "stateMutability": "view",
      "type": "function"
    },
    {
      "constant": false,
      "inputs": [],
      "name": "renounceOwnership",
      "outputs": [],
      "payable": false,
      "stateMutability": "nonpayable",
      "type": "function"
    },
    {
      "constant": false,
      "inputs": [
        {
          "internalType": "address",
          "name": "from",
          "type": "address"
        },
        {
          "internalType": "address",
          "name": "to",
          "type": "address"
        },
        {
          "internalType": "uint256",
          "name": "tokenId",
          "type": "uint256"
        }
      ],
      "name": "safeTransferFrom",
      "outputs": [],
      "payable": false,
      "stateMutability": "nonpayable",
      "type": "function"
    },
    {
      "constant": false,
      "inputs": [
        {
          "internalType": "address",
          "name": "from",
          "type": "address"
        },
        {
          "internalType": "address",
          "name": "to",
          "type": "address"
        },
        {
          "internalType": "uint256",
          "name": "tokenId",
          "type": "uint256"
        },
        {
          "internalType": "bytes",
          "name": "_data",
          "type": "bytes"
        }
      ],
      "name": "safeTransferFrom",
      "outputs": [],
      "payable": false,
      "stateMutability": "nonpayable",
      "type": "function"
    },
    {
      "constant": false,
      "inputs": [
        {
          "internalType": "address",
          "name": "to",
          "type": "address"
        },
        {
          "internalType": "bool",
          "name": "approved",
          "type": "bool"
        }
      ],
      "name": "setApprovalForAll",
      "outputs": [],
      "payable": false,
      "stateMutability": "nonpayable",
      "type": "function"
    },
    {
      "constant": true,
      "inputs": [
        {
          "internalType": "bytes4",
          "name": "interfaceId",
          "type": "bytes4"
        }
      ],
      "name": "supportsInterface",
      "outputs": [
        {
          "internalType": "bool",
          "name": "",
          "type": "bool"
        }
      ],
      "payable": false,
      "stateMutability": "view",
      "type": "function"
    },
    {
      "constant": true,
      "inputs": [],
      "name": "symbol",
      "outputs": [
        {
          "internalType": "string",
          "name": "",
          "type": "string"
        }
      ],
      "payable": false,
      "stateMutability": "view",
      "type": "function"
    },
    {
      "constant": true,
      "inputs": [
        {
          "internalType": "uint256",
          "name": "index",
          "type": "uint256"
        }
      ],
      "name": "tokenByIndex",
      "outputs": [
        {
          "internalType": "uint256",
          "name": "",
          "type": "uint256"
        }
      ],
      "payable": false,
      "stateMutability": "view",
      "type": "function"
    },
    {
      "constant": true,
      "inputs": [
        {
          "internalType": "address",
          "name": "owner",
          "type": "address"
        },
        {
          "internalType": "uint256",
          "name": "index",
          "type": "uint256"
        }
      ],
      "name": "tokenOfOwnerByIndex",
      "outputs": [
        {
          "internalType": "uint256",
          "name": "",
          "type": "uint256"
        }
      ],
      "payable": false,
      "stateMutability": "view",
      "type": "function"
    },
    {
      "constant": true,
      "inputs": [
        {
          "internalType": "uint256",
          "name": "tokenId",
          "type": "uint256"
        }
      ],
      "name": "tokenURI",
      "outputs": [
        {
          "internalType": "string",
          "name": "",
          "type": "string"
        }
      ],
      "payable": false,
      "stateMutability": "view",
      "type": "function"
    },
    {
      "constant": true,
      "inputs": [],
      "name": "totalSupply",
      "outputs": [
        {
          "internalType": "uint256",
          "name": "",
          "type": "uint256"
        }
      ],
      "payable": false,
      "stateMutability": "view",
      "type": "function"
    },
    {
      "constant": false,
      "inputs": [
        {
          "internalType": "address",
          "name": "from",
          "type": "address"
        },
        {
          "internalType": "address",
          "name": "to",
          "type": "address"
        },
        {
          "internalType": "uint256",
          "name": "tokenId",
          "type": "uint256"
        }
      ],
      "name": "transferFrom",
      "outputs": [],
      "payable": false,
      "stateMutability": "nonpayable",
      "type": "function"
    },
    {
      "constant": false,
      "inputs": [
        {
          "internalType": "address",
          "name": "newOwner",
          "type": "address"
        }
      ],
      "name": "transferOwnership",
      "outputs": [],
      "payable": false,
      "stateMutability": "nonpayable",
      "type": "function"
    },
    {
      "constant": false,
      "inputs": [
        {
          "internalType": "string",
          "name": "_tokenURI",
          "type": "string"
        }
      ],
      "name": "mintItem",
      "outputs": [
        {
          "internalType": "uint256",
          "name": "",
          "type": "uint256"
        }
      ],
      "payable": false,
      "stateMutability": "nonpayable",
      "type": "function"
    },
    {
      "constant": false,
      "inputs": [],
      "name": "mintItem",
      "outputs": [
        {
          "internalType": "uint256",
          "name": "",
          "type": "uint256"
        }
      ],
      "payable": false,
      "stateMutability": "nonpayable",
      "type": "function"
    },
    {
      "constant": true,
      "inputs": [
        {
          "internalType": "uint256",
          "name": "_id",
          "type": "uint256"
        }
      ],
      "name": "getItem",
      "outputs": [
        {
          "internalType": "bool",
          "name": "",
          "type": "bool"
        },
        {
          "internalType": "address",
          "name": "",
          "type": "address"
        }
      ],
      "payable": false,
      "stateMutability": "view",
      "type": "function"
    },
    {
      "constant": true,
      "inputs": [],
      "name": "getItemCount",
      "outputs": [
        {
          "internalType": "uint256",
          "name": "",
          "type": "uint256"
        }
      ],
      "payable": false,
      "stateMutability": "view",
      "type": "function"
    },
    {
      "constant": false,
      "inputs": [
        {
          "internalType": "uint256",
          "name": "_id",
          "type": "uint256"
        }
      ],
      "name": "buy",
      "outputs": [],
      "payable": true,
      "stateMutability": "payable",
      "type": "function"
    }
  ],
  "bytecode": "0x60806040523480156200001157600080fd5b50604051620026c3380380620026c3833981810160405260608110156200003757600080fd5b81019080805160405193929190846401000000008211156200005857600080fd5b9083019060208201858111156200006e57600080fd5b82516401000000008111828201881017156200008957600080fd5b82525081516020918201929091019080838360005b83811015620000b85781810151838201526020016200009e565b50505050905090810190601f168015620000e65780820380516001836020036101000a031916815260200191505b50604052602001805160405193929190846401000000008211156200010a57600080fd5b9083019060208201858111156200012057600080fd5b82516401000000008111828201881017156200013b57600080fd5b82525081516020918201929091019080838360005b838110156200016a57818101518382015260200162000150565b50505050905090810190601f168015620001985780820380516001836020036101000a031916815260200191505b5060405260200180516040519392919084640100000000821115620001bc57600080fd5b908301906020820185811115620001d257600080fd5b8251640100000000811182820188101715620001ed57600080fd5b82525081516020918201929091019080838360005b838110156200021c57818101518382015260200162000202565b50505050905090810190601f1680156200024a5780820380516001836020036101000a031916815260200191505b5060405250505082828181600062000267620003cb60201b60201c565b600080546001600160a01b0319166001600160a01b0383169081178255604051929350917f8be0079c531659141344cd1fd0a4f28419497f9722a3daafe3b4186f6b6457e0908290a350620002e57f01ffc9a7000000000000000000000000000000000000000000000000000000006001600160e01b03620003d016565b620003197f80ac58cd000000000000000000000000000000000000000000000000000000006001600160e01b03620003d016565b6200034d7f780e9d63000000000000000000000000000000000000000000000000000000006001600160e01b03620003d016565b81516200036290600a906020850190620004bb565b5080516200037890600b906020840190620004bb565b50620003ad7f5b5e139f000000000000000000000000000000000000000000000000000000006001600160e01b03620003d016565b50505050620003c281620004a260201b60201c565b5050506200055d565b335b90565b7fffffffff0000000000000000000000000000000000000000000000000000000080821614156200046257604080517f08c379a000000000000000000000000000000000000000000000000000000000815260206004820152601c60248201527f4552433136353a20696e76616c696420696e7465726661636520696400000000604482015290519081900360640190fd5b7fffffffff00000000000000000000000000000000000000000000000000000000166000908152600160208190526040909120805460ff19169091179055565b8051620004b790600c906020840190620004bb565b5050565b828054600181600116156101000203166002900490600052602060002090601f016020900481019282601f10620004fe57805160ff19168380011785556200052e565b828001600101855582156200052e579182015b828111156200052e57825182559160200191906001019062000511565b506200053c92915062000540565b5090565b620003cd91905b808211156200053c576000815560010162000547565b612156806200056d6000396000f3fe60806040526004361061019c5760003560e01c8063715018a6116100ec578063bfb231d21161008a578063d96a094a11610064578063d96a094a14610741578063e985e9c51461075e578063eb93406b14610799578063f2fde38b146107ae5761019c565b8063bfb231d21461063a578063c754584914610664578063c87b56dd146107175761019c565b80638f32d59b116100c65780638f32d59b1461050257806395d89b4114610517578063a22cb4651461052c578063b88d4fde146105675761019c565b8063715018a6146104c35780637749cf23146104d85780638da5cb5b146104ed5761019c565b80632f745c59116101595780634f6ccce7116101335780634f6ccce7146104275780636352211e146104515780636c0360eb1461047b57806370a08231146104905761019c565b80632f745c591461035e5780633129e7731461039757806342842e0e146103e45761019c565b806301ffc9a7146101a157806306fdde03146101e9578063081812fc14610273578063095ea7b3146102b957806318160ddd146102f457806323b872dd1461031b575b600080fd5b3480156101ad57600080fd5b506101d5600480360360208110156101c457600080fd5b50356001600160e01b0319166107e1565b604080519115158252519081900360200190f35b3480156101f557600080fd5b506101fe610804565b6040805160208082528351818301528351919283929083019185019080838360005b83811015610238578181015183820152602001610220565b50505050905090810190601f1680156102655780820380516001836020036101000a031916815260200191505b509250505060405180910390f35b34801561027f57600080fd5b5061029d6004803603602081101561029657600080fd5b503561089b565b604080516001600160a01b039092168252519081900360200190f35b3480156102c557600080fd5b506102f2600480360360408110156102dc57600080fd5b506001600160a01b0381351690602001356108fd565b005b34801561030057600080fd5b50610309610a25565b60408051918252519081900360200190f35b34801561032757600080fd5b506102f26004803603606081101561033e57600080fd5b506001600160a01b03813581169160208101359091169060400135610a2b565b34801561036a57600080fd5b506103096004803603604081101561038157600080fd5b506001600160a01b038135169060200135610a87565b3480156103a357600080fd5b506103c1600480360360208110156103ba57600080fd5b5035610b06565b6040805192151583526001600160a01b0390911660208301528051918290030190f35b3480156103f057600080fd5b506102f26004803603606081101561040757600080fd5b506001600160a01b03813581169160208101359091169060400135610b8e565b34801561043357600080fd5b506103096004803603602081101561044a57600080fd5b5035610ba9565b34801561045d57600080fd5b5061029d6004803603602081101561047457600080fd5b5035610c0f565b34801561048757600080fd5b506101fe610c69565b34801561049c57600080fd5b50610309600480360360208110156104b357600080fd5b50356001600160a01b0316610cca565b3480156104cf57600080fd5b506102f2610d32565b3480156104e457600080fd5b50610309610dc3565b3480156104f957600080fd5b5061029d610dc9565b34801561050e57600080fd5b506101d5610dd8565b34801561052357600080fd5b506101fe610dfc565b34801561053857600080fd5b506102f26004803603604081101561054f57600080fd5b506001600160a01b0381351690602001351515610e5d565b34801561057357600080fd5b506102f26004803603608081101561058a57600080fd5b6001600160a01b038235811692602081013590911691604082013591908101906080810160608201356401000000008111156105c557600080fd5b8201836020820111156105d757600080fd5b803590602001918460018302840111640100000000831117156105f957600080fd5b91908080601f016020809104026020016040519081016040528093929190818152602001838380828437600092019190915250929550610f62945050505050565b34801561064657600080fd5b506101d56004803603602081101561065d57600080fd5b5035610fc0565b34801561067057600080fd5b506103096004803603602081101561068757600080fd5b8101906020810181356401000000008111156106a257600080fd5b8201836020820111156106b457600080fd5b803590602001918460018302840111640100000000831117156106d657600080fd5b91908080601f016020809104026020016040519081016040528093929190818152602001838380828437600092019190915250929550610fe1945050505050565b34801561072357600080fd5b506101fe6004803603602081101561073a57600080fd5b5035611040565b6102f26004803603602081101561075757600080fd5b503561120c565b34801561076a57600080fd5b506101d56004803603604081101561078157600080fd5b506001600160a01b0381358116916020013516611293565b3480156107a557600080fd5b506103096112c1565b3480156107ba57600080fd5b506102f2600480360360208110156107d157600080fd5b50356001600160a01b0316611371565b6001600160e01b0319811660009081526001602052604090205460ff165b919050565b600a8054604080516020601f60026000196101006001881615020190951694909404938401819004810282018101909252828152606093909290918301828280156108905780601f1061086557610100808354040283529160200191610890565b820191906000526020600020905b81548152906001019060200180831161087357829003601f168201915b505050505090505b90565b60006108a6826113c4565b6108e15760405162461bcd60e51b815260040180806020018281038252602c815260200180611fd4602c913960400191505060405180910390fd5b506000908152600360205260409020546001600160a01b031690565b600061090882610c0f565b9050806001600160a01b0316836001600160a01b0316141561095b5760405162461bcd60e51b81526004018080602001828103825260218152602001806120a46021913960400191505060405180910390fd5b806001600160a01b031661096d6113e1565b6001600160a01b0316148061098e575061098e816109896113e1565b611293565b6109c95760405162461bcd60e51b8152600401808060200182810382526038815260200180611f496038913960400191505060405180910390fd5b60008281526003602052604080822080546001600160a01b0319166001600160a01b0387811691821790925591518593918516917f8c5be1e5ebec7d5bd14f71427d1e84f3dd0314c0f7b2291e5b200ac8c7c3b92591a4505050565b60085490565b610a3c610a366113e1565b826113e5565b610a775760405162461bcd60e51b81526004018080602001828103825260318152602001806120c56031913960400191505060405180910390fd5b610a82838383611489565b505050565b6000610a9283610cca565b8210610acf5760405162461bcd60e51b815260040180806020018281038252602b815260200180611e76602b913960400191505060405180910390fd5b6001600160a01b0383166000908152600660205260409020805483908110610af357fe5b9060005260206000200154905092915050565b60008082600e8054905081108015610b1c575060015b610b5f576040805162461bcd60e51b815260206004820152600f60248201526e125b9d985b1a59081a5d195b481a59608a1b604482015290519081900360640190fd5b600e8481548110610b6c57fe5b60009182526020909120015460ff16610b8485610c0f565b9250925050915091565b610a8283838360405180602001604052806000815250610f62565b6000610bb3610a25565b8210610bf05760405162461bcd60e51b815260040180806020018281038252602c8152602001806120f6602c913960400191505060405180910390fd5b60088281548110610bfd57fe5b90600052602060002001549050919050565b6000818152600260205260408120546001600160a01b031680610c635760405162461bcd60e51b8152600401808060200182810382526029815260200180611fab6029913960400191505060405180910390fd5b92915050565b600c8054604080516020601f60026000196101006001881615020190951694909404938401819004810282018101909252828152606093909290918301828280156108905780601f1061086557610100808354040283529160200191610890565b60006001600160a01b038216610d115760405162461bcd60e51b815260040180806020018281038252602a815260200180611f81602a913960400191505060405180910390fd5b6001600160a01b0382166000908152600460205260409020610c63906114a8565b610d3a610dd8565b610d79576040805162461bcd60e51b8152602060048201819052602482015260008051602061202c833981519152604482015290519081900360640190fd5b600080546040516001600160a01b03909116907f8be0079c531659141344cd1fd0a4f28419497f9722a3daafe3b4186f6b6457e0908390a3600080546001600160a01b0319169055565b600e5490565b6000546001600160a01b031690565b600080546001600160a01b0316610ded6113e1565b6001600160a01b031614905090565b600b8054604080516020601f60026000196101006001881615020190951694909404938401819004810282018101909252828152606093909290918301828280156108905780601f1061086557610100808354040283529160200191610890565b610e656113e1565b6001600160a01b0316826001600160a01b03161415610ecb576040805162461bcd60e51b815260206004820152601960248201527f4552433732313a20617070726f766520746f2063616c6c657200000000000000604482015290519081900360640190fd5b8060056000610ed86113e1565b6001600160a01b03908116825260208083019390935260409182016000908120918716808252919093529120805460ff191692151592909217909155610f1c6113e1565b60408051841515815290516001600160a01b0392909216917f17307eab39ab6107e8899845ad3d59bd9653f200f220920489ca2b5937696c319181900360200190a35050565b610f73610f6d6113e1565b836113e5565b610fae5760405162461bcd60e51b81526004018080602001828103825260318152602001806120c56031913960400191505060405180910390fd5b610fba848484846114ac565b50505050565b600e8181548110610fcd57fe5b60009182526020909120015460ff16905081565b6000610feb610dd8565b61102a576040805162461bcd60e51b8152602060048201819052602482015260008051602061202c833981519152604482015290519081900360640190fd5b60006110346112c1565b9050610c6381846114fe565b606061104b826113c4565b6110865760405162461bcd60e51b815260040180806020018281038252602f815260200180612075602f913960400191505060405180910390fd5b6000828152600d602090815260409182902080548351601f600260001961010060018616150201909316929092049182018490048402810184019094528084526060939283018282801561111b5780601f106110f05761010080835404028352916020019161111b565b820191906000526020600020905b8154815290600101906020018083116110fe57829003601f168201915b505050505090508051600014156111425750506040805160208101909152600081526107ff565b600c8160405160200180838054600181600116156101000203166002900480156111a35780601f106111815761010080835404028352918201916111a3565b820191906000526020600020905b81548152906001019060200180831161118f575b5050825160208401908083835b602083106111cf5780518252601f1990920191602091820191016111b0565b6001836020036101000a038019825116818451168082178552505050505050905001925050506040516020818303038152906040529150506107ff565b80600e818154811061121a57fe5b60009182526020909120015460ff1615611266576040805162461bcd60e51b81526020600482015260086024820152671cdbdb19081bdd5d60c21b604482015290519081900360640190fd5b6001600e838154811061127557fe5b6000918252602090912001805460ff19169115159190911790555050565b6001600160a01b03918216600090815260056020908152604080832093909416825291909152205460ff1690565b60006112cb610dd8565b61130a576040805162461bcd60e51b8152602060048201819052602482015260008051602061202c833981519152604482015290519081900360640190fd5b60408051602081019091526000808252600e80546001810182559181905291517fbb7b4a454dc3493923482f07822329ed19e8244eff582cc204f8554c3620c3fd909101805460ff1916911515919091179055546000190161136c3382611561565b905090565b611379610dd8565b6113b8576040805162461bcd60e51b8152602060048201819052602482015260008051602061202c833981519152604482015290519081900360640190fd5b6113c181611582565b50565b6000908152600260205260409020546001600160a01b0316151590565b3390565b60006113f0826113c4565b61142b5760405162461bcd60e51b815260040180806020018281038252602c815260200180611f1d602c913960400191505060405180910390fd5b600061143683610c0f565b9050806001600160a01b0316846001600160a01b031614806114715750836001600160a01b03166114668461089b565b6001600160a01b0316145b8061148157506114818185611293565b949350505050565b611494838383611622565b61149e8382611766565b610a82828261185b565b5490565b6114b7848484611489565b6114c384848484611899565b610fba5760405162461bcd60e51b8152600401808060200182810382526032815260200180611ea16032913960400191505060405180910390fd5b611507826113c4565b6115425760405162461bcd60e51b815260040180806020018281038252602c815260200180612000602c913960400191505060405180910390fd5b6000828152600d602090815260409091208251610a8292840190611dbd565b61156b8282611ad4565b611575828261185b565b61157e81611c05565b5050565b6001600160a01b0381166115c75760405162461bcd60e51b8152600401808060200182810382526026815260200180611ed36026913960400191505060405180910390fd5b600080546040516001600160a01b03808516939216917f8be0079c531659141344cd1fd0a4f28419497f9722a3daafe3b4186f6b6457e091a3600080546001600160a01b0319166001600160a01b0392909216919091179055565b826001600160a01b031661163582610c0f565b6001600160a01b03161461167a5760405162461bcd60e51b815260040180806020018281038252602981526020018061204c6029913960400191505060405180910390fd5b6001600160a01b0382166116bf5760405162461bcd60e51b8152600401808060200182810382526024815260200180611ef96024913960400191505060405180910390fd5b6116c881611c49565b6001600160a01b03831660009081526004602052604090206116e990611c84565b6001600160a01b038216600090815260046020526040902061170a90611c9b565b60008181526002602052604080822080546001600160a01b0319166001600160a01b0386811691821790925591518493918716917fddf252ad1be2c89b69c2b068fc378daa952ba7f163c4a11628f55a4df523b3ef91a4505050565b6001600160a01b03821660009081526006602052604081205461179090600163ffffffff611ca416565b60008381526007602052604090205490915080821461182b576001600160a01b03841660009081526006602052604081208054849081106117cd57fe5b906000526020600020015490508060066000876001600160a01b03166001600160a01b03168152602001908152602001600020838154811061180b57fe5b600091825260208083209091019290925591825260079052604090208190555b6001600160a01b0384166000908152600660205260409020805490611854906000198301611e3b565b5050505050565b6001600160a01b0390911660009081526006602081815260408084208054868652600784529185208290559282526001810183559183529091200155565b60006118ad846001600160a01b0316611ced565b6118b957506001611481565b600060606001600160a01b038616630a85bd0160e11b6118d76113e1565b89888860405160240180856001600160a01b03166001600160a01b03168152602001846001600160a01b03166001600160a01b0316815260200183815260200180602001828103825283818151815260200191508051906020019080838360005b83811015611950578181015183820152602001611938565b50505050905090810190601f16801561197d5780820380516001836020036101000a031916815260200191505b5060408051601f198184030181529181526020820180516001600160e01b03166001600160e01b0319909a16999099178952518151919890975087965094509250829150849050835b602083106119e55780518252601f1990920191602091820191016119c6565b6001836020036101000a0380198251168184511680821785525050505050509050019150506000604051808303816000865af19150503d8060008114611a47576040519150601f19603f3d011682016040523d82523d6000602084013e611a4c565b606091505b509150915081611a9d57805115611a665780518082602001fd5b60405162461bcd60e51b8152600401808060200182810382526032815260200180611ea16032913960400191505060405180910390fd5b6000818060200190516020811015611ab457600080fd5b50516001600160e01b031916630a85bd0160e11b14935061148192505050565b6001600160a01b038216611b2f576040805162461bcd60e51b815260206004820181905260248201527f4552433732313a206d696e7420746f20746865207a65726f2061646472657373604482015290519081900360640190fd5b611b38816113c4565b15611b8a576040805162461bcd60e51b815260206004820152601c60248201527f4552433732313a20746f6b656e20616c7265616479206d696e74656400000000604482015290519081900360640190fd5b600081815260026020908152604080832080546001600160a01b0319166001600160a01b038716908117909155835260049091529020611bc990611c9b565b60405181906001600160a01b038416906000907fddf252ad1be2c89b69c2b068fc378daa952ba7f163c4a11628f55a4df523b3ef908290a45050565b600880546000838152600960205260408120829055600182018355919091527ff3f7a9fe364faab93b216da50a3214154f22a0a2b415b23a84c8169e8b636ee30155565b6000818152600360205260409020546001600160a01b0316156113c157600090815260036020526040902080546001600160a01b0319169055565b8054611c9790600163ffffffff611ca416565b9055565b80546001019055565b6000611ce683836040518060400160405280601e81526020017f536166654d6174683a207375627472616374696f6e206f766572666c6f770000815250611d26565b9392505050565b6000813f7fc5d2460186f7233c927e7db2dcc703c0e500b653ca82273b7bfad8045d85a470818114801590611481575050151592915050565b60008184841115611db55760405162461bcd60e51b81526004018080602001828103825283818151815260200191508051906020019080838360005b83811015611d7a578181015183820152602001611d62565b50505050905090810190601f168015611da75780820380516001836020036101000a031916815260200191505b509250505060405180910390fd5b505050900390565b828054600181600116156101000203166002900490600052602060002090601f016020900481019282601f10611dfe57805160ff1916838001178555611e2b565b82800160010185558215611e2b579182015b82811115611e2b578251825591602001919060010190611e10565b50611e37929150611e5b565b5090565b815481835581811115610a8257600083815260209020610a829181019083015b61089891905b80821115611e375760008155600101611e6156fe455243373231456e756d657261626c653a206f776e657220696e646578206f7574206f6620626f756e64734552433732313a207472616e7366657220746f206e6f6e20455243373231526563656976657220696d706c656d656e7465724f776e61626c653a206e6577206f776e657220697320746865207a65726f20616464726573734552433732313a207472616e7366657220746f20746865207a65726f20616464726573734552433732313a206f70657261746f7220717565727920666f72206e6f6e6578697374656e7420746f6b656e4552433732313a20617070726f76652063616c6c6572206973206e6f74206f776e6572206e6f7220617070726f76656420666f7220616c6c4552433732313a2062616c616e636520717565727920666f7220746865207a65726f20616464726573734552433732313a206f776e657220717565727920666f72206e6f6e6578697374656e7420746f6b656e4552433732313a20617070726f76656420717565727920666f72206e6f6e6578697374656e7420746f6b656e4552433732314d657461646174613a2055524920736574206f66206e6f6e6578697374656e7420746f6b656e4f776e61626c653a2063616c6c6572206973206e6f7420746865206f776e65724552433732313a207472616e73666572206f6620746f6b656e2074686174206973206e6f74206f776e4552433732314d657461646174613a2055524920717565727920666f72206e6f6e6578697374656e7420746f6b656e4552433732313a20617070726f76616c20746f2063757272656e74206f776e65724552433732313a207472616e736665722063616c6c6572206973206e6f74206f776e6572206e6f7220617070726f766564455243373231456e756d657261626c653a20676c6f62616c20696e646578206f7574206f6620626f756e6473a265627a7a72315820eba6f65883ec9959b7c6428b08a9387ff49d511dd303a3e9db7ed164b63f2a2f64736f6c63430005110032",
  "source": "pragma solidity ^0.5.0;\n\nimport \"../node_modules/@openzeppelin/contracts/ownership/Ownable.sol\";\nimport \"../node_modules/@openzeppelin/contracts/token/ERC721/ERC721Full.sol\";\n\n\ncontract ItemToken is Ownable, ERC721Full {\n    struct Item {\n        bool sold;\n    }\n\n    Item[] public items;\n\n    constructor(string memory name, string memory symbol, string memory baseURI) public ERC721Full(name, symbol) {\n        _setBaseURI(baseURI);\n    }\n\n    function mintItem() public onlyOwner returns (uint256) {\n        items.push(Item(false));\n        uint256 newTokenId = items.length - 1;\n        _mint(msg.sender, newTokenId);\n        return newTokenId;\n    }\n\n    function mintItem(string memory _tokenURI) public onlyOwner returns (uint256) {\n        uint256 newTokenId = mintItem();\n        _setTokenURI(newTokenId, _tokenURI);\n        return newTokenId;\n    }\n\n    modifier validItemId(uint256 itemId) {\n        require(itemId < items.length && itemId >= 0, \"Invalid item id\");\n        _;\n    }\n\n    modifier unsold(uint256 _id) {\n        require(!items[_id].sold, \"sold out\");\n        _;\n    }\n\n    function getItem(uint256 _id) public view validItemId(_id) returns (bool, address) {\n        return (items[_id].sold, ownerOf(_id));\n    }\n\n    function getItemCount() public view returns (uint256) {\n        return items.length;\n    }\n\n    function buy(uint256 _id) public payable unsold(_id) {\n        items[_id].sold = true;\n    }\n}\n",
  "sourcePath": "/Users/tomoki_nakano/item_shop/contracts/ItemToken.sol",
  "compiler": {
    "name": "solc",
    "version": "0.5.17+commit.d19bba13.Emscripten.clang"
  },
  "schemaVersion": "3.1.0",
  "updatedAt": "2020-04-30T07:11:08.253Z",
  "devdoc": {
    "methods": {
      "approve(address,uint256)": {
        "details": "Approves another address to transfer the given token ID The zero address indicates there is no approved address. There can only be one approved address per token at a given time. Can only be called by the token owner or an approved operator.",
        "params": {
          "to": "address to be approved for the given token ID",
          "tokenId": "uint256 ID of the token to be approved"
        }
      },
      "balanceOf(address)": {
        "details": "Gets the balance of the specified address.",
        "params": {
          "owner": "address to query the balance of"
        },
        "return": "uint256 representing the amount owned by the passed address"
      },
      "baseURI()": {
        "details": "Returns the base URI set via {_setBaseURI}. This will be automatically added as a preffix in {tokenURI} to each token's URI, when they are non-empty.    * _Available since v2.5.0._"
      },
      "getApproved(uint256)": {
        "details": "Gets the approved address for a token ID, or zero if no address set Reverts if the token ID does not exist.",
        "params": {
          "tokenId": "uint256 ID of the token to query the approval of"
        },
        "return": "address currently approved for the given token ID"
      },
      "isApprovedForAll(address,address)": {
        "details": "Tells whether an operator is approved by a given owner.",
        "params": {
          "operator": "operator address which you want to query the approval of",
          "owner": "owner address which you want to query the approval of"
        },
        "return": "bool whether the given operator is approved by the given owner"
      },
      "isOwner()": {
        "details": "Returns true if the caller is the current owner."
      },
      "name()": {
        "details": "Gets the token name.",
        "return": "string representing the token name"
      },
      "owner()": {
        "details": "Returns the address of the current owner."
      },
      "ownerOf(uint256)": {
        "details": "Gets the owner of the specified token ID.",
        "params": {
          "tokenId": "uint256 ID of the token to query the owner of"
        },
        "return": "address currently marked as the owner of the given token ID"
      },
      "renounceOwnership()": {
        "details": "Leaves the contract without owner. It will not be possible to call `onlyOwner` functions anymore. Can only be called by the current owner.     * NOTE: Renouncing ownership will leave the contract without an owner, thereby removing any functionality that is only available to the owner."
      },
      "safeTransferFrom(address,address,uint256)": {
        "details": "Safely transfers the ownership of a given token ID to another address If the target address is a contract, it must implement {IERC721Receiver-onERC721Received}, which is called upon a safe transfer, and return the magic value `bytes4(keccak256(\"onERC721Received(address,address,uint256,bytes)\"))`; otherwise, the transfer is reverted. Requires the msg.sender to be the owner, approved, or operator",
        "params": {
          "from": "current owner of the token",
          "to": "address to receive the ownership of the given token ID",
          "tokenId": "uint256 ID of the token to be transferred"
        }
      },
      "safeTransferFrom(address,address,uint256,bytes)": {
        "details": "Safely transfers the ownership of a given token ID to another address If the target address is a contract, it must implement {IERC721Receiver-onERC721Received}, which is called upon a safe transfer, and return the magic value `bytes4(keccak256(\"onERC721Received(address,address,uint256,bytes)\"))`; otherwise, the transfer is reverted. Requires the _msgSender() to be the owner, approved, or operator",
        "params": {
          "_data": "bytes data to send along with a safe transfer check",
          "from": "current owner of the token",
          "to": "address to receive the ownership of the given token ID",
          "tokenId": "uint256 ID of the token to be transferred"
        }
      },
      "setApprovalForAll(address,bool)": {
        "details": "Sets or unsets the approval of a given operator An operator is allowed to transfer all tokens of the sender on their behalf.",
        "params": {
          "approved": "representing the status of the approval to be set",
          "to": "operator address to set the approval"
        }
      },
      "supportsInterface(bytes4)": {
        "details": "See {IERC165-supportsInterface}.     * Time complexity O(1), guaranteed to always use less than 30 000 gas."
      },
      "symbol()": {
        "details": "Gets the token symbol.",
        "return": "string representing the token symbol"
      },
      "tokenByIndex(uint256)": {
        "details": "Gets the token ID at a given index of all the tokens in this contract Reverts if the index is greater or equal to the total number of tokens.",
        "params": {
          "index": "uint256 representing the index to be accessed of the tokens list"
        },
        "return": "uint256 token ID at the given index of the tokens list"
      },
      "tokenOfOwnerByIndex(address,uint256)": {
        "details": "Gets the token ID at a given index of the tokens list of the requested owner.",
        "params": {
          "index": "uint256 representing the index to be accessed of the requested tokens list",
          "owner": "address owning the tokens list to be accessed"
        },
        "return": "uint256 token ID at the given index of the tokens list owned by the requested address"
      },
      "tokenURI(uint256)": {
        "details": "Returns the URI for a given token ID. May return an empty string.     * If the token's URI is non-empty and a base URI was set (via {_setBaseURI}), it will be added to the token ID's URI as a prefix.     * Reverts if the token ID does not exist."
      },
      "totalSupply()": {
        "details": "Gets the total amount of tokens stored by the contract.",
        "return": "uint256 representing the total amount of tokens"
      },
      "transferFrom(address,address,uint256)": {
        "details": "Transfers the ownership of a given token ID to another address. Usage of this method is discouraged, use {safeTransferFrom} whenever possible. Requires the msg.sender to be the owner, approved, or operator.",
        "params": {
          "from": "current owner of the token",
          "to": "address to receive the ownership of the given token ID",
          "tokenId": "uint256 ID of the token to be transferred"
        }
      },
      "transferOwnership(address)": {
        "details": "Transfers ownership of the contract to a new account (`newOwner`). Can only be called by the current owner."
      }
    }
  },
  "userdoc": {
    "methods": {}
  }
}